{
	"data": {
		"bytecode": {
			"linkReferences": {},
			"object": "60806040523480156200001157600080fd5b50604051620021ce380380620021ce833981810160405281019062000037919062000184565b80620000586200004c620000a160201b60201c565b620000a960201b60201c565b80600160006101000a81548173ffffffffffffffffffffffffffffffffffffffff021916908373ffffffffffffffffffffffffffffffffffffffff160217905550505062000209565b600033905090565b60008060009054906101000a900473ffffffffffffffffffffffffffffffffffffffff169050816000806101000a81548173ffffffffffffffffffffffffffffffffffffffff021916908373ffffffffffffffffffffffffffffffffffffffff1602179055508173ffffffffffffffffffffffffffffffffffffffff168173ffffffffffffffffffffffffffffffffffffffff167f8be0079c531659141344cd1fd0a4f28419497f9722a3daafe3b4186f6b6457e060405160405180910390a35050565b6000815190506200017e81620001ef565b92915050565b6000602082840312156200019d576200019c620001ea565b5b6000620001ad848285016200016d565b91505092915050565b6000620001c382620001ca565b9050919050565b600073ffffffffffffffffffffffffffffffffffffffff82169050919050565b600080fd5b620001fa81620001b6565b81146200020657600080fd5b50565b611fb580620002196000396000f3fe608060405234801561001057600080fd5b50600436106101005760003560e01c8063795d2dc311610097578063cdb2d74011610066578063cdb2d74014610267578063d87cde6714610283578063e7babd361461029f578063f2fde38b146102bb57610100565b8063795d2dc3146101ef5780637b79bd151461020d5780638da5cb5b1461022b578063cae6047f1461024957610100565b80635ac14a29116100d35780635ac14a291461017b578063619d36ef146101ab578063715018a6146101c957806376bfff26146101d357610100565b80630538462d14610105578063069c00b714610123578063342e4cbf1461012d5780634178a0521461014b575b600080fd5b61010d6102d7565b60405161011a919061166e565b60405180910390f35b61012b6102dd565b005b6101356103b5565b604051610142919061166e565b60405180910390f35b61016560048036038101906101609190611253565b6103bb565b604051610172919061150e565b60405180910390f35b610195600480360381019061019091906111e6565b61050b565b6040516101a2919061166e565b60405180910390f35b6101b3610566565b6040516101c0919061166e565b60405180910390f35b6101d1610578565b005b6101ed60048036038101906101e891906112a7565b610600565b005b6101f7610686565b604051610204919061166e565b60405180910390f35b61021561068c565b604051610222919061166e565b60405180910390f35b610233610692565b60405161024091906114f3565b60405180910390f35b6102516106bb565b60405161025e919061166e565b60405180910390f35b610281600480360381019061027c91906111e6565b6106c1565b005b61029d600480360381019061029891906112a7565b610781565b005b6102b960048036038101906102b49190611213565b61083e565b005b6102d560048036038101906102d091906111e6565b610b7b565b005b60035481565b600060025411610322576040517f08c379a0000000000000000000000000000000000000000000000000000000008152600401610319906115ee565b60405180910390fd5b6003544211610366576040517f08c379a000000000000000000000000000000000000000000000000000000000815260040161035d906115ce565b60405180910390fd5b60025442610374919061175e565b6003819055507fd030312c5a225a12eff0b71f7d7bd2bf855a088a13b5e150c6aef0324e8b4d936003546040516103ab919061166e565b60405180910390a1565b60055481565b60006103c8848484610c73565b9050600060028111156103de576103dd611ce9565b5b6004600083815260200190815260200160002060000160009054906101000a900460ff16600281111561041457610413611ce9565b5b14610454576040517f08c379a000000000000000000000000000000000000000000000000000000000815260040161044b9061160e565b60405180910390fd5b60016004600083815260200190815260200160002060000160006101000a81548160ff0219169083600281111561048e5761048d611ce9565b5b0217905550836020015173ffffffffffffffffffffffffffffffffffffffff16846000015173ffffffffffffffffffffffffffffffffffffffff167f65103bca97ac567bbe5cb724e9d9c70fde94f815aea8f3e0d1a60c5255fa36a386604001516040516104fc919061166e565b60405180910390a39392505050565b6000600660008373ffffffffffffffffffffffffffffffffffffffff1673ffffffffffffffffffffffffffffffffffffffff1681526020019081526020016000206000015490506000811415610561576105dc90505b919050565b6002612710610575919061181e565b81565b610580610cd2565b73ffffffffffffffffffffffffffffffffffffffff1661059e610692565b73ffffffffffffffffffffffffffffffffffffffff16146105f4576040517f08c379a00000000000000000000000000000000000000000000000000000000081526004016105eb9061162e565b60405180910390fd5b6105fe6000610cda565b565b610608610cd2565b73ffffffffffffffffffffffffffffffffffffffff16610626610692565b73ffffffffffffffffffffffffffffffffffffffff161461067c576040517f08c379a00000000000000000000000000000000000000000000000000000000081526004016106739061162e565b60405180910390fd5b8060028190555050565b61271081565b60025481565b60008060009054906101000a900473ffffffffffffffffffffffffffffffffffffffff16905090565b61271081565b6106c9610cd2565b73ffffffffffffffffffffffffffffffffffffffff166106e7610692565b73ffffffffffffffffffffffffffffffffffffffff161461073d576040517f08c379a00000000000000000000000000000000000000000000000000000000081526004016107349061162e565b60405180910390fd5b80600160006101000a81548173ffffffffffffffffffffffffffffffffffffffff021916908373ffffffffffffffffffffffffffffffffffffffff16021790555050565b610789610cd2565b73ffffffffffffffffffffffffffffffffffffffff166107a7610692565b73ffffffffffffffffffffffffffffffffffffffff16146107fd576040517f08c379a00000000000000000000000000000000000000000000000000000000081526004016107f49061162e565b60405180910390fd5b806005819055507fa5435f366976d3244199255126c12b4e3eb72499d5c48ece60e23484233ebe4981604051610833919061166e565b60405180910390a150565b600160009054906101000a900473ffffffffffffffffffffffffffffffffffffffff1673ffffffffffffffffffffffffffffffffffffffff1661087f610cd2565b73ffffffffffffffffffffffffffffffffffffffff16146108d5576040517f08c379a00000000000000000000000000000000000000000000000000000000081526004016108cc9061164e565b60405180910390fd5b60006108e083610d9e565b9050600160028111156108f6576108f5611ce9565b5b6004600083815260200190815260200160002060000160009054906101000a900460ff16600281111561092c5761092b611ce9565b5b1461096c576040517f08c379a00000000000000000000000000000000000000000000000000000000081526004016109639061158e565b60405180910390fd5b600061097b846000015161050b565b9050600061098c856020015161050b565b90506000806000600160028111156109a7576109a6611ce9565b5b8760028111156109ba576109b9611ce9565b5b14156109d157612710925087600001519050610a32565b6002808111156109e4576109e3611ce9565b5b8760028111156109f7576109f6611ce9565b5b1415610a0e57612710915087602001519050610a31565b6002612710610a1d919061181e565b92506002612710610a2e919061181e565b91505b5b600061019086610a42919061181e565b600a610a4e91906118a2565b9050600061019086610a60919061181e565b600a610a6c91906118a2565b90506002600460008a815260200190815260200160002060000160006101000a81548160ff02191690836002811115610aa857610aa7611ce9565b5b021790555082600460008a815260200190815260200160002060000160016101000a81548173ffffffffffffffffffffffffffffffffffffffff021916908373ffffffffffffffffffffffffffffffffffffffff16021790555060006127108284610b13919061175e565b84610b1e919061181e565b610b289190611ad7565b9050610b398b600001518288610db8565b6127108284610b48919061175e565b83610b53919061181e565b610b5d9190611ad7565b9050610b6e8b602001518287610db8565b5050505050505050505050565b610b83610cd2565b73ffffffffffffffffffffffffffffffffffffffff16610ba1610692565b73ffffffffffffffffffffffffffffffffffffffff1614610bf7576040517f08c379a0000000000000000000000000000000000000000000000000000000008152600401610bee9061162e565b60405180910390fd5b600073ffffffffffffffffffffffffffffffffffffffff168173ffffffffffffffffffffffffffffffffffffffff161415610c67576040517f08c379a0000000000000000000000000000000000000000000000000000000008152600401610c5e906115ae565b60405180910390fd5b610c7081610cda565b50565b6000610c8c84610c8286610d9e565b9250828585610df2565b610ccb576040517f08c379a0000000000000000000000000000000000000000000000000000000008152600401610cc29061156e565b60405180910390fd5b9392505050565b600033905090565b60008060009054906101000a900473ffffffffffffffffffffffffffffffffffffffff169050816000806101000a81548173ffffffffffffffffffffffffffffffffffffffff021916908373ffffffffffffffffffffffffffffffffffffffff1602179055508173ffffffffffffffffffffffffffffffffffffffff168173ffffffffffffffffffffffffffffffffffffffff167f8be0079c531659141344cd1fd0a4f28419497f9722a3daafe3b4186f6b6457e060405160405180910390a35050565b6000610db1610dac83610f20565b610f60565b9050919050565b60006127108383610dc99190611b31565b600554610dd691906119c0565b610de091906117b4565b9050610dec8482610f90565b50505050565b6000846000015173ffffffffffffffffffffffffffffffffffffffff1660018585600001518660200151876040015160405160008152602001604052604051610e3e9493929190611529565b6020604051602081039080840390855afa158015610e60573d6000803e3d6000fd5b5050506020604051035173ffffffffffffffffffffffffffffffffffffffff16148015610f165750846020015173ffffffffffffffffffffffffffffffffffffffff1660018584600001518560200151866040015160405160008152602001604052604051610ed29493929190611529565b6020604051602081039080840390855afa158015610ef4573d6000803e3d6000fd5b5050506020604051035173ffffffffffffffffffffffffffffffffffffffff16145b9050949350505050565b6000816000015182602001518360400151604051602001610f4393929190611490565b604051602081830303815290604052805190602001209050919050565b600081604051602001610f7391906114cd565b604051602081830303815290604052805190602001209050919050565b6000600660008473ffffffffffffffffffffffffffffffffffffffff1673ffffffffffffffffffffffffffffffffffffffff168152602001908152602001600020905060008290506000600254111561103b57426002548360010154610ff6919061175e565b111561101e578082600201600082825461101091906116ca565b9250508190555050506110b1565b81600201548161102e91906116ca565b9050600082600201819055505b80826000015461104b91906116ca565b82600001819055504282600101819055508373ffffffffffffffffffffffffffffffffffffffff167fd838c7af1f5251fe2f34428da1866032b49352157a98744e031d35bda4125a6183600001546040516110a6919061166e565b60405180910390a250505b5050565b6000813590506110c481611f13565b92915050565b6000813590506110d981611f2a565b92915050565b6000813590506110ee81611f41565b92915050565b60006060828403121561110a57611109611d47565b5b6111146060611689565b90506000611124848285016110b5565b6000830152506020611138848285016110b5565b602083015250604061114c848285016111bc565b60408301525092915050565b60006060828403121561116e5761116d611d47565b5b6111786060611689565b90506000611188848285016111d1565b600083015250602061119c848285016110ca565b60208301525060406111b0848285016110ca565b60408301525092915050565b6000813590506111cb81611f51565b92915050565b6000813590506111e081611f68565b92915050565b6000602082840312156111fc576111fb611d4c565b5b600061120a848285016110b5565b91505092915050565b6000806080838503121561122a57611229611d4c565b5b6000611238858286016110f4565b9250506060611249858286016110df565b9150509250929050565b6000806000610120848603121561126d5761126c611d4c565b5b600061127b868287016110f4565b935050606061128c86828701611158565b92505060c061129d86828701611158565b9150509250925092565b6000602082840312156112bd576112bc611d4c565b5b60006112cb848285016111bc565b91505092915050565b6112dd81611bc5565b82525050565b6112f46112ef82611bc5565b611c53565b82525050565b61130381611bd7565b82525050565b61131a61131582611bd7565b611c65565b82525050565b600061132d600d836116ae565b915061133882611d7c565b602082019050919050565b60006113506013836116ae565b915061135b82611da5565b602082019050919050565b6000611373601c836116bf565b915061137e82611dce565b601c82019050919050565b60006113966026836116ae565b91506113a182611df7565b604082019050919050565b60006113b96011836116ae565b91506113c482611e46565b602082019050919050565b60006113dc601b836116ae565b91506113e782611e6f565b602082019050919050565b60006113ff601c836116ae565b915061140a82611e98565b602082019050919050565b60006114226020836116ae565b915061142d82611ec1565b602082019050919050565b60006114456019836116ae565b915061145082611eea565b602082019050919050565b61146481611c0b565b82525050565b61147b61147682611c0b565b611c81565b82525050565b61148a81611c15565b82525050565b600061149c82866112e3565b6014820191506114ac82856112e3565b6014820191506114bc828461146a565b602082019150819050949350505050565b60006114d882611366565b91506114e48284611309565b60208201915081905092915050565b600060208201905061150860008301846112d4565b92915050565b600060208201905061152360008301846112fa565b92915050565b600060808201905061153e60008301876112fa565b61154b6020830186611481565b61155860408301856112fa565b61156560608301846112fa565b95945050505050565b6000602082019050818103600083015261158781611320565b9050919050565b600060208201905081810360008301526115a781611343565b9050919050565b600060208201905081810360008301526115c781611389565b9050919050565b600060208201905081810360008301526115e7816113ac565b9050919050565b60006020820190508181036000830152611607816113cf565b9050919050565b60006020820190508181036000830152611627816113f2565b9050919050565b6000602082019050818103600083015261164781611415565b9050919050565b6000602082019050818103600083015261166781611438565b9050919050565b6000602082019050611683600083018461145b565b92915050565b60006116936116a4565b905061169f8282611c22565b919050565b6000604051905090565b600082825260208201905092915050565b600081905092915050565b60006116d582611be1565b91506116e083611be1565b9250817f7fffffffffffffffffffffffffffffffffffffffffffffffffffffffffffffff0383136000831215161561171b5761171a611c8b565b5b817f800000000000000000000000000000000000000000000000000000000000000003831260008312161561175357611752611c8b565b5b828201905092915050565b600061176982611c0b565b915061177483611c0b565b9250827fffffffffffffffffffffffffffffffffffffffffffffffffffffffffffffffff038211156117a9576117a8611c8b565b5b828201905092915050565b60006117bf82611be1565b91506117ca83611be1565b9250826117da576117d9611cba565b5b600160000383147f80000000000000000000000000000000000000000000000000000000000000008314161561181357611812611c8b565b5b828205905092915050565b600061182982611c0b565b915061183483611c0b565b92508261184457611843611cba565b5b828204905092915050565b6000808291508390505b60018511156118995780860481111561187557611874611c8b565b5b60018516156118845780820291505b808102905061189285611d6f565b9450611859565b94509492505050565b60006118ad82611c0b565b91506118b883611c0b565b92506118e57fffffffffffffffffffffffffffffffffffffffffffffffffffffffffffffffff84846118ed565b905092915050565b6000826118fd57600190506119b9565b8161190b57600090506119b9565b8160018114611921576002811461192b5761195a565b60019150506119b9565b60ff84111561193d5761193c611c8b565b5b8360020a91508482111561195457611953611c8b565b5b506119b9565b5060208310610133831016604e8410600b841016171561198f5782820a90508381111561198a57611989611c8b565b5b6119b9565b61199c848484600161184f565b925090508184048111156119b3576119b2611c8b565b5b81810290505b9392505050565b60006119cb82611be1565b91506119d683611be1565b9250827f7fffffffffffffffffffffffffffffffffffffffffffffffffffffffffffffff0482116000841360008413161615611a1557611a14611c8b565b5b817f80000000000000000000000000000000000000000000000000000000000000000583126000841260008413161615611a5257611a51611c8b565b5b827f80000000000000000000000000000000000000000000000000000000000000000582126000841360008412161615611a8f57611a8e611c8b565b5b827f7fffffffffffffffffffffffffffffffffffffffffffffffffffffffffffffff0582126000841260008412161615611acc57611acb611c8b565b5b828202905092915050565b6000611ae282611c0b565b9150611aed83611c0b565b9250817fffffffffffffffffffffffffffffffffffffffffffffffffffffffffffffffff0483118215151615611b2657611b25611c8b565b5b828202905092915050565b6000611b3c82611be1565b9150611b4783611be1565b9250827f800000000000000000000000000000000000000000000000000000000000000001821260008412151615611b8257611b81611c8b565b5b827f7fffffffffffffffffffffffffffffffffffffffffffffffffffffffffffffff018213600084121615611bba57611bb9611c8b565b5b828203905092915050565b6000611bd082611beb565b9050919050565b6000819050919050565b6000819050919050565b600073ffffffffffffffffffffffffffffffffffffffff82169050919050565b6000819050919050565b600060ff82169050919050565b611c2b82611d51565b810181811067ffffffffffffffff82111715611c4a57611c49611d18565b5b80604052505050565b6000611c5e82611c6f565b9050919050565b6000819050919050565b6000611c7a82611d62565b9050919050565b6000819050919050565b7f4e487b7100000000000000000000000000000000000000000000000000000000600052601160045260246000fd5b7f4e487b7100000000000000000000000000000000000000000000000000000000600052601260045260246000fd5b7f4e487b7100000000000000000000000000000000000000000000000000000000600052602160045260246000fd5b7f4e487b7100000000000000000000000000000000000000000000000000000000600052604160045260246000fd5b600080fd5b600080fd5b6000601f19601f8301169050919050565b60008160601b9050919050565b60008160011c9050919050565b7f696e76616c6964206d6174636800000000000000000000000000000000000000600082015250565b7f6d617463682069736e27742072756e6e696e6700000000000000000000000000600082015250565b7f19457468657265756d205369676e6564204d6573736167653a0a333200000000600082015250565b7f4f776e61626c653a206e6577206f776e657220697320746865207a65726f206160008201527f6464726573730000000000000000000000000000000000000000000000000000602082015250565b7f69742069736e27742074696d6520796574000000000000000000000000000000600082015250565b7f6576616c756174696f6e20706572696f642069736e2774207365740000000000600082015250565b7f7468652067616d652068617320616c7265616479207374617274656400000000600082015250565b7f4f776e61626c653a2063616c6c6572206973206e6f7420746865206f776e6572600082015250565b7f4f6e6c792047616d65436f6e747261637420416c6c6f77656400000000000000600082015250565b611f1c81611bc5565b8114611f2757600080fd5b50565b611f3381611bd7565b8114611f3e57600080fd5b50565b60038110611f4e57600080fd5b50565b611f5a81611c0b565b8114611f6557600080fd5b50565b611f7181611c15565b8114611f7c57600080fd5b5056fea2646970667358221220242e7fb120adda7291c79e4120296f0ea055b96ffbfb7152dd5a509bacde58d064736f6c63430008070033",
			"opcodes": "PUSH1 0x80 PUSH1 0x40 MSTORE CALLVALUE DUP1 ISZERO PUSH3 0x11 JUMPI PUSH1 0x0 DUP1 REVERT JUMPDEST POP PUSH1 0x40 MLOAD PUSH3 0x21CE CODESIZE SUB DUP1 PUSH3 0x21CE DUP4 CODECOPY DUP2 DUP2 ADD PUSH1 0x40 MSTORE DUP2 ADD SWAP1 PUSH3 0x37 SWAP2 SWAP1 PUSH3 0x184 JUMP JUMPDEST DUP1 PUSH3 0x58 PUSH3 0x4C PUSH3 0xA1 PUSH1 0x20 SHL PUSH1 0x20 SHR JUMP JUMPDEST PUSH3 0xA9 PUSH1 0x20 SHL PUSH1 0x20 SHR JUMP JUMPDEST DUP1 PUSH1 0x1 PUSH1 0x0 PUSH2 0x100 EXP DUP2 SLOAD DUP2 PUSH20 0xFFFFFFFFFFFFFFFFFFFFFFFFFFFFFFFFFFFFFFFF MUL NOT AND SWAP1 DUP4 PUSH20 0xFFFFFFFFFFFFFFFFFFFFFFFFFFFFFFFFFFFFFFFF AND MUL OR SWAP1 SSTORE POP POP POP PUSH3 0x209 JUMP JUMPDEST PUSH1 0x0 CALLER SWAP1 POP SWAP1 JUMP JUMPDEST PUSH1 0x0 DUP1 PUSH1 0x0 SWAP1 SLOAD SWAP1 PUSH2 0x100 EXP SWAP1 DIV PUSH20 0xFFFFFFFFFFFFFFFFFFFFFFFFFFFFFFFFFFFFFFFF AND SWAP1 POP DUP2 PUSH1 0x0 DUP1 PUSH2 0x100 EXP DUP2 SLOAD DUP2 PUSH20 0xFFFFFFFFFFFFFFFFFFFFFFFFFFFFFFFFFFFFFFFF MUL NOT AND SWAP1 DUP4 PUSH20 0xFFFFFFFFFFFFFFFFFFFFFFFFFFFFFFFFFFFFFFFF AND MUL OR SWAP1 SSTORE POP DUP2 PUSH20 0xFFFFFFFFFFFFFFFFFFFFFFFFFFFFFFFFFFFFFFFF AND DUP2 PUSH20 0xFFFFFFFFFFFFFFFFFFFFFFFFFFFFFFFFFFFFFFFF AND PUSH32 0x8BE0079C531659141344CD1FD0A4F28419497F9722A3DAAFE3B4186F6B6457E0 PUSH1 0x40 MLOAD PUSH1 0x40 MLOAD DUP1 SWAP2 SUB SWAP1 LOG3 POP POP JUMP JUMPDEST PUSH1 0x0 DUP2 MLOAD SWAP1 POP PUSH3 0x17E DUP2 PUSH3 0x1EF JUMP JUMPDEST SWAP3 SWAP2 POP POP JUMP JUMPDEST PUSH1 0x0 PUSH1 0x20 DUP3 DUP5 SUB SLT ISZERO PUSH3 0x19D JUMPI PUSH3 0x19C PUSH3 0x1EA JUMP JUMPDEST JUMPDEST PUSH1 0x0 PUSH3 0x1AD DUP5 DUP3 DUP6 ADD PUSH3 0x16D JUMP JUMPDEST SWAP2 POP POP SWAP3 SWAP2 POP POP JUMP JUMPDEST PUSH1 0x0 PUSH3 0x1C3 DUP3 PUSH3 0x1CA JUMP JUMPDEST SWAP1 POP SWAP2 SWAP1 POP JUMP JUMPDEST PUSH1 0x0 PUSH20 0xFFFFFFFFFFFFFFFFFFFFFFFFFFFFFFFFFFFFFFFF DUP3 AND SWAP1 POP SWAP2 SWAP1 POP JUMP JUMPDEST PUSH1 0x0 DUP1 REVERT JUMPDEST PUSH3 0x1FA DUP2 PUSH3 0x1B6 JUMP JUMPDEST DUP2 EQ PUSH3 0x206 JUMPI PUSH1 0x0 DUP1 REVERT JUMPDEST POP JUMP JUMPDEST PUSH2 0x1FB5 DUP1 PUSH3 0x219 PUSH1 0x0 CODECOPY PUSH1 0x0 RETURN INVALID PUSH1 0x80 PUSH1 0x40 MSTORE CALLVALUE DUP1 ISZERO PUSH2 0x10 JUMPI PUSH1 0x0 DUP1 REVERT JUMPDEST POP PUSH1 0x4 CALLDATASIZE LT PUSH2 0x100 JUMPI PUSH1 0x0 CALLDATALOAD PUSH1 0xE0 SHR DUP1 PUSH4 0x795D2DC3 GT PUSH2 0x97 JUMPI DUP1 PUSH4 0xCDB2D740 GT PUSH2 0x66 JUMPI DUP1 PUSH4 0xCDB2D740 EQ PUSH2 0x267 JUMPI DUP1 PUSH4 0xD87CDE67 EQ PUSH2 0x283 JUMPI DUP1 PUSH4 0xE7BABD36 EQ PUSH2 0x29F JUMPI DUP1 PUSH4 0xF2FDE38B EQ PUSH2 0x2BB JUMPI PUSH2 0x100 JUMP JUMPDEST DUP1 PUSH4 0x795D2DC3 EQ PUSH2 0x1EF JUMPI DUP1 PUSH4 0x7B79BD15 EQ PUSH2 0x20D JUMPI DUP1 PUSH4 0x8DA5CB5B EQ PUSH2 0x22B JUMPI DUP1 PUSH4 0xCAE6047F EQ PUSH2 0x249 JUMPI PUSH2 0x100 JUMP JUMPDEST DUP1 PUSH4 0x5AC14A29 GT PUSH2 0xD3 JUMPI DUP1 PUSH4 0x5AC14A29 EQ PUSH2 0x17B JUMPI DUP1 PUSH4 0x619D36EF EQ PUSH2 0x1AB JUMPI DUP1 PUSH4 0x715018A6 EQ PUSH2 0x1C9 JUMPI DUP1 PUSH4 0x76BFFF26 EQ PUSH2 0x1D3 JUMPI PUSH2 0x100 JUMP JUMPDEST DUP1 PUSH4 0x538462D EQ PUSH2 0x105 JUMPI DUP1 PUSH4 0x69C00B7 EQ PUSH2 0x123 JUMPI DUP1 PUSH4 0x342E4CBF EQ PUSH2 0x12D JUMPI DUP1 PUSH4 0x4178A052 EQ PUSH2 0x14B JUMPI JUMPDEST PUSH1 0x0 DUP1 REVERT JUMPDEST PUSH2 0x10D PUSH2 0x2D7 JUMP JUMPDEST PUSH1 0x40 MLOAD PUSH2 0x11A SWAP2 SWAP1 PUSH2 0x166E JUMP JUMPDEST PUSH1 0x40 MLOAD DUP1 SWAP2 SUB SWAP1 RETURN JUMPDEST PUSH2 0x12B PUSH2 0x2DD JUMP JUMPDEST STOP JUMPDEST PUSH2 0x135 PUSH2 0x3B5 JUMP JUMPDEST PUSH1 0x40 MLOAD PUSH2 0x142 SWAP2 SWAP1 PUSH2 0x166E JUMP JUMPDEST PUSH1 0x40 MLOAD DUP1 SWAP2 SUB SWAP1 RETURN JUMPDEST PUSH2 0x165 PUSH1 0x4 DUP1 CALLDATASIZE SUB DUP2 ADD SWAP1 PUSH2 0x160 SWAP2 SWAP1 PUSH2 0x1253 JUMP JUMPDEST PUSH2 0x3BB JUMP JUMPDEST PUSH1 0x40 MLOAD PUSH2 0x172 SWAP2 SWAP1 PUSH2 0x150E JUMP JUMPDEST PUSH1 0x40 MLOAD DUP1 SWAP2 SUB SWAP1 RETURN JUMPDEST PUSH2 0x195 PUSH1 0x4 DUP1 CALLDATASIZE SUB DUP2 ADD SWAP1 PUSH2 0x190 SWAP2 SWAP1 PUSH2 0x11E6 JUMP JUMPDEST PUSH2 0x50B JUMP JUMPDEST PUSH1 0x40 MLOAD PUSH2 0x1A2 SWAP2 SWAP1 PUSH2 0x166E JUMP JUMPDEST PUSH1 0x40 MLOAD DUP1 SWAP2 SUB SWAP1 RETURN JUMPDEST PUSH2 0x1B3 PUSH2 0x566 JUMP JUMPDEST PUSH1 0x40 MLOAD PUSH2 0x1C0 SWAP2 SWAP1 PUSH2 0x166E JUMP JUMPDEST PUSH1 0x40 MLOAD DUP1 SWAP2 SUB SWAP1 RETURN JUMPDEST PUSH2 0x1D1 PUSH2 0x578 JUMP JUMPDEST STOP JUMPDEST PUSH2 0x1ED PUSH1 0x4 DUP1 CALLDATASIZE SUB DUP2 ADD SWAP1 PUSH2 0x1E8 SWAP2 SWAP1 PUSH2 0x12A7 JUMP JUMPDEST PUSH2 0x600 JUMP JUMPDEST STOP JUMPDEST PUSH2 0x1F7 PUSH2 0x686 JUMP JUMPDEST PUSH1 0x40 MLOAD PUSH2 0x204 SWAP2 SWAP1 PUSH2 0x166E JUMP JUMPDEST PUSH1 0x40 MLOAD DUP1 SWAP2 SUB SWAP1 RETURN JUMPDEST PUSH2 0x215 PUSH2 0x68C JUMP JUMPDEST PUSH1 0x40 MLOAD PUSH2 0x222 SWAP2 SWAP1 PUSH2 0x166E JUMP JUMPDEST PUSH1 0x40 MLOAD DUP1 SWAP2 SUB SWAP1 RETURN JUMPDEST PUSH2 0x233 PUSH2 0x692 JUMP JUMPDEST PUSH1 0x40 MLOAD PUSH2 0x240 SWAP2 SWAP1 PUSH2 0x14F3 JUMP JUMPDEST PUSH1 0x40 MLOAD DUP1 SWAP2 SUB SWAP1 RETURN JUMPDEST PUSH2 0x251 PUSH2 0x6BB JUMP JUMPDEST PUSH1 0x40 MLOAD PUSH2 0x25E SWAP2 SWAP1 PUSH2 0x166E JUMP JUMPDEST PUSH1 0x40 MLOAD DUP1 SWAP2 SUB SWAP1 RETURN JUMPDEST PUSH2 0x281 PUSH1 0x4 DUP1 CALLDATASIZE SUB DUP2 ADD SWAP1 PUSH2 0x27C SWAP2 SWAP1 PUSH2 0x11E6 JUMP JUMPDEST PUSH2 0x6C1 JUMP JUMPDEST STOP JUMPDEST PUSH2 0x29D PUSH1 0x4 DUP1 CALLDATASIZE SUB DUP2 ADD SWAP1 PUSH2 0x298 SWAP2 SWAP1 PUSH2 0x12A7 JUMP JUMPDEST PUSH2 0x781 JUMP JUMPDEST STOP JUMPDEST PUSH2 0x2B9 PUSH1 0x4 DUP1 CALLDATASIZE SUB DUP2 ADD SWAP1 PUSH2 0x2B4 SWAP2 SWAP1 PUSH2 0x1213 JUMP JUMPDEST PUSH2 0x83E JUMP JUMPDEST STOP JUMPDEST PUSH2 0x2D5 PUSH1 0x4 DUP1 CALLDATASIZE SUB DUP2 ADD SWAP1 PUSH2 0x2D0 SWAP2 SWAP1 PUSH2 0x11E6 JUMP JUMPDEST PUSH2 0xB7B JUMP JUMPDEST STOP JUMPDEST PUSH1 0x3 SLOAD DUP2 JUMP JUMPDEST PUSH1 0x0 PUSH1 0x2 SLOAD GT PUSH2 0x322 JUMPI PUSH1 0x40 MLOAD PUSH32 0x8C379A000000000000000000000000000000000000000000000000000000000 DUP2 MSTORE PUSH1 0x4 ADD PUSH2 0x319 SWAP1 PUSH2 0x15EE JUMP JUMPDEST PUSH1 0x40 MLOAD DUP1 SWAP2 SUB SWAP1 REVERT JUMPDEST PUSH1 0x3 SLOAD TIMESTAMP GT PUSH2 0x366 JUMPI PUSH1 0x40 MLOAD PUSH32 0x8C379A000000000000000000000000000000000000000000000000000000000 DUP2 MSTORE PUSH1 0x4 ADD PUSH2 0x35D SWAP1 PUSH2 0x15CE JUMP JUMPDEST PUSH1 0x40 MLOAD DUP1 SWAP2 SUB SWAP1 REVERT JUMPDEST PUSH1 0x2 SLOAD TIMESTAMP PUSH2 0x374 SWAP2 SWAP1 PUSH2 0x175E JUMP JUMPDEST PUSH1 0x3 DUP2 SWAP1 SSTORE POP PUSH32 0xD030312C5A225A12EFF0B71F7D7BD2BF855A088A13B5E150C6AEF0324E8B4D93 PUSH1 0x3 SLOAD PUSH1 0x40 MLOAD PUSH2 0x3AB SWAP2 SWAP1 PUSH2 0x166E JUMP JUMPDEST PUSH1 0x40 MLOAD DUP1 SWAP2 SUB SWAP1 LOG1 JUMP JUMPDEST PUSH1 0x5 SLOAD DUP2 JUMP JUMPDEST PUSH1 0x0 PUSH2 0x3C8 DUP5 DUP5 DUP5 PUSH2 0xC73 JUMP JUMPDEST SWAP1 POP PUSH1 0x0 PUSH1 0x2 DUP2 GT ISZERO PUSH2 0x3DE JUMPI PUSH2 0x3DD PUSH2 0x1CE9 JUMP JUMPDEST JUMPDEST PUSH1 0x4 PUSH1 0x0 DUP4 DUP2 MSTORE PUSH1 0x20 ADD SWAP1 DUP2 MSTORE PUSH1 0x20 ADD PUSH1 0x0 KECCAK256 PUSH1 0x0 ADD PUSH1 0x0 SWAP1 SLOAD SWAP1 PUSH2 0x100 EXP SWAP1 DIV PUSH1 0xFF AND PUSH1 0x2 DUP2 GT ISZERO PUSH2 0x414 JUMPI PUSH2 0x413 PUSH2 0x1CE9 JUMP JUMPDEST JUMPDEST EQ PUSH2 0x454 JUMPI PUSH1 0x40 MLOAD PUSH32 0x8C379A000000000000000000000000000000000000000000000000000000000 DUP2 MSTORE PUSH1 0x4 ADD PUSH2 0x44B SWAP1 PUSH2 0x160E JUMP JUMPDEST PUSH1 0x40 MLOAD DUP1 SWAP2 SUB SWAP1 REVERT JUMPDEST PUSH1 0x1 PUSH1 0x4 PUSH1 0x0 DUP4 DUP2 MSTORE PUSH1 0x20 ADD SWAP1 DUP2 MSTORE PUSH1 0x20 ADD PUSH1 0x0 KECCAK256 PUSH1 0x0 ADD PUSH1 0x0 PUSH2 0x100 EXP DUP2 SLOAD DUP2 PUSH1 0xFF MUL NOT AND SWAP1 DUP4 PUSH1 0x2 DUP2 GT ISZERO PUSH2 0x48E JUMPI PUSH2 0x48D PUSH2 0x1CE9 JUMP JUMPDEST JUMPDEST MUL OR SWAP1 SSTORE POP DUP4 PUSH1 0x20 ADD MLOAD PUSH20 0xFFFFFFFFFFFFFFFFFFFFFFFFFFFFFFFFFFFFFFFF AND DUP5 PUSH1 0x0 ADD MLOAD PUSH20 0xFFFFFFFFFFFFFFFFFFFFFFFFFFFFFFFFFFFFFFFF AND PUSH32 0x65103BCA97AC567BBE5CB724E9D9C70FDE94F815AEA8F3E0D1A60C5255FA36A3 DUP7 PUSH1 0x40 ADD MLOAD PUSH1 0x40 MLOAD PUSH2 0x4FC SWAP2 SWAP1 PUSH2 0x166E JUMP JUMPDEST PUSH1 0x40 MLOAD DUP1 SWAP2 SUB SWAP1 LOG3 SWAP4 SWAP3 POP POP POP JUMP JUMPDEST PUSH1 0x0 PUSH1 0x6 PUSH1 0x0 DUP4 PUSH20 0xFFFFFFFFFFFFFFFFFFFFFFFFFFFFFFFFFFFFFFFF AND PUSH20 0xFFFFFFFFFFFFFFFFFFFFFFFFFFFFFFFFFFFFFFFF AND DUP2 MSTORE PUSH1 0x20 ADD SWAP1 DUP2 MSTORE PUSH1 0x20 ADD PUSH1 0x0 KECCAK256 PUSH1 0x0 ADD SLOAD SWAP1 POP PUSH1 0x0 DUP2 EQ ISZERO PUSH2 0x561 JUMPI PUSH2 0x5DC SWAP1 POP JUMPDEST SWAP2 SWAP1 POP JUMP JUMPDEST PUSH1 0x2 PUSH2 0x2710 PUSH2 0x575 SWAP2 SWAP1 PUSH2 0x181E JUMP JUMPDEST DUP2 JUMP JUMPDEST PUSH2 0x580 PUSH2 0xCD2 JUMP JUMPDEST PUSH20 0xFFFFFFFFFFFFFFFFFFFFFFFFFFFFFFFFFFFFFFFF AND PUSH2 0x59E PUSH2 0x692 JUMP JUMPDEST PUSH20 0xFFFFFFFFFFFFFFFFFFFFFFFFFFFFFFFFFFFFFFFF AND EQ PUSH2 0x5F4 JUMPI PUSH1 0x40 MLOAD PUSH32 0x8C379A000000000000000000000000000000000000000000000000000000000 DUP2 MSTORE PUSH1 0x4 ADD PUSH2 0x5EB SWAP1 PUSH2 0x162E JUMP JUMPDEST PUSH1 0x40 MLOAD DUP1 SWAP2 SUB SWAP1 REVERT JUMPDEST PUSH2 0x5FE PUSH1 0x0 PUSH2 0xCDA JUMP JUMPDEST JUMP JUMPDEST PUSH2 0x608 PUSH2 0xCD2 JUMP JUMPDEST PUSH20 0xFFFFFFFFFFFFFFFFFFFFFFFFFFFFFFFFFFFFFFFF AND PUSH2 0x626 PUSH2 0x692 JUMP JUMPDEST PUSH20 0xFFFFFFFFFFFFFFFFFFFFFFFFFFFFFFFFFFFFFFFF AND EQ PUSH2 0x67C JUMPI PUSH1 0x40 MLOAD PUSH32 0x8C379A000000000000000000000000000000000000000000000000000000000 DUP2 MSTORE PUSH1 0x4 ADD PUSH2 0x673 SWAP1 PUSH2 0x162E JUMP JUMPDEST PUSH1 0x40 MLOAD DUP1 SWAP2 SUB SWAP1 REVERT JUMPDEST DUP1 PUSH1 0x2 DUP2 SWAP1 SSTORE POP POP JUMP JUMPDEST PUSH2 0x2710 DUP2 JUMP JUMPDEST PUSH1 0x2 SLOAD DUP2 JUMP JUMPDEST PUSH1 0x0 DUP1 PUSH1 0x0 SWAP1 SLOAD SWAP1 PUSH2 0x100 EXP SWAP1 DIV PUSH20 0xFFFFFFFFFFFFFFFFFFFFFFFFFFFFFFFFFFFFFFFF AND SWAP1 POP SWAP1 JUMP JUMPDEST PUSH2 0x2710 DUP2 JUMP JUMPDEST PUSH2 0x6C9 PUSH2 0xCD2 JUMP JUMPDEST PUSH20 0xFFFFFFFFFFFFFFFFFFFFFFFFFFFFFFFFFFFFFFFF AND PUSH2 0x6E7 PUSH2 0x692 JUMP JUMPDEST PUSH20 0xFFFFFFFFFFFFFFFFFFFFFFFFFFFFFFFFFFFFFFFF AND EQ PUSH2 0x73D JUMPI PUSH1 0x40 MLOAD PUSH32 0x8C379A000000000000000000000000000000000000000000000000000000000 DUP2 MSTORE PUSH1 0x4 ADD PUSH2 0x734 SWAP1 PUSH2 0x162E JUMP JUMPDEST PUSH1 0x40 MLOAD DUP1 SWAP2 SUB SWAP1 REVERT JUMPDEST DUP1 PUSH1 0x1 PUSH1 0x0 PUSH2 0x100 EXP DUP2 SLOAD DUP2 PUSH20 0xFFFFFFFFFFFFFFFFFFFFFFFFFFFFFFFFFFFFFFFF MUL NOT AND SWAP1 DUP4 PUSH20 0xFFFFFFFFFFFFFFFFFFFFFFFFFFFFFFFFFFFFFFFF AND MUL OR SWAP1 SSTORE POP POP JUMP JUMPDEST PUSH2 0x789 PUSH2 0xCD2 JUMP JUMPDEST PUSH20 0xFFFFFFFFFFFFFFFFFFFFFFFFFFFFFFFFFFFFFFFF AND PUSH2 0x7A7 PUSH2 0x692 JUMP JUMPDEST PUSH20 0xFFFFFFFFFFFFFFFFFFFFFFFFFFFFFFFFFFFFFFFF AND EQ PUSH2 0x7FD JUMPI PUSH1 0x40 MLOAD PUSH32 0x8C379A000000000000000000000000000000000000000000000000000000000 DUP2 MSTORE PUSH1 0x4 ADD PUSH2 0x7F4 SWAP1 PUSH2 0x162E JUMP JUMPDEST PUSH1 0x40 MLOAD DUP1 SWAP2 SUB SWAP1 REVERT JUMPDEST DUP1 PUSH1 0x5 DUP2 SWAP1 SSTORE POP PUSH32 0xA5435F366976D3244199255126C12B4E3EB72499D5C48ECE60E23484233EBE49 DUP2 PUSH1 0x40 MLOAD PUSH2 0x833 SWAP2 SWAP1 PUSH2 0x166E JUMP JUMPDEST PUSH1 0x40 MLOAD DUP1 SWAP2 SUB SWAP1 LOG1 POP JUMP JUMPDEST PUSH1 0x1 PUSH1 0x0 SWAP1 SLOAD SWAP1 PUSH2 0x100 EXP SWAP1 DIV PUSH20 0xFFFFFFFFFFFFFFFFFFFFFFFFFFFFFFFFFFFFFFFF AND PUSH20 0xFFFFFFFFFFFFFFFFFFFFFFFFFFFFFFFFFFFFFFFF AND PUSH2 0x87F PUSH2 0xCD2 JUMP JUMPDEST PUSH20 0xFFFFFFFFFFFFFFFFFFFFFFFFFFFFFFFFFFFFFFFF AND EQ PUSH2 0x8D5 JUMPI PUSH1 0x40 MLOAD PUSH32 0x8C379A000000000000000000000000000000000000000000000000000000000 DUP2 MSTORE PUSH1 0x4 ADD PUSH2 0x8CC SWAP1 PUSH2 0x164E JUMP JUMPDEST PUSH1 0x40 MLOAD DUP1 SWAP2 SUB SWAP1 REVERT JUMPDEST PUSH1 0x0 PUSH2 0x8E0 DUP4 PUSH2 0xD9E JUMP JUMPDEST SWAP1 POP PUSH1 0x1 PUSH1 0x2 DUP2 GT ISZERO PUSH2 0x8F6 JUMPI PUSH2 0x8F5 PUSH2 0x1CE9 JUMP JUMPDEST JUMPDEST PUSH1 0x4 PUSH1 0x0 DUP4 DUP2 MSTORE PUSH1 0x20 ADD SWAP1 DUP2 MSTORE PUSH1 0x20 ADD PUSH1 0x0 KECCAK256 PUSH1 0x0 ADD PUSH1 0x0 SWAP1 SLOAD SWAP1 PUSH2 0x100 EXP SWAP1 DIV PUSH1 0xFF AND PUSH1 0x2 DUP2 GT ISZERO PUSH2 0x92C JUMPI PUSH2 0x92B PUSH2 0x1CE9 JUMP JUMPDEST JUMPDEST EQ PUSH2 0x96C JUMPI PUSH1 0x40 MLOAD PUSH32 0x8C379A000000000000000000000000000000000000000000000000000000000 DUP2 MSTORE PUSH1 0x4 ADD PUSH2 0x963 SWAP1 PUSH2 0x158E JUMP JUMPDEST PUSH1 0x40 MLOAD DUP1 SWAP2 SUB SWAP1 REVERT JUMPDEST PUSH1 0x0 PUSH2 0x97B DUP5 PUSH1 0x0 ADD MLOAD PUSH2 0x50B JUMP JUMPDEST SWAP1 POP PUSH1 0x0 PUSH2 0x98C DUP6 PUSH1 0x20 ADD MLOAD PUSH2 0x50B JUMP JUMPDEST SWAP1 POP PUSH1 0x0 DUP1 PUSH1 0x0 PUSH1 0x1 PUSH1 0x2 DUP2 GT ISZERO PUSH2 0x9A7 JUMPI PUSH2 0x9A6 PUSH2 0x1CE9 JUMP JUMPDEST JUMPDEST DUP8 PUSH1 0x2 DUP2 GT ISZERO PUSH2 0x9BA JUMPI PUSH2 0x9B9 PUSH2 0x1CE9 JUMP JUMPDEST JUMPDEST EQ ISZERO PUSH2 0x9D1 JUMPI PUSH2 0x2710 SWAP3 POP DUP8 PUSH1 0x0 ADD MLOAD SWAP1 POP PUSH2 0xA32 JUMP JUMPDEST PUSH1 0x2 DUP1 DUP2 GT ISZERO PUSH2 0x9E4 JUMPI PUSH2 0x9E3 PUSH2 0x1CE9 JUMP JUMPDEST JUMPDEST DUP8 PUSH1 0x2 DUP2 GT ISZERO PUSH2 0x9F7 JUMPI PUSH2 0x9F6 PUSH2 0x1CE9 JUMP JUMPDEST JUMPDEST EQ ISZERO PUSH2 0xA0E JUMPI PUSH2 0x2710 SWAP2 POP DUP8 PUSH1 0x20 ADD MLOAD SWAP1 POP PUSH2 0xA31 JUMP JUMPDEST PUSH1 0x2 PUSH2 0x2710 PUSH2 0xA1D SWAP2 SWAP1 PUSH2 0x181E JUMP JUMPDEST SWAP3 POP PUSH1 0x2 PUSH2 0x2710 PUSH2 0xA2E SWAP2 SWAP1 PUSH2 0x181E JUMP JUMPDEST SWAP2 POP JUMPDEST JUMPDEST PUSH1 0x0 PUSH2 0x190 DUP7 PUSH2 0xA42 SWAP2 SWAP1 PUSH2 0x181E JUMP JUMPDEST PUSH1 0xA PUSH2 0xA4E SWAP2 SWAP1 PUSH2 0x18A2 JUMP JUMPDEST SWAP1 POP PUSH1 0x0 PUSH2 0x190 DUP7 PUSH2 0xA60 SWAP2 SWAP1 PUSH2 0x181E JUMP JUMPDEST PUSH1 0xA PUSH2 0xA6C SWAP2 SWAP1 PUSH2 0x18A2 JUMP JUMPDEST SWAP1 POP PUSH1 0x2 PUSH1 0x4 PUSH1 0x0 DUP11 DUP2 MSTORE PUSH1 0x20 ADD SWAP1 DUP2 MSTORE PUSH1 0x20 ADD PUSH1 0x0 KECCAK256 PUSH1 0x0 ADD PUSH1 0x0 PUSH2 0x100 EXP DUP2 SLOAD DUP2 PUSH1 0xFF MUL NOT AND SWAP1 DUP4 PUSH1 0x2 DUP2 GT ISZERO PUSH2 0xAA8 JUMPI PUSH2 0xAA7 PUSH2 0x1CE9 JUMP JUMPDEST JUMPDEST MUL OR SWAP1 SSTORE POP DUP3 PUSH1 0x4 PUSH1 0x0 DUP11 DUP2 MSTORE PUSH1 0x20 ADD SWAP1 DUP2 MSTORE PUSH1 0x20 ADD PUSH1 0x0 KECCAK256 PUSH1 0x0 ADD PUSH1 0x1 PUSH2 0x100 EXP DUP2 SLOAD DUP2 PUSH20 0xFFFFFFFFFFFFFFFFFFFFFFFFFFFFFFFFFFFFFFFF MUL NOT AND SWAP1 DUP4 PUSH20 0xFFFFFFFFFFFFFFFFFFFFFFFFFFFFFFFFFFFFFFFF AND MUL OR SWAP1 SSTORE POP PUSH1 0x0 PUSH2 0x2710 DUP3 DUP5 PUSH2 0xB13 SWAP2 SWAP1 PUSH2 0x175E JUMP JUMPDEST DUP5 PUSH2 0xB1E SWAP2 SWAP1 PUSH2 0x181E JUMP JUMPDEST PUSH2 0xB28 SWAP2 SWAP1 PUSH2 0x1AD7 JUMP JUMPDEST SWAP1 POP PUSH2 0xB39 DUP12 PUSH1 0x0 ADD MLOAD DUP3 DUP9 PUSH2 0xDB8 JUMP JUMPDEST PUSH2 0x2710 DUP3 DUP5 PUSH2 0xB48 SWAP2 SWAP1 PUSH2 0x175E JUMP JUMPDEST DUP4 PUSH2 0xB53 SWAP2 SWAP1 PUSH2 0x181E JUMP JUMPDEST PUSH2 0xB5D SWAP2 SWAP1 PUSH2 0x1AD7 JUMP JUMPDEST SWAP1 POP PUSH2 0xB6E DUP12 PUSH1 0x20 ADD MLOAD DUP3 DUP8 PUSH2 0xDB8 JUMP JUMPDEST POP POP POP POP POP POP POP POP POP POP POP JUMP JUMPDEST PUSH2 0xB83 PUSH2 0xCD2 JUMP JUMPDEST PUSH20 0xFFFFFFFFFFFFFFFFFFFFFFFFFFFFFFFFFFFFFFFF AND PUSH2 0xBA1 PUSH2 0x692 JUMP JUMPDEST PUSH20 0xFFFFFFFFFFFFFFFFFFFFFFFFFFFFFFFFFFFFFFFF AND EQ PUSH2 0xBF7 JUMPI PUSH1 0x40 MLOAD PUSH32 0x8C379A000000000000000000000000000000000000000000000000000000000 DUP2 MSTORE PUSH1 0x4 ADD PUSH2 0xBEE SWAP1 PUSH2 0x162E JUMP JUMPDEST PUSH1 0x40 MLOAD DUP1 SWAP2 SUB SWAP1 REVERT JUMPDEST PUSH1 0x0 PUSH20 0xFFFFFFFFFFFFFFFFFFFFFFFFFFFFFFFFFFFFFFFF AND DUP2 PUSH20 0xFFFFFFFFFFFFFFFFFFFFFFFFFFFFFFFFFFFFFFFF AND EQ ISZERO PUSH2 0xC67 JUMPI PUSH1 0x40 MLOAD PUSH32 0x8C379A000000000000000000000000000000000000000000000000000000000 DUP2 MSTORE PUSH1 0x4 ADD PUSH2 0xC5E SWAP1 PUSH2 0x15AE JUMP JUMPDEST PUSH1 0x40 MLOAD DUP1 SWAP2 SUB SWAP1 REVERT JUMPDEST PUSH2 0xC70 DUP2 PUSH2 0xCDA JUMP JUMPDEST POP JUMP JUMPDEST PUSH1 0x0 PUSH2 0xC8C DUP5 PUSH2 0xC82 DUP7 PUSH2 0xD9E JUMP JUMPDEST SWAP3 POP DUP3 DUP6 DUP6 PUSH2 0xDF2 JUMP JUMPDEST PUSH2 0xCCB JUMPI PUSH1 0x40 MLOAD PUSH32 0x8C379A000000000000000000000000000000000000000000000000000000000 DUP2 MSTORE PUSH1 0x4 ADD PUSH2 0xCC2 SWAP1 PUSH2 0x156E JUMP JUMPDEST PUSH1 0x40 MLOAD DUP1 SWAP2 SUB SWAP1 REVERT JUMPDEST SWAP4 SWAP3 POP POP POP JUMP JUMPDEST PUSH1 0x0 CALLER SWAP1 POP SWAP1 JUMP JUMPDEST PUSH1 0x0 DUP1 PUSH1 0x0 SWAP1 SLOAD SWAP1 PUSH2 0x100 EXP SWAP1 DIV PUSH20 0xFFFFFFFFFFFFFFFFFFFFFFFFFFFFFFFFFFFFFFFF AND SWAP1 POP DUP2 PUSH1 0x0 DUP1 PUSH2 0x100 EXP DUP2 SLOAD DUP2 PUSH20 0xFFFFFFFFFFFFFFFFFFFFFFFFFFFFFFFFFFFFFFFF MUL NOT AND SWAP1 DUP4 PUSH20 0xFFFFFFFFFFFFFFFFFFFFFFFFFFFFFFFFFFFFFFFF AND MUL OR SWAP1 SSTORE POP DUP2 PUSH20 0xFFFFFFFFFFFFFFFFFFFFFFFFFFFFFFFFFFFFFFFF AND DUP2 PUSH20 0xFFFFFFFFFFFFFFFFFFFFFFFFFFFFFFFFFFFFFFFF AND PUSH32 0x8BE0079C531659141344CD1FD0A4F28419497F9722A3DAAFE3B4186F6B6457E0 PUSH1 0x40 MLOAD PUSH1 0x40 MLOAD DUP1 SWAP2 SUB SWAP1 LOG3 POP POP JUMP JUMPDEST PUSH1 0x0 PUSH2 0xDB1 PUSH2 0xDAC DUP4 PUSH2 0xF20 JUMP JUMPDEST PUSH2 0xF60 JUMP JUMPDEST SWAP1 POP SWAP2 SWAP1 POP JUMP JUMPDEST PUSH1 0x0 PUSH2 0x2710 DUP4 DUP4 PUSH2 0xDC9 SWAP2 SWAP1 PUSH2 0x1B31 JUMP JUMPDEST PUSH1 0x5 SLOAD PUSH2 0xDD6 SWAP2 SWAP1 PUSH2 0x19C0 JUMP JUMPDEST PUSH2 0xDE0 SWAP2 SWAP1 PUSH2 0x17B4 JUMP JUMPDEST SWAP1 POP PUSH2 0xDEC DUP5 DUP3 PUSH2 0xF90 JUMP JUMPDEST POP POP POP POP JUMP JUMPDEST PUSH1 0x0 DUP5 PUSH1 0x0 ADD MLOAD PUSH20 0xFFFFFFFFFFFFFFFFFFFFFFFFFFFFFFFFFFFFFFFF AND PUSH1 0x1 DUP6 DUP6 PUSH1 0x0 ADD MLOAD DUP7 PUSH1 0x20 ADD MLOAD DUP8 PUSH1 0x40 ADD MLOAD PUSH1 0x40 MLOAD PUSH1 0x0 DUP2 MSTORE PUSH1 0x20 ADD PUSH1 0x40 MSTORE PUSH1 0x40 MLOAD PUSH2 0xE3E SWAP5 SWAP4 SWAP3 SWAP2 SWAP1 PUSH2 0x1529 JUMP JUMPDEST PUSH1 0x20 PUSH1 0x40 MLOAD PUSH1 0x20 DUP2 SUB SWAP1 DUP1 DUP5 SUB SWAP1 DUP6 GAS STATICCALL ISZERO DUP1 ISZERO PUSH2 0xE60 JUMPI RETURNDATASIZE PUSH1 0x0 DUP1 RETURNDATACOPY RETURNDATASIZE PUSH1 0x0 REVERT JUMPDEST POP POP POP PUSH1 0x20 PUSH1 0x40 MLOAD SUB MLOAD PUSH20 0xFFFFFFFFFFFFFFFFFFFFFFFFFFFFFFFFFFFFFFFF AND EQ DUP1 ISZERO PUSH2 0xF16 JUMPI POP DUP5 PUSH1 0x20 ADD MLOAD PUSH20 0xFFFFFFFFFFFFFFFFFFFFFFFFFFFFFFFFFFFFFFFF AND PUSH1 0x1 DUP6 DUP5 PUSH1 0x0 ADD MLOAD DUP6 PUSH1 0x20 ADD MLOAD DUP7 PUSH1 0x40 ADD MLOAD PUSH1 0x40 MLOAD PUSH1 0x0 DUP2 MSTORE PUSH1 0x20 ADD PUSH1 0x40 MSTORE PUSH1 0x40 MLOAD PUSH2 0xED2 SWAP5 SWAP4 SWAP3 SWAP2 SWAP1 PUSH2 0x1529 JUMP JUMPDEST PUSH1 0x20 PUSH1 0x40 MLOAD PUSH1 0x20 DUP2 SUB SWAP1 DUP1 DUP5 SUB SWAP1 DUP6 GAS STATICCALL ISZERO DUP1 ISZERO PUSH2 0xEF4 JUMPI RETURNDATASIZE PUSH1 0x0 DUP1 RETURNDATACOPY RETURNDATASIZE PUSH1 0x0 REVERT JUMPDEST POP POP POP PUSH1 0x20 PUSH1 0x40 MLOAD SUB MLOAD PUSH20 0xFFFFFFFFFFFFFFFFFFFFFFFFFFFFFFFFFFFFFFFF AND EQ JUMPDEST SWAP1 POP SWAP5 SWAP4 POP POP POP POP JUMP JUMPDEST PUSH1 0x0 DUP2 PUSH1 0x0 ADD MLOAD DUP3 PUSH1 0x20 ADD MLOAD DUP4 PUSH1 0x40 ADD MLOAD PUSH1 0x40 MLOAD PUSH1 0x20 ADD PUSH2 0xF43 SWAP4 SWAP3 SWAP2 SWAP1 PUSH2 0x1490 JUMP JUMPDEST PUSH1 0x40 MLOAD PUSH1 0x20 DUP2 DUP4 SUB SUB DUP2 MSTORE SWAP1 PUSH1 0x40 MSTORE DUP1 MLOAD SWAP1 PUSH1 0x20 ADD KECCAK256 SWAP1 POP SWAP2 SWAP1 POP JUMP JUMPDEST PUSH1 0x0 DUP2 PUSH1 0x40 MLOAD PUSH1 0x20 ADD PUSH2 0xF73 SWAP2 SWAP1 PUSH2 0x14CD JUMP JUMPDEST PUSH1 0x40 MLOAD PUSH1 0x20 DUP2 DUP4 SUB SUB DUP2 MSTORE SWAP1 PUSH1 0x40 MSTORE DUP1 MLOAD SWAP1 PUSH1 0x20 ADD KECCAK256 SWAP1 POP SWAP2 SWAP1 POP JUMP JUMPDEST PUSH1 0x0 PUSH1 0x6 PUSH1 0x0 DUP5 PUSH20 0xFFFFFFFFFFFFFFFFFFFFFFFFFFFFFFFFFFFFFFFF AND PUSH20 0xFFFFFFFFFFFFFFFFFFFFFFFFFFFFFFFFFFFFFFFF AND DUP2 MSTORE PUSH1 0x20 ADD SWAP1 DUP2 MSTORE PUSH1 0x20 ADD PUSH1 0x0 KECCAK256 SWAP1 POP PUSH1 0x0 DUP3 SWAP1 POP PUSH1 0x0 PUSH1 0x2 SLOAD GT ISZERO PUSH2 0x103B JUMPI TIMESTAMP PUSH1 0x2 SLOAD DUP4 PUSH1 0x1 ADD SLOAD PUSH2 0xFF6 SWAP2 SWAP1 PUSH2 0x175E JUMP JUMPDEST GT ISZERO PUSH2 0x101E JUMPI DUP1 DUP3 PUSH1 0x2 ADD PUSH1 0x0 DUP3 DUP3 SLOAD PUSH2 0x1010 SWAP2 SWAP1 PUSH2 0x16CA JUMP JUMPDEST SWAP3 POP POP DUP2 SWAP1 SSTORE POP POP POP PUSH2 0x10B1 JUMP JUMPDEST DUP2 PUSH1 0x2 ADD SLOAD DUP2 PUSH2 0x102E SWAP2 SWAP1 PUSH2 0x16CA JUMP JUMPDEST SWAP1 POP PUSH1 0x0 DUP3 PUSH1 0x2 ADD DUP2 SWAP1 SSTORE POP JUMPDEST DUP1 DUP3 PUSH1 0x0 ADD SLOAD PUSH2 0x104B SWAP2 SWAP1 PUSH2 0x16CA JUMP JUMPDEST DUP3 PUSH1 0x0 ADD DUP2 SWAP1 SSTORE POP TIMESTAMP DUP3 PUSH1 0x1 ADD DUP2 SWAP1 SSTORE POP DUP4 PUSH20 0xFFFFFFFFFFFFFFFFFFFFFFFFFFFFFFFFFFFFFFFF AND PUSH32 0xD838C7AF1F5251FE2F34428DA1866032B49352157A98744E031D35BDA4125A61 DUP4 PUSH1 0x0 ADD SLOAD PUSH1 0x40 MLOAD PUSH2 0x10A6 SWAP2 SWAP1 PUSH2 0x166E JUMP JUMPDEST PUSH1 0x40 MLOAD DUP1 SWAP2 SUB SWAP1 LOG2 POP POP JUMPDEST POP POP JUMP JUMPDEST PUSH1 0x0 DUP2 CALLDATALOAD SWAP1 POP PUSH2 0x10C4 DUP2 PUSH2 0x1F13 JUMP JUMPDEST SWAP3 SWAP2 POP POP JUMP JUMPDEST PUSH1 0x0 DUP2 CALLDATALOAD SWAP1 POP PUSH2 0x10D9 DUP2 PUSH2 0x1F2A JUMP JUMPDEST SWAP3 SWAP2 POP POP JUMP JUMPDEST PUSH1 0x0 DUP2 CALLDATALOAD SWAP1 POP PUSH2 0x10EE DUP2 PUSH2 0x1F41 JUMP JUMPDEST SWAP3 SWAP2 POP POP JUMP JUMPDEST PUSH1 0x0 PUSH1 0x60 DUP3 DUP5 SUB SLT ISZERO PUSH2 0x110A JUMPI PUSH2 0x1109 PUSH2 0x1D47 JUMP JUMPDEST JUMPDEST PUSH2 0x1114 PUSH1 0x60 PUSH2 0x1689 JUMP JUMPDEST SWAP1 POP PUSH1 0x0 PUSH2 0x1124 DUP5 DUP3 DUP6 ADD PUSH2 0x10B5 JUMP JUMPDEST PUSH1 0x0 DUP4 ADD MSTORE POP PUSH1 0x20 PUSH2 0x1138 DUP5 DUP3 DUP6 ADD PUSH2 0x10B5 JUMP JUMPDEST PUSH1 0x20 DUP4 ADD MSTORE POP PUSH1 0x40 PUSH2 0x114C DUP5 DUP3 DUP6 ADD PUSH2 0x11BC JUMP JUMPDEST PUSH1 0x40 DUP4 ADD MSTORE POP SWAP3 SWAP2 POP POP JUMP JUMPDEST PUSH1 0x0 PUSH1 0x60 DUP3 DUP5 SUB SLT ISZERO PUSH2 0x116E JUMPI PUSH2 0x116D PUSH2 0x1D47 JUMP JUMPDEST JUMPDEST PUSH2 0x1178 PUSH1 0x60 PUSH2 0x1689 JUMP JUMPDEST SWAP1 POP PUSH1 0x0 PUSH2 0x1188 DUP5 DUP3 DUP6 ADD PUSH2 0x11D1 JUMP JUMPDEST PUSH1 0x0 DUP4 ADD MSTORE POP PUSH1 0x20 PUSH2 0x119C DUP5 DUP3 DUP6 ADD PUSH2 0x10CA JUMP JUMPDEST PUSH1 0x20 DUP4 ADD MSTORE POP PUSH1 0x40 PUSH2 0x11B0 DUP5 DUP3 DUP6 ADD PUSH2 0x10CA JUMP JUMPDEST PUSH1 0x40 DUP4 ADD MSTORE POP SWAP3 SWAP2 POP POP JUMP JUMPDEST PUSH1 0x0 DUP2 CALLDATALOAD SWAP1 POP PUSH2 0x11CB DUP2 PUSH2 0x1F51 JUMP JUMPDEST SWAP3 SWAP2 POP POP JUMP JUMPDEST PUSH1 0x0 DUP2 CALLDATALOAD SWAP1 POP PUSH2 0x11E0 DUP2 PUSH2 0x1F68 JUMP JUMPDEST SWAP3 SWAP2 POP POP JUMP JUMPDEST PUSH1 0x0 PUSH1 0x20 DUP3 DUP5 SUB SLT ISZERO PUSH2 0x11FC JUMPI PUSH2 0x11FB PUSH2 0x1D4C JUMP JUMPDEST JUMPDEST PUSH1 0x0 PUSH2 0x120A DUP5 DUP3 DUP6 ADD PUSH2 0x10B5 JUMP JUMPDEST SWAP2 POP POP SWAP3 SWAP2 POP POP JUMP JUMPDEST PUSH1 0x0 DUP1 PUSH1 0x80 DUP4 DUP6 SUB SLT ISZERO PUSH2 0x122A JUMPI PUSH2 0x1229 PUSH2 0x1D4C JUMP JUMPDEST JUMPDEST PUSH1 0x0 PUSH2 0x1238 DUP6 DUP3 DUP7 ADD PUSH2 0x10F4 JUMP JUMPDEST SWAP3 POP POP PUSH1 0x60 PUSH2 0x1249 DUP6 DUP3 DUP7 ADD PUSH2 0x10DF JUMP JUMPDEST SWAP2 POP POP SWAP3 POP SWAP3 SWAP1 POP JUMP JUMPDEST PUSH1 0x0 DUP1 PUSH1 0x0 PUSH2 0x120 DUP5 DUP7 SUB SLT ISZERO PUSH2 0x126D JUMPI PUSH2 0x126C PUSH2 0x1D4C JUMP JUMPDEST JUMPDEST PUSH1 0x0 PUSH2 0x127B DUP7 DUP3 DUP8 ADD PUSH2 0x10F4 JUMP JUMPDEST SWAP4 POP POP PUSH1 0x60 PUSH2 0x128C DUP7 DUP3 DUP8 ADD PUSH2 0x1158 JUMP JUMPDEST SWAP3 POP POP PUSH1 0xC0 PUSH2 0x129D DUP7 DUP3 DUP8 ADD PUSH2 0x1158 JUMP JUMPDEST SWAP2 POP POP SWAP3 POP SWAP3 POP SWAP3 JUMP JUMPDEST PUSH1 0x0 PUSH1 0x20 DUP3 DUP5 SUB SLT ISZERO PUSH2 0x12BD JUMPI PUSH2 0x12BC PUSH2 0x1D4C JUMP JUMPDEST JUMPDEST PUSH1 0x0 PUSH2 0x12CB DUP5 DUP3 DUP6 ADD PUSH2 0x11BC JUMP JUMPDEST SWAP2 POP POP SWAP3 SWAP2 POP POP JUMP JUMPDEST PUSH2 0x12DD DUP2 PUSH2 0x1BC5 JUMP JUMPDEST DUP3 MSTORE POP POP JUMP JUMPDEST PUSH2 0x12F4 PUSH2 0x12EF DUP3 PUSH2 0x1BC5 JUMP JUMPDEST PUSH2 0x1C53 JUMP JUMPDEST DUP3 MSTORE POP POP JUMP JUMPDEST PUSH2 0x1303 DUP2 PUSH2 0x1BD7 JUMP JUMPDEST DUP3 MSTORE POP POP JUMP JUMPDEST PUSH2 0x131A PUSH2 0x1315 DUP3 PUSH2 0x1BD7 JUMP JUMPDEST PUSH2 0x1C65 JUMP JUMPDEST DUP3 MSTORE POP POP JUMP JUMPDEST PUSH1 0x0 PUSH2 0x132D PUSH1 0xD DUP4 PUSH2 0x16AE JUMP JUMPDEST SWAP2 POP PUSH2 0x1338 DUP3 PUSH2 0x1D7C JUMP JUMPDEST PUSH1 0x20 DUP3 ADD SWAP1 POP SWAP2 SWAP1 POP JUMP JUMPDEST PUSH1 0x0 PUSH2 0x1350 PUSH1 0x13 DUP4 PUSH2 0x16AE JUMP JUMPDEST SWAP2 POP PUSH2 0x135B DUP3 PUSH2 0x1DA5 JUMP JUMPDEST PUSH1 0x20 DUP3 ADD SWAP1 POP SWAP2 SWAP1 POP JUMP JUMPDEST PUSH1 0x0 PUSH2 0x1373 PUSH1 0x1C DUP4 PUSH2 0x16BF JUMP JUMPDEST SWAP2 POP PUSH2 0x137E DUP3 PUSH2 0x1DCE JUMP JUMPDEST PUSH1 0x1C DUP3 ADD SWAP1 POP SWAP2 SWAP1 POP JUMP JUMPDEST PUSH1 0x0 PUSH2 0x1396 PUSH1 0x26 DUP4 PUSH2 0x16AE JUMP JUMPDEST SWAP2 POP PUSH2 0x13A1 DUP3 PUSH2 0x1DF7 JUMP JUMPDEST PUSH1 0x40 DUP3 ADD SWAP1 POP SWAP2 SWAP1 POP JUMP JUMPDEST PUSH1 0x0 PUSH2 0x13B9 PUSH1 0x11 DUP4 PUSH2 0x16AE JUMP JUMPDEST SWAP2 POP PUSH2 0x13C4 DUP3 PUSH2 0x1E46 JUMP JUMPDEST PUSH1 0x20 DUP3 ADD SWAP1 POP SWAP2 SWAP1 POP JUMP JUMPDEST PUSH1 0x0 PUSH2 0x13DC PUSH1 0x1B DUP4 PUSH2 0x16AE JUMP JUMPDEST SWAP2 POP PUSH2 0x13E7 DUP3 PUSH2 0x1E6F JUMP JUMPDEST PUSH1 0x20 DUP3 ADD SWAP1 POP SWAP2 SWAP1 POP JUMP JUMPDEST PUSH1 0x0 PUSH2 0x13FF PUSH1 0x1C DUP4 PUSH2 0x16AE JUMP JUMPDEST SWAP2 POP PUSH2 0x140A DUP3 PUSH2 0x1E98 JUMP JUMPDEST PUSH1 0x20 DUP3 ADD SWAP1 POP SWAP2 SWAP1 POP JUMP JUMPDEST PUSH1 0x0 PUSH2 0x1422 PUSH1 0x20 DUP4 PUSH2 0x16AE JUMP JUMPDEST SWAP2 POP PUSH2 0x142D DUP3 PUSH2 0x1EC1 JUMP JUMPDEST PUSH1 0x20 DUP3 ADD SWAP1 POP SWAP2 SWAP1 POP JUMP JUMPDEST PUSH1 0x0 PUSH2 0x1445 PUSH1 0x19 DUP4 PUSH2 0x16AE JUMP JUMPDEST SWAP2 POP PUSH2 0x1450 DUP3 PUSH2 0x1EEA JUMP JUMPDEST PUSH1 0x20 DUP3 ADD SWAP1 POP SWAP2 SWAP1 POP JUMP JUMPDEST PUSH2 0x1464 DUP2 PUSH2 0x1C0B JUMP JUMPDEST DUP3 MSTORE POP POP JUMP JUMPDEST PUSH2 0x147B PUSH2 0x1476 DUP3 PUSH2 0x1C0B JUMP JUMPDEST PUSH2 0x1C81 JUMP JUMPDEST DUP3 MSTORE POP POP JUMP JUMPDEST PUSH2 0x148A DUP2 PUSH2 0x1C15 JUMP JUMPDEST DUP3 MSTORE POP POP JUMP JUMPDEST PUSH1 0x0 PUSH2 0x149C DUP3 DUP7 PUSH2 0x12E3 JUMP JUMPDEST PUSH1 0x14 DUP3 ADD SWAP2 POP PUSH2 0x14AC DUP3 DUP6 PUSH2 0x12E3 JUMP JUMPDEST PUSH1 0x14 DUP3 ADD SWAP2 POP PUSH2 0x14BC DUP3 DUP5 PUSH2 0x146A JUMP JUMPDEST PUSH1 0x20 DUP3 ADD SWAP2 POP DUP2 SWAP1 POP SWAP5 SWAP4 POP POP POP POP JUMP JUMPDEST PUSH1 0x0 PUSH2 0x14D8 DUP3 PUSH2 0x1366 JUMP JUMPDEST SWAP2 POP PUSH2 0x14E4 DUP3 DUP5 PUSH2 0x1309 JUMP JUMPDEST PUSH1 0x20 DUP3 ADD SWAP2 POP DUP2 SWAP1 POP SWAP3 SWAP2 POP POP JUMP JUMPDEST PUSH1 0x0 PUSH1 0x20 DUP3 ADD SWAP1 POP PUSH2 0x1508 PUSH1 0x0 DUP4 ADD DUP5 PUSH2 0x12D4 JUMP JUMPDEST SWAP3 SWAP2 POP POP JUMP JUMPDEST PUSH1 0x0 PUSH1 0x20 DUP3 ADD SWAP1 POP PUSH2 0x1523 PUSH1 0x0 DUP4 ADD DUP5 PUSH2 0x12FA JUMP JUMPDEST SWAP3 SWAP2 POP POP JUMP JUMPDEST PUSH1 0x0 PUSH1 0x80 DUP3 ADD SWAP1 POP PUSH2 0x153E PUSH1 0x0 DUP4 ADD DUP8 PUSH2 0x12FA JUMP JUMPDEST PUSH2 0x154B PUSH1 0x20 DUP4 ADD DUP7 PUSH2 0x1481 JUMP JUMPDEST PUSH2 0x1558 PUSH1 0x40 DUP4 ADD DUP6 PUSH2 0x12FA JUMP JUMPDEST PUSH2 0x1565 PUSH1 0x60 DUP4 ADD DUP5 PUSH2 0x12FA JUMP JUMPDEST SWAP6 SWAP5 POP POP POP POP POP JUMP JUMPDEST PUSH1 0x0 PUSH1 0x20 DUP3 ADD SWAP1 POP DUP2 DUP2 SUB PUSH1 0x0 DUP4 ADD MSTORE PUSH2 0x1587 DUP2 PUSH2 0x1320 JUMP JUMPDEST SWAP1 POP SWAP2 SWAP1 POP JUMP JUMPDEST PUSH1 0x0 PUSH1 0x20 DUP3 ADD SWAP1 POP DUP2 DUP2 SUB PUSH1 0x0 DUP4 ADD MSTORE PUSH2 0x15A7 DUP2 PUSH2 0x1343 JUMP JUMPDEST SWAP1 POP SWAP2 SWAP1 POP JUMP JUMPDEST PUSH1 0x0 PUSH1 0x20 DUP3 ADD SWAP1 POP DUP2 DUP2 SUB PUSH1 0x0 DUP4 ADD MSTORE PUSH2 0x15C7 DUP2 PUSH2 0x1389 JUMP JUMPDEST SWAP1 POP SWAP2 SWAP1 POP JUMP JUMPDEST PUSH1 0x0 PUSH1 0x20 DUP3 ADD SWAP1 POP DUP2 DUP2 SUB PUSH1 0x0 DUP4 ADD MSTORE PUSH2 0x15E7 DUP2 PUSH2 0x13AC JUMP JUMPDEST SWAP1 POP SWAP2 SWAP1 POP JUMP JUMPDEST PUSH1 0x0 PUSH1 0x20 DUP3 ADD SWAP1 POP DUP2 DUP2 SUB PUSH1 0x0 DUP4 ADD MSTORE PUSH2 0x1607 DUP2 PUSH2 0x13CF JUMP JUMPDEST SWAP1 POP SWAP2 SWAP1 POP JUMP JUMPDEST PUSH1 0x0 PUSH1 0x20 DUP3 ADD SWAP1 POP DUP2 DUP2 SUB PUSH1 0x0 DUP4 ADD MSTORE PUSH2 0x1627 DUP2 PUSH2 0x13F2 JUMP JUMPDEST SWAP1 POP SWAP2 SWAP1 POP JUMP JUMPDEST PUSH1 0x0 PUSH1 0x20 DUP3 ADD SWAP1 POP DUP2 DUP2 SUB PUSH1 0x0 DUP4 ADD MSTORE PUSH2 0x1647 DUP2 PUSH2 0x1415 JUMP JUMPDEST SWAP1 POP SWAP2 SWAP1 POP JUMP JUMPDEST PUSH1 0x0 PUSH1 0x20 DUP3 ADD SWAP1 POP DUP2 DUP2 SUB PUSH1 0x0 DUP4 ADD MSTORE PUSH2 0x1667 DUP2 PUSH2 0x1438 JUMP JUMPDEST SWAP1 POP SWAP2 SWAP1 POP JUMP JUMPDEST PUSH1 0x0 PUSH1 0x20 DUP3 ADD SWAP1 POP PUSH2 0x1683 PUSH1 0x0 DUP4 ADD DUP5 PUSH2 0x145B JUMP JUMPDEST SWAP3 SWAP2 POP POP JUMP JUMPDEST PUSH1 0x0 PUSH2 0x1693 PUSH2 0x16A4 JUMP JUMPDEST SWAP1 POP PUSH2 0x169F DUP3 DUP3 PUSH2 0x1C22 JUMP JUMPDEST SWAP2 SWAP1 POP JUMP JUMPDEST PUSH1 0x0 PUSH1 0x40 MLOAD SWAP1 POP SWAP1 JUMP JUMPDEST PUSH1 0x0 DUP3 DUP3 MSTORE PUSH1 0x20 DUP3 ADD SWAP1 POP SWAP3 SWAP2 POP POP JUMP JUMPDEST PUSH1 0x0 DUP2 SWAP1 POP SWAP3 SWAP2 POP POP JUMP JUMPDEST PUSH1 0x0 PUSH2 0x16D5 DUP3 PUSH2 0x1BE1 JUMP JUMPDEST SWAP2 POP PUSH2 0x16E0 DUP4 PUSH2 0x1BE1 JUMP JUMPDEST SWAP3 POP DUP2 PUSH32 0x7FFFFFFFFFFFFFFFFFFFFFFFFFFFFFFFFFFFFFFFFFFFFFFFFFFFFFFFFFFFFFFF SUB DUP4 SGT PUSH1 0x0 DUP4 SLT ISZERO AND ISZERO PUSH2 0x171B JUMPI PUSH2 0x171A PUSH2 0x1C8B JUMP JUMPDEST JUMPDEST DUP2 PUSH32 0x8000000000000000000000000000000000000000000000000000000000000000 SUB DUP4 SLT PUSH1 0x0 DUP4 SLT AND ISZERO PUSH2 0x1753 JUMPI PUSH2 0x1752 PUSH2 0x1C8B JUMP JUMPDEST JUMPDEST DUP3 DUP3 ADD SWAP1 POP SWAP3 SWAP2 POP POP JUMP JUMPDEST PUSH1 0x0 PUSH2 0x1769 DUP3 PUSH2 0x1C0B JUMP JUMPDEST SWAP2 POP PUSH2 0x1774 DUP4 PUSH2 0x1C0B JUMP JUMPDEST SWAP3 POP DUP3 PUSH32 0xFFFFFFFFFFFFFFFFFFFFFFFFFFFFFFFFFFFFFFFFFFFFFFFFFFFFFFFFFFFFFFFF SUB DUP3 GT ISZERO PUSH2 0x17A9 JUMPI PUSH2 0x17A8 PUSH2 0x1C8B JUMP JUMPDEST JUMPDEST DUP3 DUP3 ADD SWAP1 POP SWAP3 SWAP2 POP POP JUMP JUMPDEST PUSH1 0x0 PUSH2 0x17BF DUP3 PUSH2 0x1BE1 JUMP JUMPDEST SWAP2 POP PUSH2 0x17CA DUP4 PUSH2 0x1BE1 JUMP JUMPDEST SWAP3 POP DUP3 PUSH2 0x17DA JUMPI PUSH2 0x17D9 PUSH2 0x1CBA JUMP JUMPDEST JUMPDEST PUSH1 0x1 PUSH1 0x0 SUB DUP4 EQ PUSH32 0x8000000000000000000000000000000000000000000000000000000000000000 DUP4 EQ AND ISZERO PUSH2 0x1813 JUMPI PUSH2 0x1812 PUSH2 0x1C8B JUMP JUMPDEST JUMPDEST DUP3 DUP3 SDIV SWAP1 POP SWAP3 SWAP2 POP POP JUMP JUMPDEST PUSH1 0x0 PUSH2 0x1829 DUP3 PUSH2 0x1C0B JUMP JUMPDEST SWAP2 POP PUSH2 0x1834 DUP4 PUSH2 0x1C0B JUMP JUMPDEST SWAP3 POP DUP3 PUSH2 0x1844 JUMPI PUSH2 0x1843 PUSH2 0x1CBA JUMP JUMPDEST JUMPDEST DUP3 DUP3 DIV SWAP1 POP SWAP3 SWAP2 POP POP JUMP JUMPDEST PUSH1 0x0 DUP1 DUP3 SWAP2 POP DUP4 SWAP1 POP JUMPDEST PUSH1 0x1 DUP6 GT ISZERO PUSH2 0x1899 JUMPI DUP1 DUP7 DIV DUP2 GT ISZERO PUSH2 0x1875 JUMPI PUSH2 0x1874 PUSH2 0x1C8B JUMP JUMPDEST JUMPDEST PUSH1 0x1 DUP6 AND ISZERO PUSH2 0x1884 JUMPI DUP1 DUP3 MUL SWAP2 POP JUMPDEST DUP1 DUP2 MUL SWAP1 POP PUSH2 0x1892 DUP6 PUSH2 0x1D6F JUMP JUMPDEST SWAP5 POP PUSH2 0x1859 JUMP JUMPDEST SWAP5 POP SWAP5 SWAP3 POP POP POP JUMP JUMPDEST PUSH1 0x0 PUSH2 0x18AD DUP3 PUSH2 0x1C0B JUMP JUMPDEST SWAP2 POP PUSH2 0x18B8 DUP4 PUSH2 0x1C0B JUMP JUMPDEST SWAP3 POP PUSH2 0x18E5 PUSH32 0xFFFFFFFFFFFFFFFFFFFFFFFFFFFFFFFFFFFFFFFFFFFFFFFFFFFFFFFFFFFFFFFF DUP5 DUP5 PUSH2 0x18ED JUMP JUMPDEST SWAP1 POP SWAP3 SWAP2 POP POP JUMP JUMPDEST PUSH1 0x0 DUP3 PUSH2 0x18FD JUMPI PUSH1 0x1 SWAP1 POP PUSH2 0x19B9 JUMP JUMPDEST DUP2 PUSH2 0x190B JUMPI PUSH1 0x0 SWAP1 POP PUSH2 0x19B9 JUMP JUMPDEST DUP2 PUSH1 0x1 DUP2 EQ PUSH2 0x1921 JUMPI PUSH1 0x2 DUP2 EQ PUSH2 0x192B JUMPI PUSH2 0x195A JUMP JUMPDEST PUSH1 0x1 SWAP2 POP POP PUSH2 0x19B9 JUMP JUMPDEST PUSH1 0xFF DUP5 GT ISZERO PUSH2 0x193D JUMPI PUSH2 0x193C PUSH2 0x1C8B JUMP JUMPDEST JUMPDEST DUP4 PUSH1 0x2 EXP SWAP2 POP DUP5 DUP3 GT ISZERO PUSH2 0x1954 JUMPI PUSH2 0x1953 PUSH2 0x1C8B JUMP JUMPDEST JUMPDEST POP PUSH2 0x19B9 JUMP JUMPDEST POP PUSH1 0x20 DUP4 LT PUSH2 0x133 DUP4 LT AND PUSH1 0x4E DUP5 LT PUSH1 0xB DUP5 LT AND OR ISZERO PUSH2 0x198F JUMPI DUP3 DUP3 EXP SWAP1 POP DUP4 DUP2 GT ISZERO PUSH2 0x198A JUMPI PUSH2 0x1989 PUSH2 0x1C8B JUMP JUMPDEST JUMPDEST PUSH2 0x19B9 JUMP JUMPDEST PUSH2 0x199C DUP5 DUP5 DUP5 PUSH1 0x1 PUSH2 0x184F JUMP JUMPDEST SWAP3 POP SWAP1 POP DUP2 DUP5 DIV DUP2 GT ISZERO PUSH2 0x19B3 JUMPI PUSH2 0x19B2 PUSH2 0x1C8B JUMP JUMPDEST JUMPDEST DUP2 DUP2 MUL SWAP1 POP JUMPDEST SWAP4 SWAP3 POP POP POP JUMP JUMPDEST PUSH1 0x0 PUSH2 0x19CB DUP3 PUSH2 0x1BE1 JUMP JUMPDEST SWAP2 POP PUSH2 0x19D6 DUP4 PUSH2 0x1BE1 JUMP JUMPDEST SWAP3 POP DUP3 PUSH32 0x7FFFFFFFFFFFFFFFFFFFFFFFFFFFFFFFFFFFFFFFFFFFFFFFFFFFFFFFFFFFFFFF DIV DUP3 GT PUSH1 0x0 DUP5 SGT PUSH1 0x0 DUP5 SGT AND AND ISZERO PUSH2 0x1A15 JUMPI PUSH2 0x1A14 PUSH2 0x1C8B JUMP JUMPDEST JUMPDEST DUP2 PUSH32 0x8000000000000000000000000000000000000000000000000000000000000000 SDIV DUP4 SLT PUSH1 0x0 DUP5 SLT PUSH1 0x0 DUP5 SGT AND AND ISZERO PUSH2 0x1A52 JUMPI PUSH2 0x1A51 PUSH2 0x1C8B JUMP JUMPDEST JUMPDEST DUP3 PUSH32 0x8000000000000000000000000000000000000000000000000000000000000000 SDIV DUP3 SLT PUSH1 0x0 DUP5 SGT PUSH1 0x0 DUP5 SLT AND AND ISZERO PUSH2 0x1A8F JUMPI PUSH2 0x1A8E PUSH2 0x1C8B JUMP JUMPDEST JUMPDEST DUP3 PUSH32 0x7FFFFFFFFFFFFFFFFFFFFFFFFFFFFFFFFFFFFFFFFFFFFFFFFFFFFFFFFFFFFFFF SDIV DUP3 SLT PUSH1 0x0 DUP5 SLT PUSH1 0x0 DUP5 SLT AND AND ISZERO PUSH2 0x1ACC JUMPI PUSH2 0x1ACB PUSH2 0x1C8B JUMP JUMPDEST JUMPDEST DUP3 DUP3 MUL SWAP1 POP SWAP3 SWAP2 POP POP JUMP JUMPDEST PUSH1 0x0 PUSH2 0x1AE2 DUP3 PUSH2 0x1C0B JUMP JUMPDEST SWAP2 POP PUSH2 0x1AED DUP4 PUSH2 0x1C0B JUMP JUMPDEST SWAP3 POP DUP2 PUSH32 0xFFFFFFFFFFFFFFFFFFFFFFFFFFFFFFFFFFFFFFFFFFFFFFFFFFFFFFFFFFFFFFFF DIV DUP4 GT DUP3 ISZERO ISZERO AND ISZERO PUSH2 0x1B26 JUMPI PUSH2 0x1B25 PUSH2 0x1C8B JUMP JUMPDEST JUMPDEST DUP3 DUP3 MUL SWAP1 POP SWAP3 SWAP2 POP POP JUMP JUMPDEST PUSH1 0x0 PUSH2 0x1B3C DUP3 PUSH2 0x1BE1 JUMP JUMPDEST SWAP2 POP PUSH2 0x1B47 DUP4 PUSH2 0x1BE1 JUMP JUMPDEST SWAP3 POP DUP3 PUSH32 0x8000000000000000000000000000000000000000000000000000000000000000 ADD DUP3 SLT PUSH1 0x0 DUP5 SLT ISZERO AND ISZERO PUSH2 0x1B82 JUMPI PUSH2 0x1B81 PUSH2 0x1C8B JUMP JUMPDEST JUMPDEST DUP3 PUSH32 0x7FFFFFFFFFFFFFFFFFFFFFFFFFFFFFFFFFFFFFFFFFFFFFFFFFFFFFFFFFFFFFFF ADD DUP3 SGT PUSH1 0x0 DUP5 SLT AND ISZERO PUSH2 0x1BBA JUMPI PUSH2 0x1BB9 PUSH2 0x1C8B JUMP JUMPDEST JUMPDEST DUP3 DUP3 SUB SWAP1 POP SWAP3 SWAP2 POP POP JUMP JUMPDEST PUSH1 0x0 PUSH2 0x1BD0 DUP3 PUSH2 0x1BEB JUMP JUMPDEST SWAP1 POP SWAP2 SWAP1 POP JUMP JUMPDEST PUSH1 0x0 DUP2 SWAP1 POP SWAP2 SWAP1 POP JUMP JUMPDEST PUSH1 0x0 DUP2 SWAP1 POP SWAP2 SWAP1 POP JUMP JUMPDEST PUSH1 0x0 PUSH20 0xFFFFFFFFFFFFFFFFFFFFFFFFFFFFFFFFFFFFFFFF DUP3 AND SWAP1 POP SWAP2 SWAP1 POP JUMP JUMPDEST PUSH1 0x0 DUP2 SWAP1 POP SWAP2 SWAP1 POP JUMP JUMPDEST PUSH1 0x0 PUSH1 0xFF DUP3 AND SWAP1 POP SWAP2 SWAP1 POP JUMP JUMPDEST PUSH2 0x1C2B DUP3 PUSH2 0x1D51 JUMP JUMPDEST DUP2 ADD DUP2 DUP2 LT PUSH8 0xFFFFFFFFFFFFFFFF DUP3 GT OR ISZERO PUSH2 0x1C4A JUMPI PUSH2 0x1C49 PUSH2 0x1D18 JUMP JUMPDEST JUMPDEST DUP1 PUSH1 0x40 MSTORE POP POP POP JUMP JUMPDEST PUSH1 0x0 PUSH2 0x1C5E DUP3 PUSH2 0x1C6F JUMP JUMPDEST SWAP1 POP SWAP2 SWAP1 POP JUMP JUMPDEST PUSH1 0x0 DUP2 SWAP1 POP SWAP2 SWAP1 POP JUMP JUMPDEST PUSH1 0x0 PUSH2 0x1C7A DUP3 PUSH2 0x1D62 JUMP JUMPDEST SWAP1 POP SWAP2 SWAP1 POP JUMP JUMPDEST PUSH1 0x0 DUP2 SWAP1 POP SWAP2 SWAP1 POP JUMP JUMPDEST PUSH32 0x4E487B7100000000000000000000000000000000000000000000000000000000 PUSH1 0x0 MSTORE PUSH1 0x11 PUSH1 0x4 MSTORE PUSH1 0x24 PUSH1 0x0 REVERT JUMPDEST PUSH32 0x4E487B7100000000000000000000000000000000000000000000000000000000 PUSH1 0x0 MSTORE PUSH1 0x12 PUSH1 0x4 MSTORE PUSH1 0x24 PUSH1 0x0 REVERT JUMPDEST PUSH32 0x4E487B7100000000000000000000000000000000000000000000000000000000 PUSH1 0x0 MSTORE PUSH1 0x21 PUSH1 0x4 MSTORE PUSH1 0x24 PUSH1 0x0 REVERT JUMPDEST PUSH32 0x4E487B7100000000000000000000000000000000000000000000000000000000 PUSH1 0x0 MSTORE PUSH1 0x41 PUSH1 0x4 MSTORE PUSH1 0x24 PUSH1 0x0 REVERT JUMPDEST PUSH1 0x0 DUP1 REVERT JUMPDEST PUSH1 0x0 DUP1 REVERT JUMPDEST PUSH1 0x0 PUSH1 0x1F NOT PUSH1 0x1F DUP4 ADD AND SWAP1 POP SWAP2 SWAP1 POP JUMP JUMPDEST PUSH1 0x0 DUP2 PUSH1 0x60 SHL SWAP1 POP SWAP2 SWAP1 POP JUMP JUMPDEST PUSH1 0x0 DUP2 PUSH1 0x1 SHR SWAP1 POP SWAP2 SWAP1 POP JUMP JUMPDEST PUSH32 0x696E76616C6964206D6174636800000000000000000000000000000000000000 PUSH1 0x0 DUP3 ADD MSTORE POP JUMP JUMPDEST PUSH32 0x6D617463682069736E27742072756E6E696E6700000000000000000000000000 PUSH1 0x0 DUP3 ADD MSTORE POP JUMP JUMPDEST PUSH32 0x19457468657265756D205369676E6564204D6573736167653A0A333200000000 PUSH1 0x0 DUP3 ADD MSTORE POP JUMP JUMPDEST PUSH32 0x4F776E61626C653A206E6577206F776E657220697320746865207A65726F2061 PUSH1 0x0 DUP3 ADD MSTORE PUSH32 0x6464726573730000000000000000000000000000000000000000000000000000 PUSH1 0x20 DUP3 ADD MSTORE POP JUMP JUMPDEST PUSH32 0x69742069736E27742074696D6520796574000000000000000000000000000000 PUSH1 0x0 DUP3 ADD MSTORE POP JUMP JUMPDEST PUSH32 0x6576616C756174696F6E20706572696F642069736E2774207365740000000000 PUSH1 0x0 DUP3 ADD MSTORE POP JUMP JUMPDEST PUSH32 0x7468652067616D652068617320616C7265616479207374617274656400000000 PUSH1 0x0 DUP3 ADD MSTORE POP JUMP JUMPDEST PUSH32 0x4F776E61626C653A2063616C6C6572206973206E6F7420746865206F776E6572 PUSH1 0x0 DUP3 ADD MSTORE POP JUMP JUMPDEST PUSH32 0x4F6E6C792047616D65436F6E747261637420416C6C6F77656400000000000000 PUSH1 0x0 DUP3 ADD MSTORE POP JUMP JUMPDEST PUSH2 0x1F1C DUP2 PUSH2 0x1BC5 JUMP JUMPDEST DUP2 EQ PUSH2 0x1F27 JUMPI PUSH1 0x0 DUP1 REVERT JUMPDEST POP JUMP JUMPDEST PUSH2 0x1F33 DUP2 PUSH2 0x1BD7 JUMP JUMPDEST DUP2 EQ PUSH2 0x1F3E JUMPI PUSH1 0x0 DUP1 REVERT JUMPDEST POP JUMP JUMPDEST PUSH1 0x3 DUP2 LT PUSH2 0x1F4E JUMPI PUSH1 0x0 DUP1 REVERT JUMPDEST POP JUMP JUMPDEST PUSH2 0x1F5A DUP2 PUSH2 0x1C0B JUMP JUMPDEST DUP2 EQ PUSH2 0x1F65 JUMPI PUSH1 0x0 DUP1 REVERT JUMPDEST POP JUMP JUMPDEST PUSH2 0x1F71 DUP2 PUSH2 0x1C15 JUMP JUMPDEST DUP2 EQ PUSH2 0x1F7C JUMPI PUSH1 0x0 DUP1 REVERT JUMPDEST POP JUMP INVALID LOG2 PUSH5 0x6970667358 0x22 SLT KECCAK256 0x24 0x2E PUSH32 0xB120ADDA7291C79E4120296F0EA055B96FFBFB7152DD5A509BACDE58D064736F PUSH13 0x63430008070033000000000000 "
		},
		"gasEstimates": {
			"creation": {
				"codeDepositCost": "1623400",
				"executionCost": "infinite",
				"totalCost": "infinite"
			},
			"external": {
				"DRAW()": "infinite",
				"INVERSE_BASIS_POINT()": "418",
				"VICTORY()": "352",
				"alterGameContract(address)": "26984",
				"createMatch((address,address,uint256),(uint8,bytes32,bytes32),(uint8,bytes32,bytes32))": "infinite",
				"currentEvaluationPeriod()": "2453",
				"evaluationPeriod()": "2474",
				"getPlayerRating(address)": "2904",
				"kFactor()": "2497",
				"nextEvaluationPeriod()": "infinite",
				"owner()": "2589",
				"renounceOwnership()": "30441",
				"transferOwnership(address)": "30811",
				"updateEvaluationPeriod(uint256)": "24849",
				"updateKFactor(uint256)": "infinite",
				"writeMatchResult((address,address,uint256),uint8)": "infinite"
			},
			"internal": {
				"calculateElo(address,uint256,uint256)": "infinite",
				"updatePlayerRating(address,int256)": "infinite"
			}
		},
		"methodIdentifiers": {
			"DRAW()": "619d36ef",
			"INVERSE_BASIS_POINT()": "cae6047f",
			"VICTORY()": "795d2dc3",
			"alterGameContract(address)": "cdb2d740",
			"createMatch((address,address,uint256),(uint8,bytes32,bytes32),(uint8,bytes32,bytes32))": "4178a052",
			"currentEvaluationPeriod()": "0538462d",
			"evaluationPeriod()": "7b79bd15",
			"getPlayerRating(address)": "5ac14a29",
			"kFactor()": "342e4cbf",
			"nextEvaluationPeriod()": "069c00b7",
			"owner()": "8da5cb5b",
			"renounceOwnership()": "715018a6",
			"transferOwnership(address)": "f2fde38b",
			"updateEvaluationPeriod(uint256)": "76bfff26",
			"updateKFactor(uint256)": "d87cde67",
			"writeMatchResult((address,address,uint256),uint8)": "e7babd36"
		}
	},
	"abi": [
		{
			"inputs": [
				{
					"internalType": "address",
					"name": "addr",
					"type": "address"
				}
			],
			"stateMutability": "nonpayable",
			"type": "constructor"
		},
		{
			"anonymous": false,
			"inputs": [
				{
					"indexed": true,
					"internalType": "address",
					"name": "player",
					"type": "address"
				},
				{
					"indexed": false,
					"internalType": "uint256",
					"name": "elo",
					"type": "uint256"
				}
			],
			"name": "EloUpdate",
			"type": "event"
		},
		{
			"anonymous": false,
			"inputs": [
				{
					"indexed": false,
					"internalType": "uint256",
					"name": "newKFactor",
					"type": "uint256"
				}
			],
			"name": "KFactorUpdate",
			"type": "event"
		},
		{
			"anonymous": false,
			"inputs": [
				{
					"indexed": true,
					"internalType": "address",
					"name": "pA",
					"type": "address"
				},
				{
					"indexed": true,
					"internalType": "address",
					"name": "pB",
					"type": "address"
				},
				{
					"indexed": false,
					"internalType": "uint256",
					"name": "nonce",
					"type": "uint256"
				}
			],
			"name": "MatchCreate",
			"type": "event"
		},
		{
			"anonymous": false,
			"inputs": [
				{
					"indexed": true,
					"internalType": "address",
					"name": "pA",
					"type": "address"
				},
				{
					"indexed": true,
					"internalType": "address",
					"name": "pB",
					"type": "address"
				},
				{
					"indexed": false,
					"internalType": "uint256",
					"name": "nonce",
					"type": "uint256"
				}
			],
			"name": "MatchFinish",
			"type": "event"
		},
		{
			"anonymous": false,
			"inputs": [
				{
					"indexed": true,
					"internalType": "address",
					"name": "previousOwner",
					"type": "address"
				},
				{
					"indexed": true,
					"internalType": "address",
					"name": "newOwner",
					"type": "address"
				}
			],
			"name": "OwnershipTransferred",
			"type": "event"
		},
		{
			"anonymous": false,
			"inputs": [
				{
					"indexed": false,
					"internalType": "uint256",
					"name": "newEvaluationPeriod",
					"type": "uint256"
				}
			],
			"name": "PeriodCompleted",
			"type": "event"
		},
		{
			"inputs": [],
			"name": "DRAW",
			"outputs": [
				{
					"internalType": "uint256",
					"name": "",
					"type": "uint256"
				}
			],
			"stateMutability": "view",
			"type": "function"
		},
		{
			"inputs": [],
			"name": "INVERSE_BASIS_POINT",
			"outputs": [
				{
					"internalType": "uint256",
					"name": "",
					"type": "uint256"
				}
			],
			"stateMutability": "view",
			"type": "function"
		},
		{
			"inputs": [],
			"name": "VICTORY",
			"outputs": [
				{
					"internalType": "uint256",
					"name": "",
					"type": "uint256"
				}
			],
			"stateMutability": "view",
			"type": "function"
		},
		{
			"inputs": [
				{
					"internalType": "address",
					"name": "newGameAddress",
					"type": "address"
				}
			],
			"name": "alterGameContract",
			"outputs": [],
			"stateMutability": "nonpayable",
			"type": "function"
		},
		{
			"inputs": [
				{
					"components": [
						{
							"internalType": "address",
							"name": "playerA",
							"type": "address"
						},
						{
							"internalType": "address",
							"name": "playerB",
							"type": "address"
						},
						{
							"internalType": "uint256",
							"name": "nonce",
							"type": "uint256"
						}
					],
					"internalType": "struct GameLibrary.Match",
					"name": "m",
					"type": "tuple"
				},
				{
					"components": [
						{
							"internalType": "uint8",
							"name": "v",
							"type": "uint8"
						},
						{
							"internalType": "bytes32",
							"name": "r",
							"type": "bytes32"
						},
						{
							"internalType": "bytes32",
							"name": "s",
							"type": "bytes32"
						}
					],
					"internalType": "struct GameLibrary.Sig",
					"name": "pAsig",
					"type": "tuple"
				},
				{
					"components": [
						{
							"internalType": "uint8",
							"name": "v",
							"type": "uint8"
						},
						{
							"internalType": "bytes32",
							"name": "r",
							"type": "bytes32"
						},
						{
							"internalType": "bytes32",
							"name": "s",
							"type": "bytes32"
						}
					],
					"internalType": "struct GameLibrary.Sig",
					"name": "pBsig",
					"type": "tuple"
				}
			],
			"name": "createMatch",
			"outputs": [
				{
					"internalType": "bytes32",
					"name": "hash",
					"type": "bytes32"
				}
			],
			"stateMutability": "nonpayable",
			"type": "function"
		},
		{
			"inputs": [],
			"name": "currentEvaluationPeriod",
			"outputs": [
				{
					"internalType": "uint256",
					"name": "",
					"type": "uint256"
				}
			],
			"stateMutability": "view",
			"type": "function"
		},
		{
			"inputs": [],
			"name": "evaluationPeriod",
			"outputs": [
				{
					"internalType": "uint256",
					"name": "",
					"type": "uint256"
				}
			],
			"stateMutability": "view",
			"type": "function"
		},
		{
			"inputs": [
				{
					"internalType": "address",
					"name": "p",
					"type": "address"
				}
			],
			"name": "getPlayerRating",
			"outputs": [
				{
					"internalType": "uint256",
					"name": "elo",
					"type": "uint256"
				}
			],
			"stateMutability": "view",
			"type": "function"
		},
		{
			"inputs": [],
			"name": "kFactor",
			"outputs": [
				{
					"internalType": "uint256",
					"name": "",
					"type": "uint256"
				}
			],
			"stateMutability": "view",
			"type": "function"
		},
		{
			"inputs": [],
			"name": "nextEvaluationPeriod",
			"outputs": [],
			"stateMutability": "nonpayable",
			"type": "function"
		},
		{
			"inputs": [],
			"name": "owner",
			"outputs": [
				{
					"internalType": "address",
					"name": "",
					"type": "address"
				}
			],
			"stateMutability": "view",
			"type": "function"
		},
		{
			"inputs": [],
			"name": "renounceOwnership",
			"outputs": [],
			"stateMutability": "nonpayable",
			"type": "function"
		},
		{
			"inputs": [
				{
					"internalType": "address",
					"name": "newOwner",
					"type": "address"
				}
			],
			"name": "transferOwnership",
			"outputs": [],
			"stateMutability": "nonpayable",
			"type": "function"
		},
		{
			"inputs": [
				{
					"internalType": "uint256",
					"name": "newEvaluationPeriod",
					"type": "uint256"
				}
			],
			"name": "updateEvaluationPeriod",
			"outputs": [],
			"stateMutability": "nonpayable",
			"type": "function"
		},
		{
			"inputs": [
				{
					"internalType": "uint256",
					"name": "newKFactor",
					"type": "uint256"
				}
			],
			"name": "updateKFactor",
			"outputs": [],
			"stateMutability": "nonpayable",
			"type": "function"
		},
		{
			"inputs": [
				{
					"components": [
						{
							"internalType": "address",
							"name": "playerA",
							"type": "address"
						},
						{
							"internalType": "address",
							"name": "playerB",
							"type": "address"
						},
						{
							"internalType": "uint256",
							"name": "nonce",
							"type": "uint256"
						}
					],
					"internalType": "struct GameLibrary.Match",
					"name": "m",
					"type": "tuple"
				},
				{
					"internalType": "enum GameLibrary.MatchResult",
					"name": "result",
					"type": "uint8"
				}
			],
			"name": "writeMatchResult",
			"outputs": [],
			"stateMutability": "nonpayable",
			"type": "function"
		}
	]
}