{
	"data": {
		"bytecode": {
			"linkReferences": {},
			"object": "608060405234801561001057600080fd5b5061002d61002261003260201b60201c565b61003a60201b60201c565b6100fe565b600033905090565b60008060009054906101000a900473ffffffffffffffffffffffffffffffffffffffff169050816000806101000a81548173ffffffffffffffffffffffffffffffffffffffff021916908373ffffffffffffffffffffffffffffffffffffffff1602179055508173ffffffffffffffffffffffffffffffffffffffff168173ffffffffffffffffffffffffffffffffffffffff167f8be0079c531659141344cd1fd0a4f28419497f9722a3daafe3b4186f6b6457e060405160405180910390a35050565b612450806200010e6000396000f3fe608060405234801561001057600080fd5b506004361061007d5760003560e01c8063715018a61161005b578063715018a6146100ff5780638da5cb5b14610109578063c6ac8a4b14610127578063f2fde38b146101455761007d565b80634575505f146100825780634b2997e4146100b35780636a7693dc146100e3575b600080fd5b61009c60048036038101906100979190611b58565b610161565b6040516100aa929190611e21565b60405180910390f35b6100cd60048036038101906100c89190611bd8565b6107e5565b6040516100da9190611e51565b60405180910390f35b6100fd60048036038101906100f89190611bab565b610b34565b005b610107610bf4565b005b610111610c7c565b60405161011e9190611e06565b60405180910390f35b61012f610ca5565b60405161013c9190611f3a565b60405180910390f35b61015f600480360381019061015a9190611afe565b610ccb565b005b600060606000600160008781526020019081526020016000209050600073ffffffffffffffffffffffffffffffffffffffff168160000160009054906101000a900473ffffffffffffffffffffffffffffffffffffffff1673ffffffffffffffffffffffffffffffffffffffff16148061022b5750600073ffffffffffffffffffffffffffffffffffffffff168160010160009054906101000a900473ffffffffffffffffffffffffffffffffffffffff1673ffffffffffffffffffffffffffffffffffffffff16145b156102725760006040518060400160405280601481526020017f4e6f20737563682067616d65206578697374732e00000000000000000000000081525092509250506107dd565b6000600381111561028657610285612205565b5b8160030160009054906101000a900460ff1660038111156102aa576102a9612205565b5b146102f15760006040518060400160405280601b81526020017f5468652067616d652068617320616c726561647920656e6465642e000000000081525092509250506107dd565b6102fa81610dc3565b73ffffffffffffffffffffffffffffffffffffffff163373ffffffffffffffffffffffffffffffffffffffff161461036e5760006040518060400160405280601481526020017f4974206973206e6f7420796f7572207475726e2e00000000000000000000000081525092509250506107dd565b6000600281111561038257610381612205565b5b81600401866003811061039857610397612234565b5b0185600381106103ab576103aa612234565b5b602091828204019190069054906101000a900460ff1660028111156103d3576103d2612205565b5b146103fd5760006040518060600160405280603181526020016123ea6031913992509250506107dd565b8060030160019054906101000a900460ff1681600401866003811061042557610424612234565b5b01856003811061043857610437612234565b5b602091828204019190066101000a81548160ff0219169083600281111561046257610461612205565b5b02179055507f1a9c5494de497e044b49a5151f7f57ef2a19803f580d67f046d170f5ff426df98633878760405161049c9493929190611e95565b60405180910390a1600061055882600401600380602002604051908101604052809291906000905b8282101561054f5783820160038060200260405190810160405280929190826003801561053b576020028201916000905b82829054906101000a900460ff16600281111561051557610514612205565b5b815260200190600101906020826000010492830192600103820291508084116104f55790505b5050505050815260200190600101906104c4565b50505050610ea2565b90506000600381111561056e5761056d612205565b5b81600381111561058157610580612205565b5b146107bb57808260030160006101000a81548160ff021916908360038111156105ad576105ac612205565b5b02179055507ffb27a88c43d827e8c2da22a89492890f26769316375c930ae774d39567547bb287826040516105e3929190611f11565b60405180910390a160006001600381111561060157610600612205565b5b82600381111561061457610613612205565b5b14156106235760019050610656565b6002600381111561063757610636612205565b5b82600381111561064a57610649612205565b5b141561065557600290505b5b600260009054906101000a900473ffffffffffffffffffffffffffffffffffffffff1673ffffffffffffffffffffffffffffffffffffffff1663e7babd3660405180606001604052808660000160009054906101000a900473ffffffffffffffffffffffffffffffffffffffff1673ffffffffffffffffffffffffffffffffffffffff1681526020018660010160009054906101000a900473ffffffffffffffffffffffffffffffffffffffff1673ffffffffffffffffffffffffffffffffffffffff1681526020018660020154815250836040518363ffffffff1660e01b8152600401610745929190611fb5565b600060405180830381600087803b15801561075f57600080fd5b505af1158015610773573d6000803e3d6000fd5b5050505060016040518060400160405280601181526020017f5468652067616d65206973206f7665722e000000000000000000000000000000815250945094505050506107dd565b6107c482611030565b6001604051806020016040528060008152509350935050505b935093915050565b60008073ffffffffffffffffffffffffffffffffffffffff16600260009054906101000a900473ffffffffffffffffffffffffffffffffffffffff1673ffffffffffffffffffffffffffffffffffffffff161415610878576040517f08c379a000000000000000000000000000000000000000000000000000000000815260040161086f90611f75565b60405180910390fd5b6000600260009054906101000a900473ffffffffffffffffffffffffffffffffffffffff1673ffffffffffffffffffffffffffffffffffffffff16634178a0528686866040518463ffffffff1660e01b81526004016108d993929190611fde565b602060405180830381600087803b1580156108f357600080fd5b505af1158015610907573d6000803e3d6000fd5b505050506040513d601f19601f8201168201806040525081019061092b9190611b2b565b9050600060016000838152602001908152602001600020905060018160030160016101000a81548160ff0219169083600281111561096c5761096b612205565b5b021790555085600001518160000160006101000a81548173ffffffffffffffffffffffffffffffffffffffff021916908373ffffffffffffffffffffffffffffffffffffffff16021790555085602001518160010160006101000a81548173ffffffffffffffffffffffffffffffffffffffff021916908373ffffffffffffffffffffffffffffffffffffffff160217905550856040015181600201819055507fdb39b7323105b04a697f43db521ca7e936b02b98992c04ce3bbfa4a59d789ff68233604051610a3d929190611e6c565b60405180910390a17f9877a890ce7896259fbc155b7972a99fcd1cd86c5482c99b698561c75f5efc14828260000160009054906101000a900473ffffffffffffffffffffffffffffffffffffffff1660016002811115610aa057610a9f612205565b5b604051610aaf93929190611eda565b60405180910390a17f9877a890ce7896259fbc155b7972a99fcd1cd86c5482c99b698561c75f5efc14828260010160009054906101000a900473ffffffffffffffffffffffffffffffffffffffff16600280811115610b1157610b10612205565b5b604051610b2093929190611eda565b60405180910390a181925050509392505050565b610b3c6110d1565b73ffffffffffffffffffffffffffffffffffffffff16610b5a610c7c565b73ffffffffffffffffffffffffffffffffffffffff1614610bb0576040517f08c379a0000000000000000000000000000000000000000000000000000000008152600401610ba790611f95565b60405180910390fd5b80600260006101000a81548173ffffffffffffffffffffffffffffffffffffffff021916908373ffffffffffffffffffffffffffffffffffffffff16021790555050565b610bfc6110d1565b73ffffffffffffffffffffffffffffffffffffffff16610c1a610c7c565b73ffffffffffffffffffffffffffffffffffffffff1614610c70576040517f08c379a0000000000000000000000000000000000000000000000000000000008152600401610c6790611f95565b60405180910390fd5b610c7a60006110d9565b565b60008060009054906101000a900473ffffffffffffffffffffffffffffffffffffffff16905090565b600260009054906101000a900473ffffffffffffffffffffffffffffffffffffffff1681565b610cd36110d1565b73ffffffffffffffffffffffffffffffffffffffff16610cf1610c7c565b73ffffffffffffffffffffffffffffffffffffffff1614610d47576040517f08c379a0000000000000000000000000000000000000000000000000000000008152600401610d3e90611f95565b60405180910390fd5b600073ffffffffffffffffffffffffffffffffffffffff168173ffffffffffffffffffffffffffffffffffffffff161415610db7576040517f08c379a0000000000000000000000000000000000000000000000000000000008152600401610dae90611f55565b60405180910390fd5b610dc0816110d9565b50565b600060016002811115610dd957610dd8612205565b5b8260030160019054906101000a900460ff166002811115610dfd57610dfc612205565b5b1415610e2f578160000160009054906101000a900473ffffffffffffffffffffffffffffffffffffffff169050610e9d565b600280811115610e4257610e41612205565b5b8260030160019054906101000a900460ff166002811115610e6657610e65612205565b5b1415610e98578160010160009054906101000a900473ffffffffffffffffffffffffffffffffffffffff169050610e9d565b600090505b919050565b600080610eae8361119d565b905060016002811115610ec457610ec3612205565b5b816002811115610ed757610ed6612205565b5b1415610ee757600191505061102b565b600280811115610efa57610ef9612205565b5b816002811115610f0d57610f0c612205565b5b1415610f1d57600291505061102b565b610f2683611390565b905060016002811115610f3c57610f3b612205565b5b816002811115610f4f57610f4e612205565b5b1415610f5f57600191505061102b565b600280811115610f7257610f71612205565b5b816002811115610f8557610f84612205565b5b1415610f9557600291505061102b565b610f9e83611583565b905060016002811115610fb457610fb3612205565b5b816002811115610fc757610fc6612205565b5b1415610fd757600191505061102b565b600280811115610fea57610fe9612205565b5b816002811115610ffd57610ffc612205565b5b141561100d57600291505061102b565b611016836118f7565b1561102557600391505061102b565b60009150505b919050565b6001600281111561104457611043612205565b5b8160030160019054906101000a900460ff16600281111561106857611067612205565b5b14156110a05760028160030160016101000a81548160ff0219169083600281111561109657611095612205565b5b02179055506110ce565b60018160030160016101000a81548160ff021916908360028111156110c8576110c7612205565b5b02179055505b50565b600033905090565b60008060009054906101000a900473ffffffffffffffffffffffffffffffffffffffff169050816000806101000a81548173ffffffffffffffffffffffffffffffffffffffff021916908373ffffffffffffffffffffffffffffffffffffffff1602179055508173ffffffffffffffffffffffffffffffffffffffff168173ffffffffffffffffffffffffffffffffffffffff167f8be0079c531659141344cd1fd0a4f28419497f9722a3daafe3b4186f6b6457e060405160405180910390a35050565b600080600090505b60038160ff16101561138557828160ff16600381106111c7576111c6612234565b5b60200201516001600381106111df576111de612234565b5b602002015160028111156111f6576111f5612205565b5b838260ff166003811061120c5761120b612234565b5b602002015160006003811061122457611223612234565b5b6020020151600281111561123b5761123a612205565b5b1480156112cf5750828160ff166003811061125957611258612234565b5b602002015160026003811061127157611270612234565b5b6020020151600281111561128857611287612205565b5b838260ff166003811061129e5761129d612234565b5b60200201516001600381106112b6576112b5612234565b5b602002015160028111156112cd576112cc612205565b5b145b80156113325750600060028111156112ea576112e9612205565b5b838260ff1660038110611300576112ff612234565b5b602002015160006003811061131857611317612234565b5b6020020151600281111561132f5761132e612205565b5b14155b1561137257828160ff166003811061134d5761134c612234565b5b602002015160006003811061136557611364612234565b5b602002015191505061138b565b808061137d906121ac565b9150506111a5565b50600090505b919050565b600080600090505b60038160ff16101561157857826001600381106113b8576113b7612234565b5b60200201518160ff16600381106113d2576113d1612234565b5b602002015160028111156113e9576113e8612205565b5b836000600381106113fd576113fc612234565b5b60200201518260ff166003811061141757611416612234565b5b6020020151600281111561142e5761142d612205565b5b1480156114c257508260026003811061144a57611449612234565b5b60200201518160ff166003811061146457611463612234565b5b6020020151600281111561147b5761147a612205565b5b8360016003811061148f5761148e612234565b5b60200201518260ff16600381106114a9576114a8612234565b5b602002015160028111156114c0576114bf612205565b5b145b80156115255750600060028111156114dd576114dc612205565b5b836000600381106114f1576114f0612234565b5b60200201518260ff166003811061150b5761150a612234565b5b6020020151600281111561152257611521612205565b5b14155b15611565578260006003811061153e5761153d612234565b5b60200201518160ff166003811061155857611557612234565b5b602002015191505061157e565b8080611570906121ac565b915050611398565b50600090505b919050565b60008160016003811061159957611598612234565b5b60200201516001600381106115b1576115b0612234565b5b602002015160028111156115c8576115c7612205565b5b826000600381106115dc576115db612234565b5b60200201516000600381106115f4576115f3612234565b5b6020020151600281111561160b5761160a612205565b5b14801561169b57508160026003811061162757611626612234565b5b602002015160026003811061163f5761163e612234565b5b6020020151600281111561165657611655612205565b5b8260016003811061166a57611669612234565b5b602002015160016003811061168257611681612234565b5b6020020151600281111561169957611698612205565b5b145b80156116fc5750600060028111156116b6576116b5612205565b5b826000600381106116ca576116c9612234565b5b60200201516000600381106116e2576116e1612234565b5b602002015160028111156116f9576116f8612205565b5b14155b15611739578160006003811061171557611714612234565b5b602002015160006003811061172d5761172c612234565b5b602002015190506118f2565b8160016003811061174d5761174c612234565b5b602002015160016003811061176557611764612234565b5b6020020151600281111561177c5761177b612205565b5b826000600381106117905761178f612234565b5b60200201516002600381106117a8576117a7612234565b5b602002015160028111156117bf576117be612205565b5b14801561184f5750816002600381106117db576117da612234565b5b60200201516000600381106117f3576117f2612234565b5b6020020151600281111561180a57611809612205565b5b8260016003811061181e5761181d612234565b5b602002015160016003811061183657611835612234565b5b6020020151600281111561184d5761184c612205565b5b145b80156118b057506000600281111561186a57611869612205565b5b8260006003811061187e5761187d612234565b5b602002015160026003811061189657611895612234565b5b602002015160028111156118ad576118ac612205565b5b14155b156118ed57816000600381106118c9576118c8612234565b5b60200201516002600381106118e1576118e0612234565b5b602002015190506118f2565b600090505b919050565b600080600090505b60038160ff1610156119ad5760005b60038160ff161015611999576000600281111561192e5761192d612205565b5b848360ff166003811061194457611943612234565b5b60200201518260ff166003811061195e5761195d612234565b5b6020020151600281111561197557611974612205565b5b1415611986576000925050506119b3565b8080611991906121ac565b91505061190e565b5080806119a5906121ac565b9150506118ff565b50600190505b919050565b6000813590506119c781612376565b92915050565b6000813590506119dc8161238d565b92915050565b6000815190506119f18161238d565b92915050565b600081359050611a06816123a4565b92915050565b600060608284031215611a2257611a21612292565b5b611a2c6060612016565b90506000611a3c848285016119b8565b6000830152506020611a50848285016119b8565b6020830152506040611a6484828501611ad4565b60408301525092915050565b600060608284031215611a8657611a85612292565b5b611a906060612016565b90506000611aa084828501611ae9565b6000830152506020611ab4848285016119cd565b6020830152506040611ac8848285016119cd565b60408301525092915050565b600081359050611ae3816123bb565b92915050565b600081359050611af8816123d2565b92915050565b600060208284031215611b1457611b13612297565b5b6000611b22848285016119b8565b91505092915050565b600060208284031215611b4157611b40612297565b5b6000611b4f848285016119e2565b91505092915050565b600080600060608486031215611b7157611b70612297565b5b6000611b7f868287016119cd565b9350506020611b9086828701611ad4565b9250506040611ba186828701611ad4565b9150509250925092565b600060208284031215611bc157611bc0612297565b5b6000611bcf848285016119f7565b91505092915050565b60008060006101208486031215611bf257611bf1612297565b5b6000611c0086828701611a0c565b9350506060611c1186828701611a70565b92505060c0611c2286828701611a70565b9150509250925092565b611c3581612057565b82525050565b611c4481612057565b82525050565b611c5381612069565b82525050565b611c6281612075565b82525050565b611c7181612075565b82525050565b611c80816120ee565b82525050565b611c8f81612100565b82525050565b611c9e81612112565b82525050565b6000611caf8261203b565b611cb98185612046565b9350611cc9818560208601612148565b611cd28161229c565b840191505092915050565b6000611cea602683612046565b9150611cf5826122ad565b604082019050919050565b6000611d0d601983612046565b9150611d18826122fc565b602082019050919050565b6000611d30602083612046565b9150611d3b82612325565b602082019050919050565b606082016000820151611d5c6000850182611c2c565b506020820151611d6f6020850182611c2c565b506040820151611d826040850182611dca565b50505050565b606082016000820151611d9e6000850182611de8565b506020820151611db16020850182611c59565b506040820151611dc46040850182611c59565b50505050565b611dd3816120d7565b82525050565b611de2816120d7565b82525050565b611df1816120e1565b82525050565b611e00816120e1565b82525050565b6000602082019050611e1b6000830184611c3b565b92915050565b6000604082019050611e366000830185611c4a565b8181036020830152611e488184611ca4565b90509392505050565b6000602082019050611e666000830184611c68565b92915050565b6000604082019050611e816000830185611c68565b611e8e6020830184611c3b565b9392505050565b6000608082019050611eaa6000830187611c68565b611eb76020830186611c3b565b611ec46040830185611dd9565b611ed16060830184611dd9565b95945050505050565b6000606082019050611eef6000830186611c68565b611efc6020830185611c3b565b611f096040830184611df7565b949350505050565b6000604082019050611f266000830185611c68565b611f336020830184611c95565b9392505050565b6000602082019050611f4f6000830184611c77565b92915050565b60006020820190508181036000830152611f6e81611cdd565b9050919050565b60006020820190508181036000830152611f8e81611d00565b9050919050565b60006020820190508181036000830152611fae81611d23565b9050919050565b6000608082019050611fca6000830185611d46565b611fd76060830184611c86565b9392505050565b600061012082019050611ff46000830186611d46565b6120016060830185611d88565b61200e60c0830184611d88565b949350505050565b6000612020612031565b905061202c828261217b565b919050565b6000604051905090565b600081519050919050565b600082825260208201905092915050565b6000612062826120b7565b9050919050565b60008115159050919050565b6000819050919050565b600061208a82612057565b9050919050565b600081905061209f8261234e565b919050565b60008190506120b282612362565b919050565b600073ffffffffffffffffffffffffffffffffffffffff82169050919050565b6000819050919050565b600060ff82169050919050565b60006120f982612124565b9050919050565b600061210b82612091565b9050919050565b600061211d826120a4565b9050919050565b600061212f82612136565b9050919050565b6000612141826120b7565b9050919050565b60005b8381101561216657808201518184015260208101905061214b565b83811115612175576000848401525b50505050565b6121848261229c565b810181811067ffffffffffffffff821117156121a3576121a2612263565b5b80604052505050565b60006121b7826120e1565b915060ff8214156121cb576121ca6121d6565b5b600182019050919050565b7f4e487b7100000000000000000000000000000000000000000000000000000000600052601160045260246000fd5b7f4e487b7100000000000000000000000000000000000000000000000000000000600052602160045260246000fd5b7f4e487b7100000000000000000000000000000000000000000000000000000000600052603260045260246000fd5b7f4e487b7100000000000000000000000000000000000000000000000000000000600052604160045260246000fd5b600080fd5b600080fd5b6000601f19601f8301169050919050565b7f4f776e61626c653a206e6577206f776e657220697320746865207a65726f206160008201527f6464726573730000000000000000000000000000000000000000000000000000602082015250565b7f726174696e672073797374656d206e6f7420646566696e656400000000000000600082015250565b7f4f776e61626c653a2063616c6c6572206973206e6f7420746865206f776e6572600082015250565b6003811061235f5761235e612205565b5b50565b6004811061237357612372612205565b5b50565b61237f81612057565b811461238a57600080fd5b50565b61239681612075565b81146123a157600080fd5b50565b6123ad8161207f565b81146123b857600080fd5b50565b6123c4816120d7565b81146123cf57600080fd5b50565b6123db816120e1565b81146123e657600080fd5b5056fe546865726520697320616c72656164792061206d61726b2061742074686520676976656e20636f6f7264696e617465732ea2646970667358221220f4312d438ee2e85bfa7d0ba9b1865be1d983d849a43bc3e35b3c3c537364e0de64736f6c63430008070033",
			"opcodes": "PUSH1 0x80 PUSH1 0x40 MSTORE CALLVALUE DUP1 ISZERO PUSH2 0x10 JUMPI PUSH1 0x0 DUP1 REVERT JUMPDEST POP PUSH2 0x2D PUSH2 0x22 PUSH2 0x32 PUSH1 0x20 SHL PUSH1 0x20 SHR JUMP JUMPDEST PUSH2 0x3A PUSH1 0x20 SHL PUSH1 0x20 SHR JUMP JUMPDEST PUSH2 0xFE JUMP JUMPDEST PUSH1 0x0 CALLER SWAP1 POP SWAP1 JUMP JUMPDEST PUSH1 0x0 DUP1 PUSH1 0x0 SWAP1 SLOAD SWAP1 PUSH2 0x100 EXP SWAP1 DIV PUSH20 0xFFFFFFFFFFFFFFFFFFFFFFFFFFFFFFFFFFFFFFFF AND SWAP1 POP DUP2 PUSH1 0x0 DUP1 PUSH2 0x100 EXP DUP2 SLOAD DUP2 PUSH20 0xFFFFFFFFFFFFFFFFFFFFFFFFFFFFFFFFFFFFFFFF MUL NOT AND SWAP1 DUP4 PUSH20 0xFFFFFFFFFFFFFFFFFFFFFFFFFFFFFFFFFFFFFFFF AND MUL OR SWAP1 SSTORE POP DUP2 PUSH20 0xFFFFFFFFFFFFFFFFFFFFFFFFFFFFFFFFFFFFFFFF AND DUP2 PUSH20 0xFFFFFFFFFFFFFFFFFFFFFFFFFFFFFFFFFFFFFFFF AND PUSH32 0x8BE0079C531659141344CD1FD0A4F28419497F9722A3DAAFE3B4186F6B6457E0 PUSH1 0x40 MLOAD PUSH1 0x40 MLOAD DUP1 SWAP2 SUB SWAP1 LOG3 POP POP JUMP JUMPDEST PUSH2 0x2450 DUP1 PUSH3 0x10E PUSH1 0x0 CODECOPY PUSH1 0x0 RETURN INVALID PUSH1 0x80 PUSH1 0x40 MSTORE CALLVALUE DUP1 ISZERO PUSH2 0x10 JUMPI PUSH1 0x0 DUP1 REVERT JUMPDEST POP PUSH1 0x4 CALLDATASIZE LT PUSH2 0x7D JUMPI PUSH1 0x0 CALLDATALOAD PUSH1 0xE0 SHR DUP1 PUSH4 0x715018A6 GT PUSH2 0x5B JUMPI DUP1 PUSH4 0x715018A6 EQ PUSH2 0xFF JUMPI DUP1 PUSH4 0x8DA5CB5B EQ PUSH2 0x109 JUMPI DUP1 PUSH4 0xC6AC8A4B EQ PUSH2 0x127 JUMPI DUP1 PUSH4 0xF2FDE38B EQ PUSH2 0x145 JUMPI PUSH2 0x7D JUMP JUMPDEST DUP1 PUSH4 0x4575505F EQ PUSH2 0x82 JUMPI DUP1 PUSH4 0x4B2997E4 EQ PUSH2 0xB3 JUMPI DUP1 PUSH4 0x6A7693DC EQ PUSH2 0xE3 JUMPI JUMPDEST PUSH1 0x0 DUP1 REVERT JUMPDEST PUSH2 0x9C PUSH1 0x4 DUP1 CALLDATASIZE SUB DUP2 ADD SWAP1 PUSH2 0x97 SWAP2 SWAP1 PUSH2 0x1B58 JUMP JUMPDEST PUSH2 0x161 JUMP JUMPDEST PUSH1 0x40 MLOAD PUSH2 0xAA SWAP3 SWAP2 SWAP1 PUSH2 0x1E21 JUMP JUMPDEST PUSH1 0x40 MLOAD DUP1 SWAP2 SUB SWAP1 RETURN JUMPDEST PUSH2 0xCD PUSH1 0x4 DUP1 CALLDATASIZE SUB DUP2 ADD SWAP1 PUSH2 0xC8 SWAP2 SWAP1 PUSH2 0x1BD8 JUMP JUMPDEST PUSH2 0x7E5 JUMP JUMPDEST PUSH1 0x40 MLOAD PUSH2 0xDA SWAP2 SWAP1 PUSH2 0x1E51 JUMP JUMPDEST PUSH1 0x40 MLOAD DUP1 SWAP2 SUB SWAP1 RETURN JUMPDEST PUSH2 0xFD PUSH1 0x4 DUP1 CALLDATASIZE SUB DUP2 ADD SWAP1 PUSH2 0xF8 SWAP2 SWAP1 PUSH2 0x1BAB JUMP JUMPDEST PUSH2 0xB34 JUMP JUMPDEST STOP JUMPDEST PUSH2 0x107 PUSH2 0xBF4 JUMP JUMPDEST STOP JUMPDEST PUSH2 0x111 PUSH2 0xC7C JUMP JUMPDEST PUSH1 0x40 MLOAD PUSH2 0x11E SWAP2 SWAP1 PUSH2 0x1E06 JUMP JUMPDEST PUSH1 0x40 MLOAD DUP1 SWAP2 SUB SWAP1 RETURN JUMPDEST PUSH2 0x12F PUSH2 0xCA5 JUMP JUMPDEST PUSH1 0x40 MLOAD PUSH2 0x13C SWAP2 SWAP1 PUSH2 0x1F3A JUMP JUMPDEST PUSH1 0x40 MLOAD DUP1 SWAP2 SUB SWAP1 RETURN JUMPDEST PUSH2 0x15F PUSH1 0x4 DUP1 CALLDATASIZE SUB DUP2 ADD SWAP1 PUSH2 0x15A SWAP2 SWAP1 PUSH2 0x1AFE JUMP JUMPDEST PUSH2 0xCCB JUMP JUMPDEST STOP JUMPDEST PUSH1 0x0 PUSH1 0x60 PUSH1 0x0 PUSH1 0x1 PUSH1 0x0 DUP8 DUP2 MSTORE PUSH1 0x20 ADD SWAP1 DUP2 MSTORE PUSH1 0x20 ADD PUSH1 0x0 KECCAK256 SWAP1 POP PUSH1 0x0 PUSH20 0xFFFFFFFFFFFFFFFFFFFFFFFFFFFFFFFFFFFFFFFF AND DUP2 PUSH1 0x0 ADD PUSH1 0x0 SWAP1 SLOAD SWAP1 PUSH2 0x100 EXP SWAP1 DIV PUSH20 0xFFFFFFFFFFFFFFFFFFFFFFFFFFFFFFFFFFFFFFFF AND PUSH20 0xFFFFFFFFFFFFFFFFFFFFFFFFFFFFFFFFFFFFFFFF AND EQ DUP1 PUSH2 0x22B JUMPI POP PUSH1 0x0 PUSH20 0xFFFFFFFFFFFFFFFFFFFFFFFFFFFFFFFFFFFFFFFF AND DUP2 PUSH1 0x1 ADD PUSH1 0x0 SWAP1 SLOAD SWAP1 PUSH2 0x100 EXP SWAP1 DIV PUSH20 0xFFFFFFFFFFFFFFFFFFFFFFFFFFFFFFFFFFFFFFFF AND PUSH20 0xFFFFFFFFFFFFFFFFFFFFFFFFFFFFFFFFFFFFFFFF AND EQ JUMPDEST ISZERO PUSH2 0x272 JUMPI PUSH1 0x0 PUSH1 0x40 MLOAD DUP1 PUSH1 0x40 ADD PUSH1 0x40 MSTORE DUP1 PUSH1 0x14 DUP2 MSTORE PUSH1 0x20 ADD PUSH32 0x4E6F20737563682067616D65206578697374732E000000000000000000000000 DUP2 MSTORE POP SWAP3 POP SWAP3 POP POP PUSH2 0x7DD JUMP JUMPDEST PUSH1 0x0 PUSH1 0x3 DUP2 GT ISZERO PUSH2 0x286 JUMPI PUSH2 0x285 PUSH2 0x2205 JUMP JUMPDEST JUMPDEST DUP2 PUSH1 0x3 ADD PUSH1 0x0 SWAP1 SLOAD SWAP1 PUSH2 0x100 EXP SWAP1 DIV PUSH1 0xFF AND PUSH1 0x3 DUP2 GT ISZERO PUSH2 0x2AA JUMPI PUSH2 0x2A9 PUSH2 0x2205 JUMP JUMPDEST JUMPDEST EQ PUSH2 0x2F1 JUMPI PUSH1 0x0 PUSH1 0x40 MLOAD DUP1 PUSH1 0x40 ADD PUSH1 0x40 MSTORE DUP1 PUSH1 0x1B DUP2 MSTORE PUSH1 0x20 ADD PUSH32 0x5468652067616D652068617320616C726561647920656E6465642E0000000000 DUP2 MSTORE POP SWAP3 POP SWAP3 POP POP PUSH2 0x7DD JUMP JUMPDEST PUSH2 0x2FA DUP2 PUSH2 0xDC3 JUMP JUMPDEST PUSH20 0xFFFFFFFFFFFFFFFFFFFFFFFFFFFFFFFFFFFFFFFF AND CALLER PUSH20 0xFFFFFFFFFFFFFFFFFFFFFFFFFFFFFFFFFFFFFFFF AND EQ PUSH2 0x36E JUMPI PUSH1 0x0 PUSH1 0x40 MLOAD DUP1 PUSH1 0x40 ADD PUSH1 0x40 MSTORE DUP1 PUSH1 0x14 DUP2 MSTORE PUSH1 0x20 ADD PUSH32 0x4974206973206E6F7420796F7572207475726E2E000000000000000000000000 DUP2 MSTORE POP SWAP3 POP SWAP3 POP POP PUSH2 0x7DD JUMP JUMPDEST PUSH1 0x0 PUSH1 0x2 DUP2 GT ISZERO PUSH2 0x382 JUMPI PUSH2 0x381 PUSH2 0x2205 JUMP JUMPDEST JUMPDEST DUP2 PUSH1 0x4 ADD DUP7 PUSH1 0x3 DUP2 LT PUSH2 0x398 JUMPI PUSH2 0x397 PUSH2 0x2234 JUMP JUMPDEST JUMPDEST ADD DUP6 PUSH1 0x3 DUP2 LT PUSH2 0x3AB JUMPI PUSH2 0x3AA PUSH2 0x2234 JUMP JUMPDEST JUMPDEST PUSH1 0x20 SWAP2 DUP3 DUP3 DIV ADD SWAP2 SWAP1 MOD SWAP1 SLOAD SWAP1 PUSH2 0x100 EXP SWAP1 DIV PUSH1 0xFF AND PUSH1 0x2 DUP2 GT ISZERO PUSH2 0x3D3 JUMPI PUSH2 0x3D2 PUSH2 0x2205 JUMP JUMPDEST JUMPDEST EQ PUSH2 0x3FD JUMPI PUSH1 0x0 PUSH1 0x40 MLOAD DUP1 PUSH1 0x60 ADD PUSH1 0x40 MSTORE DUP1 PUSH1 0x31 DUP2 MSTORE PUSH1 0x20 ADD PUSH2 0x23EA PUSH1 0x31 SWAP2 CODECOPY SWAP3 POP SWAP3 POP POP PUSH2 0x7DD JUMP JUMPDEST DUP1 PUSH1 0x3 ADD PUSH1 0x1 SWAP1 SLOAD SWAP1 PUSH2 0x100 EXP SWAP1 DIV PUSH1 0xFF AND DUP2 PUSH1 0x4 ADD DUP7 PUSH1 0x3 DUP2 LT PUSH2 0x425 JUMPI PUSH2 0x424 PUSH2 0x2234 JUMP JUMPDEST JUMPDEST ADD DUP6 PUSH1 0x3 DUP2 LT PUSH2 0x438 JUMPI PUSH2 0x437 PUSH2 0x2234 JUMP JUMPDEST JUMPDEST PUSH1 0x20 SWAP2 DUP3 DUP3 DIV ADD SWAP2 SWAP1 MOD PUSH2 0x100 EXP DUP2 SLOAD DUP2 PUSH1 0xFF MUL NOT AND SWAP1 DUP4 PUSH1 0x2 DUP2 GT ISZERO PUSH2 0x462 JUMPI PUSH2 0x461 PUSH2 0x2205 JUMP JUMPDEST JUMPDEST MUL OR SWAP1 SSTORE POP PUSH32 0x1A9C5494DE497E044B49A5151F7F57EF2A19803F580D67F046D170F5FF426DF9 DUP7 CALLER DUP8 DUP8 PUSH1 0x40 MLOAD PUSH2 0x49C SWAP5 SWAP4 SWAP3 SWAP2 SWAP1 PUSH2 0x1E95 JUMP JUMPDEST PUSH1 0x40 MLOAD DUP1 SWAP2 SUB SWAP1 LOG1 PUSH1 0x0 PUSH2 0x558 DUP3 PUSH1 0x4 ADD PUSH1 0x3 DUP1 PUSH1 0x20 MUL PUSH1 0x40 MLOAD SWAP1 DUP2 ADD PUSH1 0x40 MSTORE DUP1 SWAP3 SWAP2 SWAP1 PUSH1 0x0 SWAP1 JUMPDEST DUP3 DUP3 LT ISZERO PUSH2 0x54F JUMPI DUP4 DUP3 ADD PUSH1 0x3 DUP1 PUSH1 0x20 MUL PUSH1 0x40 MLOAD SWAP1 DUP2 ADD PUSH1 0x40 MSTORE DUP1 SWAP3 SWAP2 SWAP1 DUP3 PUSH1 0x3 DUP1 ISZERO PUSH2 0x53B JUMPI PUSH1 0x20 MUL DUP3 ADD SWAP2 PUSH1 0x0 SWAP1 JUMPDEST DUP3 DUP3 SWAP1 SLOAD SWAP1 PUSH2 0x100 EXP SWAP1 DIV PUSH1 0xFF AND PUSH1 0x2 DUP2 GT ISZERO PUSH2 0x515 JUMPI PUSH2 0x514 PUSH2 0x2205 JUMP JUMPDEST JUMPDEST DUP2 MSTORE PUSH1 0x20 ADD SWAP1 PUSH1 0x1 ADD SWAP1 PUSH1 0x20 DUP3 PUSH1 0x0 ADD DIV SWAP3 DUP4 ADD SWAP3 PUSH1 0x1 SUB DUP3 MUL SWAP2 POP DUP1 DUP5 GT PUSH2 0x4F5 JUMPI SWAP1 POP JUMPDEST POP POP POP POP POP DUP2 MSTORE PUSH1 0x20 ADD SWAP1 PUSH1 0x1 ADD SWAP1 PUSH2 0x4C4 JUMP JUMPDEST POP POP POP POP PUSH2 0xEA2 JUMP JUMPDEST SWAP1 POP PUSH1 0x0 PUSH1 0x3 DUP2 GT ISZERO PUSH2 0x56E JUMPI PUSH2 0x56D PUSH2 0x2205 JUMP JUMPDEST JUMPDEST DUP2 PUSH1 0x3 DUP2 GT ISZERO PUSH2 0x581 JUMPI PUSH2 0x580 PUSH2 0x2205 JUMP JUMPDEST JUMPDEST EQ PUSH2 0x7BB JUMPI DUP1 DUP3 PUSH1 0x3 ADD PUSH1 0x0 PUSH2 0x100 EXP DUP2 SLOAD DUP2 PUSH1 0xFF MUL NOT AND SWAP1 DUP4 PUSH1 0x3 DUP2 GT ISZERO PUSH2 0x5AD JUMPI PUSH2 0x5AC PUSH2 0x2205 JUMP JUMPDEST JUMPDEST MUL OR SWAP1 SSTORE POP PUSH32 0xFB27A88C43D827E8C2DA22A89492890F26769316375C930AE774D39567547BB2 DUP8 DUP3 PUSH1 0x40 MLOAD PUSH2 0x5E3 SWAP3 SWAP2 SWAP1 PUSH2 0x1F11 JUMP JUMPDEST PUSH1 0x40 MLOAD DUP1 SWAP2 SUB SWAP1 LOG1 PUSH1 0x0 PUSH1 0x1 PUSH1 0x3 DUP2 GT ISZERO PUSH2 0x601 JUMPI PUSH2 0x600 PUSH2 0x2205 JUMP JUMPDEST JUMPDEST DUP3 PUSH1 0x3 DUP2 GT ISZERO PUSH2 0x614 JUMPI PUSH2 0x613 PUSH2 0x2205 JUMP JUMPDEST JUMPDEST EQ ISZERO PUSH2 0x623 JUMPI PUSH1 0x1 SWAP1 POP PUSH2 0x656 JUMP JUMPDEST PUSH1 0x2 PUSH1 0x3 DUP2 GT ISZERO PUSH2 0x637 JUMPI PUSH2 0x636 PUSH2 0x2205 JUMP JUMPDEST JUMPDEST DUP3 PUSH1 0x3 DUP2 GT ISZERO PUSH2 0x64A JUMPI PUSH2 0x649 PUSH2 0x2205 JUMP JUMPDEST JUMPDEST EQ ISZERO PUSH2 0x655 JUMPI PUSH1 0x2 SWAP1 POP JUMPDEST JUMPDEST PUSH1 0x2 PUSH1 0x0 SWAP1 SLOAD SWAP1 PUSH2 0x100 EXP SWAP1 DIV PUSH20 0xFFFFFFFFFFFFFFFFFFFFFFFFFFFFFFFFFFFFFFFF AND PUSH20 0xFFFFFFFFFFFFFFFFFFFFFFFFFFFFFFFFFFFFFFFF AND PUSH4 0xE7BABD36 PUSH1 0x40 MLOAD DUP1 PUSH1 0x60 ADD PUSH1 0x40 MSTORE DUP1 DUP7 PUSH1 0x0 ADD PUSH1 0x0 SWAP1 SLOAD SWAP1 PUSH2 0x100 EXP SWAP1 DIV PUSH20 0xFFFFFFFFFFFFFFFFFFFFFFFFFFFFFFFFFFFFFFFF AND PUSH20 0xFFFFFFFFFFFFFFFFFFFFFFFFFFFFFFFFFFFFFFFF AND DUP2 MSTORE PUSH1 0x20 ADD DUP7 PUSH1 0x1 ADD PUSH1 0x0 SWAP1 SLOAD SWAP1 PUSH2 0x100 EXP SWAP1 DIV PUSH20 0xFFFFFFFFFFFFFFFFFFFFFFFFFFFFFFFFFFFFFFFF AND PUSH20 0xFFFFFFFFFFFFFFFFFFFFFFFFFFFFFFFFFFFFFFFF AND DUP2 MSTORE PUSH1 0x20 ADD DUP7 PUSH1 0x2 ADD SLOAD DUP2 MSTORE POP DUP4 PUSH1 0x40 MLOAD DUP4 PUSH4 0xFFFFFFFF AND PUSH1 0xE0 SHL DUP2 MSTORE PUSH1 0x4 ADD PUSH2 0x745 SWAP3 SWAP2 SWAP1 PUSH2 0x1FB5 JUMP JUMPDEST PUSH1 0x0 PUSH1 0x40 MLOAD DUP1 DUP4 SUB DUP2 PUSH1 0x0 DUP8 DUP1 EXTCODESIZE ISZERO DUP1 ISZERO PUSH2 0x75F JUMPI PUSH1 0x0 DUP1 REVERT JUMPDEST POP GAS CALL ISZERO DUP1 ISZERO PUSH2 0x773 JUMPI RETURNDATASIZE PUSH1 0x0 DUP1 RETURNDATACOPY RETURNDATASIZE PUSH1 0x0 REVERT JUMPDEST POP POP POP POP PUSH1 0x1 PUSH1 0x40 MLOAD DUP1 PUSH1 0x40 ADD PUSH1 0x40 MSTORE DUP1 PUSH1 0x11 DUP2 MSTORE PUSH1 0x20 ADD PUSH32 0x5468652067616D65206973206F7665722E000000000000000000000000000000 DUP2 MSTORE POP SWAP5 POP SWAP5 POP POP POP POP PUSH2 0x7DD JUMP JUMPDEST PUSH2 0x7C4 DUP3 PUSH2 0x1030 JUMP JUMPDEST PUSH1 0x1 PUSH1 0x40 MLOAD DUP1 PUSH1 0x20 ADD PUSH1 0x40 MSTORE DUP1 PUSH1 0x0 DUP2 MSTORE POP SWAP4 POP SWAP4 POP POP POP JUMPDEST SWAP4 POP SWAP4 SWAP2 POP POP JUMP JUMPDEST PUSH1 0x0 DUP1 PUSH20 0xFFFFFFFFFFFFFFFFFFFFFFFFFFFFFFFFFFFFFFFF AND PUSH1 0x2 PUSH1 0x0 SWAP1 SLOAD SWAP1 PUSH2 0x100 EXP SWAP1 DIV PUSH20 0xFFFFFFFFFFFFFFFFFFFFFFFFFFFFFFFFFFFFFFFF AND PUSH20 0xFFFFFFFFFFFFFFFFFFFFFFFFFFFFFFFFFFFFFFFF AND EQ ISZERO PUSH2 0x878 JUMPI PUSH1 0x40 MLOAD PUSH32 0x8C379A000000000000000000000000000000000000000000000000000000000 DUP2 MSTORE PUSH1 0x4 ADD PUSH2 0x86F SWAP1 PUSH2 0x1F75 JUMP JUMPDEST PUSH1 0x40 MLOAD DUP1 SWAP2 SUB SWAP1 REVERT JUMPDEST PUSH1 0x0 PUSH1 0x2 PUSH1 0x0 SWAP1 SLOAD SWAP1 PUSH2 0x100 EXP SWAP1 DIV PUSH20 0xFFFFFFFFFFFFFFFFFFFFFFFFFFFFFFFFFFFFFFFF AND PUSH20 0xFFFFFFFFFFFFFFFFFFFFFFFFFFFFFFFFFFFFFFFF AND PUSH4 0x4178A052 DUP7 DUP7 DUP7 PUSH1 0x40 MLOAD DUP5 PUSH4 0xFFFFFFFF AND PUSH1 0xE0 SHL DUP2 MSTORE PUSH1 0x4 ADD PUSH2 0x8D9 SWAP4 SWAP3 SWAP2 SWAP1 PUSH2 0x1FDE JUMP JUMPDEST PUSH1 0x20 PUSH1 0x40 MLOAD DUP1 DUP4 SUB DUP2 PUSH1 0x0 DUP8 DUP1 EXTCODESIZE ISZERO DUP1 ISZERO PUSH2 0x8F3 JUMPI PUSH1 0x0 DUP1 REVERT JUMPDEST POP GAS CALL ISZERO DUP1 ISZERO PUSH2 0x907 JUMPI RETURNDATASIZE PUSH1 0x0 DUP1 RETURNDATACOPY RETURNDATASIZE PUSH1 0x0 REVERT JUMPDEST POP POP POP POP PUSH1 0x40 MLOAD RETURNDATASIZE PUSH1 0x1F NOT PUSH1 0x1F DUP3 ADD AND DUP3 ADD DUP1 PUSH1 0x40 MSTORE POP DUP2 ADD SWAP1 PUSH2 0x92B SWAP2 SWAP1 PUSH2 0x1B2B JUMP JUMPDEST SWAP1 POP PUSH1 0x0 PUSH1 0x1 PUSH1 0x0 DUP4 DUP2 MSTORE PUSH1 0x20 ADD SWAP1 DUP2 MSTORE PUSH1 0x20 ADD PUSH1 0x0 KECCAK256 SWAP1 POP PUSH1 0x1 DUP2 PUSH1 0x3 ADD PUSH1 0x1 PUSH2 0x100 EXP DUP2 SLOAD DUP2 PUSH1 0xFF MUL NOT AND SWAP1 DUP4 PUSH1 0x2 DUP2 GT ISZERO PUSH2 0x96C JUMPI PUSH2 0x96B PUSH2 0x2205 JUMP JUMPDEST JUMPDEST MUL OR SWAP1 SSTORE POP DUP6 PUSH1 0x0 ADD MLOAD DUP2 PUSH1 0x0 ADD PUSH1 0x0 PUSH2 0x100 EXP DUP2 SLOAD DUP2 PUSH20 0xFFFFFFFFFFFFFFFFFFFFFFFFFFFFFFFFFFFFFFFF MUL NOT AND SWAP1 DUP4 PUSH20 0xFFFFFFFFFFFFFFFFFFFFFFFFFFFFFFFFFFFFFFFF AND MUL OR SWAP1 SSTORE POP DUP6 PUSH1 0x20 ADD MLOAD DUP2 PUSH1 0x1 ADD PUSH1 0x0 PUSH2 0x100 EXP DUP2 SLOAD DUP2 PUSH20 0xFFFFFFFFFFFFFFFFFFFFFFFFFFFFFFFFFFFFFFFF MUL NOT AND SWAP1 DUP4 PUSH20 0xFFFFFFFFFFFFFFFFFFFFFFFFFFFFFFFFFFFFFFFF AND MUL OR SWAP1 SSTORE POP DUP6 PUSH1 0x40 ADD MLOAD DUP2 PUSH1 0x2 ADD DUP2 SWAP1 SSTORE POP PUSH32 0xDB39B7323105B04A697F43DB521CA7E936B02B98992C04CE3BBFA4A59D789FF6 DUP3 CALLER PUSH1 0x40 MLOAD PUSH2 0xA3D SWAP3 SWAP2 SWAP1 PUSH2 0x1E6C JUMP JUMPDEST PUSH1 0x40 MLOAD DUP1 SWAP2 SUB SWAP1 LOG1 PUSH32 0x9877A890CE7896259FBC155B7972A99FCD1CD86C5482C99B698561C75F5EFC14 DUP3 DUP3 PUSH1 0x0 ADD PUSH1 0x0 SWAP1 SLOAD SWAP1 PUSH2 0x100 EXP SWAP1 DIV PUSH20 0xFFFFFFFFFFFFFFFFFFFFFFFFFFFFFFFFFFFFFFFF AND PUSH1 0x1 PUSH1 0x2 DUP2 GT ISZERO PUSH2 0xAA0 JUMPI PUSH2 0xA9F PUSH2 0x2205 JUMP JUMPDEST JUMPDEST PUSH1 0x40 MLOAD PUSH2 0xAAF SWAP4 SWAP3 SWAP2 SWAP1 PUSH2 0x1EDA JUMP JUMPDEST PUSH1 0x40 MLOAD DUP1 SWAP2 SUB SWAP1 LOG1 PUSH32 0x9877A890CE7896259FBC155B7972A99FCD1CD86C5482C99B698561C75F5EFC14 DUP3 DUP3 PUSH1 0x1 ADD PUSH1 0x0 SWAP1 SLOAD SWAP1 PUSH2 0x100 EXP SWAP1 DIV PUSH20 0xFFFFFFFFFFFFFFFFFFFFFFFFFFFFFFFFFFFFFFFF AND PUSH1 0x2 DUP1 DUP2 GT ISZERO PUSH2 0xB11 JUMPI PUSH2 0xB10 PUSH2 0x2205 JUMP JUMPDEST JUMPDEST PUSH1 0x40 MLOAD PUSH2 0xB20 SWAP4 SWAP3 SWAP2 SWAP1 PUSH2 0x1EDA JUMP JUMPDEST PUSH1 0x40 MLOAD DUP1 SWAP2 SUB SWAP1 LOG1 DUP2 SWAP3 POP POP POP SWAP4 SWAP3 POP POP POP JUMP JUMPDEST PUSH2 0xB3C PUSH2 0x10D1 JUMP JUMPDEST PUSH20 0xFFFFFFFFFFFFFFFFFFFFFFFFFFFFFFFFFFFFFFFF AND PUSH2 0xB5A PUSH2 0xC7C JUMP JUMPDEST PUSH20 0xFFFFFFFFFFFFFFFFFFFFFFFFFFFFFFFFFFFFFFFF AND EQ PUSH2 0xBB0 JUMPI PUSH1 0x40 MLOAD PUSH32 0x8C379A000000000000000000000000000000000000000000000000000000000 DUP2 MSTORE PUSH1 0x4 ADD PUSH2 0xBA7 SWAP1 PUSH2 0x1F95 JUMP JUMPDEST PUSH1 0x40 MLOAD DUP1 SWAP2 SUB SWAP1 REVERT JUMPDEST DUP1 PUSH1 0x2 PUSH1 0x0 PUSH2 0x100 EXP DUP2 SLOAD DUP2 PUSH20 0xFFFFFFFFFFFFFFFFFFFFFFFFFFFFFFFFFFFFFFFF MUL NOT AND SWAP1 DUP4 PUSH20 0xFFFFFFFFFFFFFFFFFFFFFFFFFFFFFFFFFFFFFFFF AND MUL OR SWAP1 SSTORE POP POP JUMP JUMPDEST PUSH2 0xBFC PUSH2 0x10D1 JUMP JUMPDEST PUSH20 0xFFFFFFFFFFFFFFFFFFFFFFFFFFFFFFFFFFFFFFFF AND PUSH2 0xC1A PUSH2 0xC7C JUMP JUMPDEST PUSH20 0xFFFFFFFFFFFFFFFFFFFFFFFFFFFFFFFFFFFFFFFF AND EQ PUSH2 0xC70 JUMPI PUSH1 0x40 MLOAD PUSH32 0x8C379A000000000000000000000000000000000000000000000000000000000 DUP2 MSTORE PUSH1 0x4 ADD PUSH2 0xC67 SWAP1 PUSH2 0x1F95 JUMP JUMPDEST PUSH1 0x40 MLOAD DUP1 SWAP2 SUB SWAP1 REVERT JUMPDEST PUSH2 0xC7A PUSH1 0x0 PUSH2 0x10D9 JUMP JUMPDEST JUMP JUMPDEST PUSH1 0x0 DUP1 PUSH1 0x0 SWAP1 SLOAD SWAP1 PUSH2 0x100 EXP SWAP1 DIV PUSH20 0xFFFFFFFFFFFFFFFFFFFFFFFFFFFFFFFFFFFFFFFF AND SWAP1 POP SWAP1 JUMP JUMPDEST PUSH1 0x2 PUSH1 0x0 SWAP1 SLOAD SWAP1 PUSH2 0x100 EXP SWAP1 DIV PUSH20 0xFFFFFFFFFFFFFFFFFFFFFFFFFFFFFFFFFFFFFFFF AND DUP2 JUMP JUMPDEST PUSH2 0xCD3 PUSH2 0x10D1 JUMP JUMPDEST PUSH20 0xFFFFFFFFFFFFFFFFFFFFFFFFFFFFFFFFFFFFFFFF AND PUSH2 0xCF1 PUSH2 0xC7C JUMP JUMPDEST PUSH20 0xFFFFFFFFFFFFFFFFFFFFFFFFFFFFFFFFFFFFFFFF AND EQ PUSH2 0xD47 JUMPI PUSH1 0x40 MLOAD PUSH32 0x8C379A000000000000000000000000000000000000000000000000000000000 DUP2 MSTORE PUSH1 0x4 ADD PUSH2 0xD3E SWAP1 PUSH2 0x1F95 JUMP JUMPDEST PUSH1 0x40 MLOAD DUP1 SWAP2 SUB SWAP1 REVERT JUMPDEST PUSH1 0x0 PUSH20 0xFFFFFFFFFFFFFFFFFFFFFFFFFFFFFFFFFFFFFFFF AND DUP2 PUSH20 0xFFFFFFFFFFFFFFFFFFFFFFFFFFFFFFFFFFFFFFFF AND EQ ISZERO PUSH2 0xDB7 JUMPI PUSH1 0x40 MLOAD PUSH32 0x8C379A000000000000000000000000000000000000000000000000000000000 DUP2 MSTORE PUSH1 0x4 ADD PUSH2 0xDAE SWAP1 PUSH2 0x1F55 JUMP JUMPDEST PUSH1 0x40 MLOAD DUP1 SWAP2 SUB SWAP1 REVERT JUMPDEST PUSH2 0xDC0 DUP2 PUSH2 0x10D9 JUMP JUMPDEST POP JUMP JUMPDEST PUSH1 0x0 PUSH1 0x1 PUSH1 0x2 DUP2 GT ISZERO PUSH2 0xDD9 JUMPI PUSH2 0xDD8 PUSH2 0x2205 JUMP JUMPDEST JUMPDEST DUP3 PUSH1 0x3 ADD PUSH1 0x1 SWAP1 SLOAD SWAP1 PUSH2 0x100 EXP SWAP1 DIV PUSH1 0xFF AND PUSH1 0x2 DUP2 GT ISZERO PUSH2 0xDFD JUMPI PUSH2 0xDFC PUSH2 0x2205 JUMP JUMPDEST JUMPDEST EQ ISZERO PUSH2 0xE2F JUMPI DUP2 PUSH1 0x0 ADD PUSH1 0x0 SWAP1 SLOAD SWAP1 PUSH2 0x100 EXP SWAP1 DIV PUSH20 0xFFFFFFFFFFFFFFFFFFFFFFFFFFFFFFFFFFFFFFFF AND SWAP1 POP PUSH2 0xE9D JUMP JUMPDEST PUSH1 0x2 DUP1 DUP2 GT ISZERO PUSH2 0xE42 JUMPI PUSH2 0xE41 PUSH2 0x2205 JUMP JUMPDEST JUMPDEST DUP3 PUSH1 0x3 ADD PUSH1 0x1 SWAP1 SLOAD SWAP1 PUSH2 0x100 EXP SWAP1 DIV PUSH1 0xFF AND PUSH1 0x2 DUP2 GT ISZERO PUSH2 0xE66 JUMPI PUSH2 0xE65 PUSH2 0x2205 JUMP JUMPDEST JUMPDEST EQ ISZERO PUSH2 0xE98 JUMPI DUP2 PUSH1 0x1 ADD PUSH1 0x0 SWAP1 SLOAD SWAP1 PUSH2 0x100 EXP SWAP1 DIV PUSH20 0xFFFFFFFFFFFFFFFFFFFFFFFFFFFFFFFFFFFFFFFF AND SWAP1 POP PUSH2 0xE9D JUMP JUMPDEST PUSH1 0x0 SWAP1 POP JUMPDEST SWAP2 SWAP1 POP JUMP JUMPDEST PUSH1 0x0 DUP1 PUSH2 0xEAE DUP4 PUSH2 0x119D JUMP JUMPDEST SWAP1 POP PUSH1 0x1 PUSH1 0x2 DUP2 GT ISZERO PUSH2 0xEC4 JUMPI PUSH2 0xEC3 PUSH2 0x2205 JUMP JUMPDEST JUMPDEST DUP2 PUSH1 0x2 DUP2 GT ISZERO PUSH2 0xED7 JUMPI PUSH2 0xED6 PUSH2 0x2205 JUMP JUMPDEST JUMPDEST EQ ISZERO PUSH2 0xEE7 JUMPI PUSH1 0x1 SWAP2 POP POP PUSH2 0x102B JUMP JUMPDEST PUSH1 0x2 DUP1 DUP2 GT ISZERO PUSH2 0xEFA JUMPI PUSH2 0xEF9 PUSH2 0x2205 JUMP JUMPDEST JUMPDEST DUP2 PUSH1 0x2 DUP2 GT ISZERO PUSH2 0xF0D JUMPI PUSH2 0xF0C PUSH2 0x2205 JUMP JUMPDEST JUMPDEST EQ ISZERO PUSH2 0xF1D JUMPI PUSH1 0x2 SWAP2 POP POP PUSH2 0x102B JUMP JUMPDEST PUSH2 0xF26 DUP4 PUSH2 0x1390 JUMP JUMPDEST SWAP1 POP PUSH1 0x1 PUSH1 0x2 DUP2 GT ISZERO PUSH2 0xF3C JUMPI PUSH2 0xF3B PUSH2 0x2205 JUMP JUMPDEST JUMPDEST DUP2 PUSH1 0x2 DUP2 GT ISZERO PUSH2 0xF4F JUMPI PUSH2 0xF4E PUSH2 0x2205 JUMP JUMPDEST JUMPDEST EQ ISZERO PUSH2 0xF5F JUMPI PUSH1 0x1 SWAP2 POP POP PUSH2 0x102B JUMP JUMPDEST PUSH1 0x2 DUP1 DUP2 GT ISZERO PUSH2 0xF72 JUMPI PUSH2 0xF71 PUSH2 0x2205 JUMP JUMPDEST JUMPDEST DUP2 PUSH1 0x2 DUP2 GT ISZERO PUSH2 0xF85 JUMPI PUSH2 0xF84 PUSH2 0x2205 JUMP JUMPDEST JUMPDEST EQ ISZERO PUSH2 0xF95 JUMPI PUSH1 0x2 SWAP2 POP POP PUSH2 0x102B JUMP JUMPDEST PUSH2 0xF9E DUP4 PUSH2 0x1583 JUMP JUMPDEST SWAP1 POP PUSH1 0x1 PUSH1 0x2 DUP2 GT ISZERO PUSH2 0xFB4 JUMPI PUSH2 0xFB3 PUSH2 0x2205 JUMP JUMPDEST JUMPDEST DUP2 PUSH1 0x2 DUP2 GT ISZERO PUSH2 0xFC7 JUMPI PUSH2 0xFC6 PUSH2 0x2205 JUMP JUMPDEST JUMPDEST EQ ISZERO PUSH2 0xFD7 JUMPI PUSH1 0x1 SWAP2 POP POP PUSH2 0x102B JUMP JUMPDEST PUSH1 0x2 DUP1 DUP2 GT ISZERO PUSH2 0xFEA JUMPI PUSH2 0xFE9 PUSH2 0x2205 JUMP JUMPDEST JUMPDEST DUP2 PUSH1 0x2 DUP2 GT ISZERO PUSH2 0xFFD JUMPI PUSH2 0xFFC PUSH2 0x2205 JUMP JUMPDEST JUMPDEST EQ ISZERO PUSH2 0x100D JUMPI PUSH1 0x2 SWAP2 POP POP PUSH2 0x102B JUMP JUMPDEST PUSH2 0x1016 DUP4 PUSH2 0x18F7 JUMP JUMPDEST ISZERO PUSH2 0x1025 JUMPI PUSH1 0x3 SWAP2 POP POP PUSH2 0x102B JUMP JUMPDEST PUSH1 0x0 SWAP2 POP POP JUMPDEST SWAP2 SWAP1 POP JUMP JUMPDEST PUSH1 0x1 PUSH1 0x2 DUP2 GT ISZERO PUSH2 0x1044 JUMPI PUSH2 0x1043 PUSH2 0x2205 JUMP JUMPDEST JUMPDEST DUP2 PUSH1 0x3 ADD PUSH1 0x1 SWAP1 SLOAD SWAP1 PUSH2 0x100 EXP SWAP1 DIV PUSH1 0xFF AND PUSH1 0x2 DUP2 GT ISZERO PUSH2 0x1068 JUMPI PUSH2 0x1067 PUSH2 0x2205 JUMP JUMPDEST JUMPDEST EQ ISZERO PUSH2 0x10A0 JUMPI PUSH1 0x2 DUP2 PUSH1 0x3 ADD PUSH1 0x1 PUSH2 0x100 EXP DUP2 SLOAD DUP2 PUSH1 0xFF MUL NOT AND SWAP1 DUP4 PUSH1 0x2 DUP2 GT ISZERO PUSH2 0x1096 JUMPI PUSH2 0x1095 PUSH2 0x2205 JUMP JUMPDEST JUMPDEST MUL OR SWAP1 SSTORE POP PUSH2 0x10CE JUMP JUMPDEST PUSH1 0x1 DUP2 PUSH1 0x3 ADD PUSH1 0x1 PUSH2 0x100 EXP DUP2 SLOAD DUP2 PUSH1 0xFF MUL NOT AND SWAP1 DUP4 PUSH1 0x2 DUP2 GT ISZERO PUSH2 0x10C8 JUMPI PUSH2 0x10C7 PUSH2 0x2205 JUMP JUMPDEST JUMPDEST MUL OR SWAP1 SSTORE POP JUMPDEST POP JUMP JUMPDEST PUSH1 0x0 CALLER SWAP1 POP SWAP1 JUMP JUMPDEST PUSH1 0x0 DUP1 PUSH1 0x0 SWAP1 SLOAD SWAP1 PUSH2 0x100 EXP SWAP1 DIV PUSH20 0xFFFFFFFFFFFFFFFFFFFFFFFFFFFFFFFFFFFFFFFF AND SWAP1 POP DUP2 PUSH1 0x0 DUP1 PUSH2 0x100 EXP DUP2 SLOAD DUP2 PUSH20 0xFFFFFFFFFFFFFFFFFFFFFFFFFFFFFFFFFFFFFFFF MUL NOT AND SWAP1 DUP4 PUSH20 0xFFFFFFFFFFFFFFFFFFFFFFFFFFFFFFFFFFFFFFFF AND MUL OR SWAP1 SSTORE POP DUP2 PUSH20 0xFFFFFFFFFFFFFFFFFFFFFFFFFFFFFFFFFFFFFFFF AND DUP2 PUSH20 0xFFFFFFFFFFFFFFFFFFFFFFFFFFFFFFFFFFFFFFFF AND PUSH32 0x8BE0079C531659141344CD1FD0A4F28419497F9722A3DAAFE3B4186F6B6457E0 PUSH1 0x40 MLOAD PUSH1 0x40 MLOAD DUP1 SWAP2 SUB SWAP1 LOG3 POP POP JUMP JUMPDEST PUSH1 0x0 DUP1 PUSH1 0x0 SWAP1 POP JUMPDEST PUSH1 0x3 DUP2 PUSH1 0xFF AND LT ISZERO PUSH2 0x1385 JUMPI DUP3 DUP2 PUSH1 0xFF AND PUSH1 0x3 DUP2 LT PUSH2 0x11C7 JUMPI PUSH2 0x11C6 PUSH2 0x2234 JUMP JUMPDEST JUMPDEST PUSH1 0x20 MUL ADD MLOAD PUSH1 0x1 PUSH1 0x3 DUP2 LT PUSH2 0x11DF JUMPI PUSH2 0x11DE PUSH2 0x2234 JUMP JUMPDEST JUMPDEST PUSH1 0x20 MUL ADD MLOAD PUSH1 0x2 DUP2 GT ISZERO PUSH2 0x11F6 JUMPI PUSH2 0x11F5 PUSH2 0x2205 JUMP JUMPDEST JUMPDEST DUP4 DUP3 PUSH1 0xFF AND PUSH1 0x3 DUP2 LT PUSH2 0x120C JUMPI PUSH2 0x120B PUSH2 0x2234 JUMP JUMPDEST JUMPDEST PUSH1 0x20 MUL ADD MLOAD PUSH1 0x0 PUSH1 0x3 DUP2 LT PUSH2 0x1224 JUMPI PUSH2 0x1223 PUSH2 0x2234 JUMP JUMPDEST JUMPDEST PUSH1 0x20 MUL ADD MLOAD PUSH1 0x2 DUP2 GT ISZERO PUSH2 0x123B JUMPI PUSH2 0x123A PUSH2 0x2205 JUMP JUMPDEST JUMPDEST EQ DUP1 ISZERO PUSH2 0x12CF JUMPI POP DUP3 DUP2 PUSH1 0xFF AND PUSH1 0x3 DUP2 LT PUSH2 0x1259 JUMPI PUSH2 0x1258 PUSH2 0x2234 JUMP JUMPDEST JUMPDEST PUSH1 0x20 MUL ADD MLOAD PUSH1 0x2 PUSH1 0x3 DUP2 LT PUSH2 0x1271 JUMPI PUSH2 0x1270 PUSH2 0x2234 JUMP JUMPDEST JUMPDEST PUSH1 0x20 MUL ADD MLOAD PUSH1 0x2 DUP2 GT ISZERO PUSH2 0x1288 JUMPI PUSH2 0x1287 PUSH2 0x2205 JUMP JUMPDEST JUMPDEST DUP4 DUP3 PUSH1 0xFF AND PUSH1 0x3 DUP2 LT PUSH2 0x129E JUMPI PUSH2 0x129D PUSH2 0x2234 JUMP JUMPDEST JUMPDEST PUSH1 0x20 MUL ADD MLOAD PUSH1 0x1 PUSH1 0x3 DUP2 LT PUSH2 0x12B6 JUMPI PUSH2 0x12B5 PUSH2 0x2234 JUMP JUMPDEST JUMPDEST PUSH1 0x20 MUL ADD MLOAD PUSH1 0x2 DUP2 GT ISZERO PUSH2 0x12CD JUMPI PUSH2 0x12CC PUSH2 0x2205 JUMP JUMPDEST JUMPDEST EQ JUMPDEST DUP1 ISZERO PUSH2 0x1332 JUMPI POP PUSH1 0x0 PUSH1 0x2 DUP2 GT ISZERO PUSH2 0x12EA JUMPI PUSH2 0x12E9 PUSH2 0x2205 JUMP JUMPDEST JUMPDEST DUP4 DUP3 PUSH1 0xFF AND PUSH1 0x3 DUP2 LT PUSH2 0x1300 JUMPI PUSH2 0x12FF PUSH2 0x2234 JUMP JUMPDEST JUMPDEST PUSH1 0x20 MUL ADD MLOAD PUSH1 0x0 PUSH1 0x3 DUP2 LT PUSH2 0x1318 JUMPI PUSH2 0x1317 PUSH2 0x2234 JUMP JUMPDEST JUMPDEST PUSH1 0x20 MUL ADD MLOAD PUSH1 0x2 DUP2 GT ISZERO PUSH2 0x132F JUMPI PUSH2 0x132E PUSH2 0x2205 JUMP JUMPDEST JUMPDEST EQ ISZERO JUMPDEST ISZERO PUSH2 0x1372 JUMPI DUP3 DUP2 PUSH1 0xFF AND PUSH1 0x3 DUP2 LT PUSH2 0x134D JUMPI PUSH2 0x134C PUSH2 0x2234 JUMP JUMPDEST JUMPDEST PUSH1 0x20 MUL ADD MLOAD PUSH1 0x0 PUSH1 0x3 DUP2 LT PUSH2 0x1365 JUMPI PUSH2 0x1364 PUSH2 0x2234 JUMP JUMPDEST JUMPDEST PUSH1 0x20 MUL ADD MLOAD SWAP2 POP POP PUSH2 0x138B JUMP JUMPDEST DUP1 DUP1 PUSH2 0x137D SWAP1 PUSH2 0x21AC JUMP JUMPDEST SWAP2 POP POP PUSH2 0x11A5 JUMP JUMPDEST POP PUSH1 0x0 SWAP1 POP JUMPDEST SWAP2 SWAP1 POP JUMP JUMPDEST PUSH1 0x0 DUP1 PUSH1 0x0 SWAP1 POP JUMPDEST PUSH1 0x3 DUP2 PUSH1 0xFF AND LT ISZERO PUSH2 0x1578 JUMPI DUP3 PUSH1 0x1 PUSH1 0x3 DUP2 LT PUSH2 0x13B8 JUMPI PUSH2 0x13B7 PUSH2 0x2234 JUMP JUMPDEST JUMPDEST PUSH1 0x20 MUL ADD MLOAD DUP2 PUSH1 0xFF AND PUSH1 0x3 DUP2 LT PUSH2 0x13D2 JUMPI PUSH2 0x13D1 PUSH2 0x2234 JUMP JUMPDEST JUMPDEST PUSH1 0x20 MUL ADD MLOAD PUSH1 0x2 DUP2 GT ISZERO PUSH2 0x13E9 JUMPI PUSH2 0x13E8 PUSH2 0x2205 JUMP JUMPDEST JUMPDEST DUP4 PUSH1 0x0 PUSH1 0x3 DUP2 LT PUSH2 0x13FD JUMPI PUSH2 0x13FC PUSH2 0x2234 JUMP JUMPDEST JUMPDEST PUSH1 0x20 MUL ADD MLOAD DUP3 PUSH1 0xFF AND PUSH1 0x3 DUP2 LT PUSH2 0x1417 JUMPI PUSH2 0x1416 PUSH2 0x2234 JUMP JUMPDEST JUMPDEST PUSH1 0x20 MUL ADD MLOAD PUSH1 0x2 DUP2 GT ISZERO PUSH2 0x142E JUMPI PUSH2 0x142D PUSH2 0x2205 JUMP JUMPDEST JUMPDEST EQ DUP1 ISZERO PUSH2 0x14C2 JUMPI POP DUP3 PUSH1 0x2 PUSH1 0x3 DUP2 LT PUSH2 0x144A JUMPI PUSH2 0x1449 PUSH2 0x2234 JUMP JUMPDEST JUMPDEST PUSH1 0x20 MUL ADD MLOAD DUP2 PUSH1 0xFF AND PUSH1 0x3 DUP2 LT PUSH2 0x1464 JUMPI PUSH2 0x1463 PUSH2 0x2234 JUMP JUMPDEST JUMPDEST PUSH1 0x20 MUL ADD MLOAD PUSH1 0x2 DUP2 GT ISZERO PUSH2 0x147B JUMPI PUSH2 0x147A PUSH2 0x2205 JUMP JUMPDEST JUMPDEST DUP4 PUSH1 0x1 PUSH1 0x3 DUP2 LT PUSH2 0x148F JUMPI PUSH2 0x148E PUSH2 0x2234 JUMP JUMPDEST JUMPDEST PUSH1 0x20 MUL ADD MLOAD DUP3 PUSH1 0xFF AND PUSH1 0x3 DUP2 LT PUSH2 0x14A9 JUMPI PUSH2 0x14A8 PUSH2 0x2234 JUMP JUMPDEST JUMPDEST PUSH1 0x20 MUL ADD MLOAD PUSH1 0x2 DUP2 GT ISZERO PUSH2 0x14C0 JUMPI PUSH2 0x14BF PUSH2 0x2205 JUMP JUMPDEST JUMPDEST EQ JUMPDEST DUP1 ISZERO PUSH2 0x1525 JUMPI POP PUSH1 0x0 PUSH1 0x2 DUP2 GT ISZERO PUSH2 0x14DD JUMPI PUSH2 0x14DC PUSH2 0x2205 JUMP JUMPDEST JUMPDEST DUP4 PUSH1 0x0 PUSH1 0x3 DUP2 LT PUSH2 0x14F1 JUMPI PUSH2 0x14F0 PUSH2 0x2234 JUMP JUMPDEST JUMPDEST PUSH1 0x20 MUL ADD MLOAD DUP3 PUSH1 0xFF AND PUSH1 0x3 DUP2 LT PUSH2 0x150B JUMPI PUSH2 0x150A PUSH2 0x2234 JUMP JUMPDEST JUMPDEST PUSH1 0x20 MUL ADD MLOAD PUSH1 0x2 DUP2 GT ISZERO PUSH2 0x1522 JUMPI PUSH2 0x1521 PUSH2 0x2205 JUMP JUMPDEST JUMPDEST EQ ISZERO JUMPDEST ISZERO PUSH2 0x1565 JUMPI DUP3 PUSH1 0x0 PUSH1 0x3 DUP2 LT PUSH2 0x153E JUMPI PUSH2 0x153D PUSH2 0x2234 JUMP JUMPDEST JUMPDEST PUSH1 0x20 MUL ADD MLOAD DUP2 PUSH1 0xFF AND PUSH1 0x3 DUP2 LT PUSH2 0x1558 JUMPI PUSH2 0x1557 PUSH2 0x2234 JUMP JUMPDEST JUMPDEST PUSH1 0x20 MUL ADD MLOAD SWAP2 POP POP PUSH2 0x157E JUMP JUMPDEST DUP1 DUP1 PUSH2 0x1570 SWAP1 PUSH2 0x21AC JUMP JUMPDEST SWAP2 POP POP PUSH2 0x1398 JUMP JUMPDEST POP PUSH1 0x0 SWAP1 POP JUMPDEST SWAP2 SWAP1 POP JUMP JUMPDEST PUSH1 0x0 DUP2 PUSH1 0x1 PUSH1 0x3 DUP2 LT PUSH2 0x1599 JUMPI PUSH2 0x1598 PUSH2 0x2234 JUMP JUMPDEST JUMPDEST PUSH1 0x20 MUL ADD MLOAD PUSH1 0x1 PUSH1 0x3 DUP2 LT PUSH2 0x15B1 JUMPI PUSH2 0x15B0 PUSH2 0x2234 JUMP JUMPDEST JUMPDEST PUSH1 0x20 MUL ADD MLOAD PUSH1 0x2 DUP2 GT ISZERO PUSH2 0x15C8 JUMPI PUSH2 0x15C7 PUSH2 0x2205 JUMP JUMPDEST JUMPDEST DUP3 PUSH1 0x0 PUSH1 0x3 DUP2 LT PUSH2 0x15DC JUMPI PUSH2 0x15DB PUSH2 0x2234 JUMP JUMPDEST JUMPDEST PUSH1 0x20 MUL ADD MLOAD PUSH1 0x0 PUSH1 0x3 DUP2 LT PUSH2 0x15F4 JUMPI PUSH2 0x15F3 PUSH2 0x2234 JUMP JUMPDEST JUMPDEST PUSH1 0x20 MUL ADD MLOAD PUSH1 0x2 DUP2 GT ISZERO PUSH2 0x160B JUMPI PUSH2 0x160A PUSH2 0x2205 JUMP JUMPDEST JUMPDEST EQ DUP1 ISZERO PUSH2 0x169B JUMPI POP DUP2 PUSH1 0x2 PUSH1 0x3 DUP2 LT PUSH2 0x1627 JUMPI PUSH2 0x1626 PUSH2 0x2234 JUMP JUMPDEST JUMPDEST PUSH1 0x20 MUL ADD MLOAD PUSH1 0x2 PUSH1 0x3 DUP2 LT PUSH2 0x163F JUMPI PUSH2 0x163E PUSH2 0x2234 JUMP JUMPDEST JUMPDEST PUSH1 0x20 MUL ADD MLOAD PUSH1 0x2 DUP2 GT ISZERO PUSH2 0x1656 JUMPI PUSH2 0x1655 PUSH2 0x2205 JUMP JUMPDEST JUMPDEST DUP3 PUSH1 0x1 PUSH1 0x3 DUP2 LT PUSH2 0x166A JUMPI PUSH2 0x1669 PUSH2 0x2234 JUMP JUMPDEST JUMPDEST PUSH1 0x20 MUL ADD MLOAD PUSH1 0x1 PUSH1 0x3 DUP2 LT PUSH2 0x1682 JUMPI PUSH2 0x1681 PUSH2 0x2234 JUMP JUMPDEST JUMPDEST PUSH1 0x20 MUL ADD MLOAD PUSH1 0x2 DUP2 GT ISZERO PUSH2 0x1699 JUMPI PUSH2 0x1698 PUSH2 0x2205 JUMP JUMPDEST JUMPDEST EQ JUMPDEST DUP1 ISZERO PUSH2 0x16FC JUMPI POP PUSH1 0x0 PUSH1 0x2 DUP2 GT ISZERO PUSH2 0x16B6 JUMPI PUSH2 0x16B5 PUSH2 0x2205 JUMP JUMPDEST JUMPDEST DUP3 PUSH1 0x0 PUSH1 0x3 DUP2 LT PUSH2 0x16CA JUMPI PUSH2 0x16C9 PUSH2 0x2234 JUMP JUMPDEST JUMPDEST PUSH1 0x20 MUL ADD MLOAD PUSH1 0x0 PUSH1 0x3 DUP2 LT PUSH2 0x16E2 JUMPI PUSH2 0x16E1 PUSH2 0x2234 JUMP JUMPDEST JUMPDEST PUSH1 0x20 MUL ADD MLOAD PUSH1 0x2 DUP2 GT ISZERO PUSH2 0x16F9 JUMPI PUSH2 0x16F8 PUSH2 0x2205 JUMP JUMPDEST JUMPDEST EQ ISZERO JUMPDEST ISZERO PUSH2 0x1739 JUMPI DUP2 PUSH1 0x0 PUSH1 0x3 DUP2 LT PUSH2 0x1715 JUMPI PUSH2 0x1714 PUSH2 0x2234 JUMP JUMPDEST JUMPDEST PUSH1 0x20 MUL ADD MLOAD PUSH1 0x0 PUSH1 0x3 DUP2 LT PUSH2 0x172D JUMPI PUSH2 0x172C PUSH2 0x2234 JUMP JUMPDEST JUMPDEST PUSH1 0x20 MUL ADD MLOAD SWAP1 POP PUSH2 0x18F2 JUMP JUMPDEST DUP2 PUSH1 0x1 PUSH1 0x3 DUP2 LT PUSH2 0x174D JUMPI PUSH2 0x174C PUSH2 0x2234 JUMP JUMPDEST JUMPDEST PUSH1 0x20 MUL ADD MLOAD PUSH1 0x1 PUSH1 0x3 DUP2 LT PUSH2 0x1765 JUMPI PUSH2 0x1764 PUSH2 0x2234 JUMP JUMPDEST JUMPDEST PUSH1 0x20 MUL ADD MLOAD PUSH1 0x2 DUP2 GT ISZERO PUSH2 0x177C JUMPI PUSH2 0x177B PUSH2 0x2205 JUMP JUMPDEST JUMPDEST DUP3 PUSH1 0x0 PUSH1 0x3 DUP2 LT PUSH2 0x1790 JUMPI PUSH2 0x178F PUSH2 0x2234 JUMP JUMPDEST JUMPDEST PUSH1 0x20 MUL ADD MLOAD PUSH1 0x2 PUSH1 0x3 DUP2 LT PUSH2 0x17A8 JUMPI PUSH2 0x17A7 PUSH2 0x2234 JUMP JUMPDEST JUMPDEST PUSH1 0x20 MUL ADD MLOAD PUSH1 0x2 DUP2 GT ISZERO PUSH2 0x17BF JUMPI PUSH2 0x17BE PUSH2 0x2205 JUMP JUMPDEST JUMPDEST EQ DUP1 ISZERO PUSH2 0x184F JUMPI POP DUP2 PUSH1 0x2 PUSH1 0x3 DUP2 LT PUSH2 0x17DB JUMPI PUSH2 0x17DA PUSH2 0x2234 JUMP JUMPDEST JUMPDEST PUSH1 0x20 MUL ADD MLOAD PUSH1 0x0 PUSH1 0x3 DUP2 LT PUSH2 0x17F3 JUMPI PUSH2 0x17F2 PUSH2 0x2234 JUMP JUMPDEST JUMPDEST PUSH1 0x20 MUL ADD MLOAD PUSH1 0x2 DUP2 GT ISZERO PUSH2 0x180A JUMPI PUSH2 0x1809 PUSH2 0x2205 JUMP JUMPDEST JUMPDEST DUP3 PUSH1 0x1 PUSH1 0x3 DUP2 LT PUSH2 0x181E JUMPI PUSH2 0x181D PUSH2 0x2234 JUMP JUMPDEST JUMPDEST PUSH1 0x20 MUL ADD MLOAD PUSH1 0x1 PUSH1 0x3 DUP2 LT PUSH2 0x1836 JUMPI PUSH2 0x1835 PUSH2 0x2234 JUMP JUMPDEST JUMPDEST PUSH1 0x20 MUL ADD MLOAD PUSH1 0x2 DUP2 GT ISZERO PUSH2 0x184D JUMPI PUSH2 0x184C PUSH2 0x2205 JUMP JUMPDEST JUMPDEST EQ JUMPDEST DUP1 ISZERO PUSH2 0x18B0 JUMPI POP PUSH1 0x0 PUSH1 0x2 DUP2 GT ISZERO PUSH2 0x186A JUMPI PUSH2 0x1869 PUSH2 0x2205 JUMP JUMPDEST JUMPDEST DUP3 PUSH1 0x0 PUSH1 0x3 DUP2 LT PUSH2 0x187E JUMPI PUSH2 0x187D PUSH2 0x2234 JUMP JUMPDEST JUMPDEST PUSH1 0x20 MUL ADD MLOAD PUSH1 0x2 PUSH1 0x3 DUP2 LT PUSH2 0x1896 JUMPI PUSH2 0x1895 PUSH2 0x2234 JUMP JUMPDEST JUMPDEST PUSH1 0x20 MUL ADD MLOAD PUSH1 0x2 DUP2 GT ISZERO PUSH2 0x18AD JUMPI PUSH2 0x18AC PUSH2 0x2205 JUMP JUMPDEST JUMPDEST EQ ISZERO JUMPDEST ISZERO PUSH2 0x18ED JUMPI DUP2 PUSH1 0x0 PUSH1 0x3 DUP2 LT PUSH2 0x18C9 JUMPI PUSH2 0x18C8 PUSH2 0x2234 JUMP JUMPDEST JUMPDEST PUSH1 0x20 MUL ADD MLOAD PUSH1 0x2 PUSH1 0x3 DUP2 LT PUSH2 0x18E1 JUMPI PUSH2 0x18E0 PUSH2 0x2234 JUMP JUMPDEST JUMPDEST PUSH1 0x20 MUL ADD MLOAD SWAP1 POP PUSH2 0x18F2 JUMP JUMPDEST PUSH1 0x0 SWAP1 POP JUMPDEST SWAP2 SWAP1 POP JUMP JUMPDEST PUSH1 0x0 DUP1 PUSH1 0x0 SWAP1 POP JUMPDEST PUSH1 0x3 DUP2 PUSH1 0xFF AND LT ISZERO PUSH2 0x19AD JUMPI PUSH1 0x0 JUMPDEST PUSH1 0x3 DUP2 PUSH1 0xFF AND LT ISZERO PUSH2 0x1999 JUMPI PUSH1 0x0 PUSH1 0x2 DUP2 GT ISZERO PUSH2 0x192E JUMPI PUSH2 0x192D PUSH2 0x2205 JUMP JUMPDEST JUMPDEST DUP5 DUP4 PUSH1 0xFF AND PUSH1 0x3 DUP2 LT PUSH2 0x1944 JUMPI PUSH2 0x1943 PUSH2 0x2234 JUMP JUMPDEST JUMPDEST PUSH1 0x20 MUL ADD MLOAD DUP3 PUSH1 0xFF AND PUSH1 0x3 DUP2 LT PUSH2 0x195E JUMPI PUSH2 0x195D PUSH2 0x2234 JUMP JUMPDEST JUMPDEST PUSH1 0x20 MUL ADD MLOAD PUSH1 0x2 DUP2 GT ISZERO PUSH2 0x1975 JUMPI PUSH2 0x1974 PUSH2 0x2205 JUMP JUMPDEST JUMPDEST EQ ISZERO PUSH2 0x1986 JUMPI PUSH1 0x0 SWAP3 POP POP POP PUSH2 0x19B3 JUMP JUMPDEST DUP1 DUP1 PUSH2 0x1991 SWAP1 PUSH2 0x21AC JUMP JUMPDEST SWAP2 POP POP PUSH2 0x190E JUMP JUMPDEST POP DUP1 DUP1 PUSH2 0x19A5 SWAP1 PUSH2 0x21AC JUMP JUMPDEST SWAP2 POP POP PUSH2 0x18FF JUMP JUMPDEST POP PUSH1 0x1 SWAP1 POP JUMPDEST SWAP2 SWAP1 POP JUMP JUMPDEST PUSH1 0x0 DUP2 CALLDATALOAD SWAP1 POP PUSH2 0x19C7 DUP2 PUSH2 0x2376 JUMP JUMPDEST SWAP3 SWAP2 POP POP JUMP JUMPDEST PUSH1 0x0 DUP2 CALLDATALOAD SWAP1 POP PUSH2 0x19DC DUP2 PUSH2 0x238D JUMP JUMPDEST SWAP3 SWAP2 POP POP JUMP JUMPDEST PUSH1 0x0 DUP2 MLOAD SWAP1 POP PUSH2 0x19F1 DUP2 PUSH2 0x238D JUMP JUMPDEST SWAP3 SWAP2 POP POP JUMP JUMPDEST PUSH1 0x0 DUP2 CALLDATALOAD SWAP1 POP PUSH2 0x1A06 DUP2 PUSH2 0x23A4 JUMP JUMPDEST SWAP3 SWAP2 POP POP JUMP JUMPDEST PUSH1 0x0 PUSH1 0x60 DUP3 DUP5 SUB SLT ISZERO PUSH2 0x1A22 JUMPI PUSH2 0x1A21 PUSH2 0x2292 JUMP JUMPDEST JUMPDEST PUSH2 0x1A2C PUSH1 0x60 PUSH2 0x2016 JUMP JUMPDEST SWAP1 POP PUSH1 0x0 PUSH2 0x1A3C DUP5 DUP3 DUP6 ADD PUSH2 0x19B8 JUMP JUMPDEST PUSH1 0x0 DUP4 ADD MSTORE POP PUSH1 0x20 PUSH2 0x1A50 DUP5 DUP3 DUP6 ADD PUSH2 0x19B8 JUMP JUMPDEST PUSH1 0x20 DUP4 ADD MSTORE POP PUSH1 0x40 PUSH2 0x1A64 DUP5 DUP3 DUP6 ADD PUSH2 0x1AD4 JUMP JUMPDEST PUSH1 0x40 DUP4 ADD MSTORE POP SWAP3 SWAP2 POP POP JUMP JUMPDEST PUSH1 0x0 PUSH1 0x60 DUP3 DUP5 SUB SLT ISZERO PUSH2 0x1A86 JUMPI PUSH2 0x1A85 PUSH2 0x2292 JUMP JUMPDEST JUMPDEST PUSH2 0x1A90 PUSH1 0x60 PUSH2 0x2016 JUMP JUMPDEST SWAP1 POP PUSH1 0x0 PUSH2 0x1AA0 DUP5 DUP3 DUP6 ADD PUSH2 0x1AE9 JUMP JUMPDEST PUSH1 0x0 DUP4 ADD MSTORE POP PUSH1 0x20 PUSH2 0x1AB4 DUP5 DUP3 DUP6 ADD PUSH2 0x19CD JUMP JUMPDEST PUSH1 0x20 DUP4 ADD MSTORE POP PUSH1 0x40 PUSH2 0x1AC8 DUP5 DUP3 DUP6 ADD PUSH2 0x19CD JUMP JUMPDEST PUSH1 0x40 DUP4 ADD MSTORE POP SWAP3 SWAP2 POP POP JUMP JUMPDEST PUSH1 0x0 DUP2 CALLDATALOAD SWAP1 POP PUSH2 0x1AE3 DUP2 PUSH2 0x23BB JUMP JUMPDEST SWAP3 SWAP2 POP POP JUMP JUMPDEST PUSH1 0x0 DUP2 CALLDATALOAD SWAP1 POP PUSH2 0x1AF8 DUP2 PUSH2 0x23D2 JUMP JUMPDEST SWAP3 SWAP2 POP POP JUMP JUMPDEST PUSH1 0x0 PUSH1 0x20 DUP3 DUP5 SUB SLT ISZERO PUSH2 0x1B14 JUMPI PUSH2 0x1B13 PUSH2 0x2297 JUMP JUMPDEST JUMPDEST PUSH1 0x0 PUSH2 0x1B22 DUP5 DUP3 DUP6 ADD PUSH2 0x19B8 JUMP JUMPDEST SWAP2 POP POP SWAP3 SWAP2 POP POP JUMP JUMPDEST PUSH1 0x0 PUSH1 0x20 DUP3 DUP5 SUB SLT ISZERO PUSH2 0x1B41 JUMPI PUSH2 0x1B40 PUSH2 0x2297 JUMP JUMPDEST JUMPDEST PUSH1 0x0 PUSH2 0x1B4F DUP5 DUP3 DUP6 ADD PUSH2 0x19E2 JUMP JUMPDEST SWAP2 POP POP SWAP3 SWAP2 POP POP JUMP JUMPDEST PUSH1 0x0 DUP1 PUSH1 0x0 PUSH1 0x60 DUP5 DUP7 SUB SLT ISZERO PUSH2 0x1B71 JUMPI PUSH2 0x1B70 PUSH2 0x2297 JUMP JUMPDEST JUMPDEST PUSH1 0x0 PUSH2 0x1B7F DUP7 DUP3 DUP8 ADD PUSH2 0x19CD JUMP JUMPDEST SWAP4 POP POP PUSH1 0x20 PUSH2 0x1B90 DUP7 DUP3 DUP8 ADD PUSH2 0x1AD4 JUMP JUMPDEST SWAP3 POP POP PUSH1 0x40 PUSH2 0x1BA1 DUP7 DUP3 DUP8 ADD PUSH2 0x1AD4 JUMP JUMPDEST SWAP2 POP POP SWAP3 POP SWAP3 POP SWAP3 JUMP JUMPDEST PUSH1 0x0 PUSH1 0x20 DUP3 DUP5 SUB SLT ISZERO PUSH2 0x1BC1 JUMPI PUSH2 0x1BC0 PUSH2 0x2297 JUMP JUMPDEST JUMPDEST PUSH1 0x0 PUSH2 0x1BCF DUP5 DUP3 DUP6 ADD PUSH2 0x19F7 JUMP JUMPDEST SWAP2 POP POP SWAP3 SWAP2 POP POP JUMP JUMPDEST PUSH1 0x0 DUP1 PUSH1 0x0 PUSH2 0x120 DUP5 DUP7 SUB SLT ISZERO PUSH2 0x1BF2 JUMPI PUSH2 0x1BF1 PUSH2 0x2297 JUMP JUMPDEST JUMPDEST PUSH1 0x0 PUSH2 0x1C00 DUP7 DUP3 DUP8 ADD PUSH2 0x1A0C JUMP JUMPDEST SWAP4 POP POP PUSH1 0x60 PUSH2 0x1C11 DUP7 DUP3 DUP8 ADD PUSH2 0x1A70 JUMP JUMPDEST SWAP3 POP POP PUSH1 0xC0 PUSH2 0x1C22 DUP7 DUP3 DUP8 ADD PUSH2 0x1A70 JUMP JUMPDEST SWAP2 POP POP SWAP3 POP SWAP3 POP SWAP3 JUMP JUMPDEST PUSH2 0x1C35 DUP2 PUSH2 0x2057 JUMP JUMPDEST DUP3 MSTORE POP POP JUMP JUMPDEST PUSH2 0x1C44 DUP2 PUSH2 0x2057 JUMP JUMPDEST DUP3 MSTORE POP POP JUMP JUMPDEST PUSH2 0x1C53 DUP2 PUSH2 0x2069 JUMP JUMPDEST DUP3 MSTORE POP POP JUMP JUMPDEST PUSH2 0x1C62 DUP2 PUSH2 0x2075 JUMP JUMPDEST DUP3 MSTORE POP POP JUMP JUMPDEST PUSH2 0x1C71 DUP2 PUSH2 0x2075 JUMP JUMPDEST DUP3 MSTORE POP POP JUMP JUMPDEST PUSH2 0x1C80 DUP2 PUSH2 0x20EE JUMP JUMPDEST DUP3 MSTORE POP POP JUMP JUMPDEST PUSH2 0x1C8F DUP2 PUSH2 0x2100 JUMP JUMPDEST DUP3 MSTORE POP POP JUMP JUMPDEST PUSH2 0x1C9E DUP2 PUSH2 0x2112 JUMP JUMPDEST DUP3 MSTORE POP POP JUMP JUMPDEST PUSH1 0x0 PUSH2 0x1CAF DUP3 PUSH2 0x203B JUMP JUMPDEST PUSH2 0x1CB9 DUP2 DUP6 PUSH2 0x2046 JUMP JUMPDEST SWAP4 POP PUSH2 0x1CC9 DUP2 DUP6 PUSH1 0x20 DUP7 ADD PUSH2 0x2148 JUMP JUMPDEST PUSH2 0x1CD2 DUP2 PUSH2 0x229C JUMP JUMPDEST DUP5 ADD SWAP2 POP POP SWAP3 SWAP2 POP POP JUMP JUMPDEST PUSH1 0x0 PUSH2 0x1CEA PUSH1 0x26 DUP4 PUSH2 0x2046 JUMP JUMPDEST SWAP2 POP PUSH2 0x1CF5 DUP3 PUSH2 0x22AD JUMP JUMPDEST PUSH1 0x40 DUP3 ADD SWAP1 POP SWAP2 SWAP1 POP JUMP JUMPDEST PUSH1 0x0 PUSH2 0x1D0D PUSH1 0x19 DUP4 PUSH2 0x2046 JUMP JUMPDEST SWAP2 POP PUSH2 0x1D18 DUP3 PUSH2 0x22FC JUMP JUMPDEST PUSH1 0x20 DUP3 ADD SWAP1 POP SWAP2 SWAP1 POP JUMP JUMPDEST PUSH1 0x0 PUSH2 0x1D30 PUSH1 0x20 DUP4 PUSH2 0x2046 JUMP JUMPDEST SWAP2 POP PUSH2 0x1D3B DUP3 PUSH2 0x2325 JUMP JUMPDEST PUSH1 0x20 DUP3 ADD SWAP1 POP SWAP2 SWAP1 POP JUMP JUMPDEST PUSH1 0x60 DUP3 ADD PUSH1 0x0 DUP3 ADD MLOAD PUSH2 0x1D5C PUSH1 0x0 DUP6 ADD DUP3 PUSH2 0x1C2C JUMP JUMPDEST POP PUSH1 0x20 DUP3 ADD MLOAD PUSH2 0x1D6F PUSH1 0x20 DUP6 ADD DUP3 PUSH2 0x1C2C JUMP JUMPDEST POP PUSH1 0x40 DUP3 ADD MLOAD PUSH2 0x1D82 PUSH1 0x40 DUP6 ADD DUP3 PUSH2 0x1DCA JUMP JUMPDEST POP POP POP POP JUMP JUMPDEST PUSH1 0x60 DUP3 ADD PUSH1 0x0 DUP3 ADD MLOAD PUSH2 0x1D9E PUSH1 0x0 DUP6 ADD DUP3 PUSH2 0x1DE8 JUMP JUMPDEST POP PUSH1 0x20 DUP3 ADD MLOAD PUSH2 0x1DB1 PUSH1 0x20 DUP6 ADD DUP3 PUSH2 0x1C59 JUMP JUMPDEST POP PUSH1 0x40 DUP3 ADD MLOAD PUSH2 0x1DC4 PUSH1 0x40 DUP6 ADD DUP3 PUSH2 0x1C59 JUMP JUMPDEST POP POP POP POP JUMP JUMPDEST PUSH2 0x1DD3 DUP2 PUSH2 0x20D7 JUMP JUMPDEST DUP3 MSTORE POP POP JUMP JUMPDEST PUSH2 0x1DE2 DUP2 PUSH2 0x20D7 JUMP JUMPDEST DUP3 MSTORE POP POP JUMP JUMPDEST PUSH2 0x1DF1 DUP2 PUSH2 0x20E1 JUMP JUMPDEST DUP3 MSTORE POP POP JUMP JUMPDEST PUSH2 0x1E00 DUP2 PUSH2 0x20E1 JUMP JUMPDEST DUP3 MSTORE POP POP JUMP JUMPDEST PUSH1 0x0 PUSH1 0x20 DUP3 ADD SWAP1 POP PUSH2 0x1E1B PUSH1 0x0 DUP4 ADD DUP5 PUSH2 0x1C3B JUMP JUMPDEST SWAP3 SWAP2 POP POP JUMP JUMPDEST PUSH1 0x0 PUSH1 0x40 DUP3 ADD SWAP1 POP PUSH2 0x1E36 PUSH1 0x0 DUP4 ADD DUP6 PUSH2 0x1C4A JUMP JUMPDEST DUP2 DUP2 SUB PUSH1 0x20 DUP4 ADD MSTORE PUSH2 0x1E48 DUP2 DUP5 PUSH2 0x1CA4 JUMP JUMPDEST SWAP1 POP SWAP4 SWAP3 POP POP POP JUMP JUMPDEST PUSH1 0x0 PUSH1 0x20 DUP3 ADD SWAP1 POP PUSH2 0x1E66 PUSH1 0x0 DUP4 ADD DUP5 PUSH2 0x1C68 JUMP JUMPDEST SWAP3 SWAP2 POP POP JUMP JUMPDEST PUSH1 0x0 PUSH1 0x40 DUP3 ADD SWAP1 POP PUSH2 0x1E81 PUSH1 0x0 DUP4 ADD DUP6 PUSH2 0x1C68 JUMP JUMPDEST PUSH2 0x1E8E PUSH1 0x20 DUP4 ADD DUP5 PUSH2 0x1C3B JUMP JUMPDEST SWAP4 SWAP3 POP POP POP JUMP JUMPDEST PUSH1 0x0 PUSH1 0x80 DUP3 ADD SWAP1 POP PUSH2 0x1EAA PUSH1 0x0 DUP4 ADD DUP8 PUSH2 0x1C68 JUMP JUMPDEST PUSH2 0x1EB7 PUSH1 0x20 DUP4 ADD DUP7 PUSH2 0x1C3B JUMP JUMPDEST PUSH2 0x1EC4 PUSH1 0x40 DUP4 ADD DUP6 PUSH2 0x1DD9 JUMP JUMPDEST PUSH2 0x1ED1 PUSH1 0x60 DUP4 ADD DUP5 PUSH2 0x1DD9 JUMP JUMPDEST SWAP6 SWAP5 POP POP POP POP POP JUMP JUMPDEST PUSH1 0x0 PUSH1 0x60 DUP3 ADD SWAP1 POP PUSH2 0x1EEF PUSH1 0x0 DUP4 ADD DUP7 PUSH2 0x1C68 JUMP JUMPDEST PUSH2 0x1EFC PUSH1 0x20 DUP4 ADD DUP6 PUSH2 0x1C3B JUMP JUMPDEST PUSH2 0x1F09 PUSH1 0x40 DUP4 ADD DUP5 PUSH2 0x1DF7 JUMP JUMPDEST SWAP5 SWAP4 POP POP POP POP JUMP JUMPDEST PUSH1 0x0 PUSH1 0x40 DUP3 ADD SWAP1 POP PUSH2 0x1F26 PUSH1 0x0 DUP4 ADD DUP6 PUSH2 0x1C68 JUMP JUMPDEST PUSH2 0x1F33 PUSH1 0x20 DUP4 ADD DUP5 PUSH2 0x1C95 JUMP JUMPDEST SWAP4 SWAP3 POP POP POP JUMP JUMPDEST PUSH1 0x0 PUSH1 0x20 DUP3 ADD SWAP1 POP PUSH2 0x1F4F PUSH1 0x0 DUP4 ADD DUP5 PUSH2 0x1C77 JUMP JUMPDEST SWAP3 SWAP2 POP POP JUMP JUMPDEST PUSH1 0x0 PUSH1 0x20 DUP3 ADD SWAP1 POP DUP2 DUP2 SUB PUSH1 0x0 DUP4 ADD MSTORE PUSH2 0x1F6E DUP2 PUSH2 0x1CDD JUMP JUMPDEST SWAP1 POP SWAP2 SWAP1 POP JUMP JUMPDEST PUSH1 0x0 PUSH1 0x20 DUP3 ADD SWAP1 POP DUP2 DUP2 SUB PUSH1 0x0 DUP4 ADD MSTORE PUSH2 0x1F8E DUP2 PUSH2 0x1D00 JUMP JUMPDEST SWAP1 POP SWAP2 SWAP1 POP JUMP JUMPDEST PUSH1 0x0 PUSH1 0x20 DUP3 ADD SWAP1 POP DUP2 DUP2 SUB PUSH1 0x0 DUP4 ADD MSTORE PUSH2 0x1FAE DUP2 PUSH2 0x1D23 JUMP JUMPDEST SWAP1 POP SWAP2 SWAP1 POP JUMP JUMPDEST PUSH1 0x0 PUSH1 0x80 DUP3 ADD SWAP1 POP PUSH2 0x1FCA PUSH1 0x0 DUP4 ADD DUP6 PUSH2 0x1D46 JUMP JUMPDEST PUSH2 0x1FD7 PUSH1 0x60 DUP4 ADD DUP5 PUSH2 0x1C86 JUMP JUMPDEST SWAP4 SWAP3 POP POP POP JUMP JUMPDEST PUSH1 0x0 PUSH2 0x120 DUP3 ADD SWAP1 POP PUSH2 0x1FF4 PUSH1 0x0 DUP4 ADD DUP7 PUSH2 0x1D46 JUMP JUMPDEST PUSH2 0x2001 PUSH1 0x60 DUP4 ADD DUP6 PUSH2 0x1D88 JUMP JUMPDEST PUSH2 0x200E PUSH1 0xC0 DUP4 ADD DUP5 PUSH2 0x1D88 JUMP JUMPDEST SWAP5 SWAP4 POP POP POP POP JUMP JUMPDEST PUSH1 0x0 PUSH2 0x2020 PUSH2 0x2031 JUMP JUMPDEST SWAP1 POP PUSH2 0x202C DUP3 DUP3 PUSH2 0x217B JUMP JUMPDEST SWAP2 SWAP1 POP JUMP JUMPDEST PUSH1 0x0 PUSH1 0x40 MLOAD SWAP1 POP SWAP1 JUMP JUMPDEST PUSH1 0x0 DUP2 MLOAD SWAP1 POP SWAP2 SWAP1 POP JUMP JUMPDEST PUSH1 0x0 DUP3 DUP3 MSTORE PUSH1 0x20 DUP3 ADD SWAP1 POP SWAP3 SWAP2 POP POP JUMP JUMPDEST PUSH1 0x0 PUSH2 0x2062 DUP3 PUSH2 0x20B7 JUMP JUMPDEST SWAP1 POP SWAP2 SWAP1 POP JUMP JUMPDEST PUSH1 0x0 DUP2 ISZERO ISZERO SWAP1 POP SWAP2 SWAP1 POP JUMP JUMPDEST PUSH1 0x0 DUP2 SWAP1 POP SWAP2 SWAP1 POP JUMP JUMPDEST PUSH1 0x0 PUSH2 0x208A DUP3 PUSH2 0x2057 JUMP JUMPDEST SWAP1 POP SWAP2 SWAP1 POP JUMP JUMPDEST PUSH1 0x0 DUP2 SWAP1 POP PUSH2 0x209F DUP3 PUSH2 0x234E JUMP JUMPDEST SWAP2 SWAP1 POP JUMP JUMPDEST PUSH1 0x0 DUP2 SWAP1 POP PUSH2 0x20B2 DUP3 PUSH2 0x2362 JUMP JUMPDEST SWAP2 SWAP1 POP JUMP JUMPDEST PUSH1 0x0 PUSH20 0xFFFFFFFFFFFFFFFFFFFFFFFFFFFFFFFFFFFFFFFF DUP3 AND SWAP1 POP SWAP2 SWAP1 POP JUMP JUMPDEST PUSH1 0x0 DUP2 SWAP1 POP SWAP2 SWAP1 POP JUMP JUMPDEST PUSH1 0x0 PUSH1 0xFF DUP3 AND SWAP1 POP SWAP2 SWAP1 POP JUMP JUMPDEST PUSH1 0x0 PUSH2 0x20F9 DUP3 PUSH2 0x2124 JUMP JUMPDEST SWAP1 POP SWAP2 SWAP1 POP JUMP JUMPDEST PUSH1 0x0 PUSH2 0x210B DUP3 PUSH2 0x2091 JUMP JUMPDEST SWAP1 POP SWAP2 SWAP1 POP JUMP JUMPDEST PUSH1 0x0 PUSH2 0x211D DUP3 PUSH2 0x20A4 JUMP JUMPDEST SWAP1 POP SWAP2 SWAP1 POP JUMP JUMPDEST PUSH1 0x0 PUSH2 0x212F DUP3 PUSH2 0x2136 JUMP JUMPDEST SWAP1 POP SWAP2 SWAP1 POP JUMP JUMPDEST PUSH1 0x0 PUSH2 0x2141 DUP3 PUSH2 0x20B7 JUMP JUMPDEST SWAP1 POP SWAP2 SWAP1 POP JUMP JUMPDEST PUSH1 0x0 JUMPDEST DUP4 DUP2 LT ISZERO PUSH2 0x2166 JUMPI DUP1 DUP3 ADD MLOAD DUP2 DUP5 ADD MSTORE PUSH1 0x20 DUP2 ADD SWAP1 POP PUSH2 0x214B JUMP JUMPDEST DUP4 DUP2 GT ISZERO PUSH2 0x2175 JUMPI PUSH1 0x0 DUP5 DUP5 ADD MSTORE JUMPDEST POP POP POP POP JUMP JUMPDEST PUSH2 0x2184 DUP3 PUSH2 0x229C JUMP JUMPDEST DUP2 ADD DUP2 DUP2 LT PUSH8 0xFFFFFFFFFFFFFFFF DUP3 GT OR ISZERO PUSH2 0x21A3 JUMPI PUSH2 0x21A2 PUSH2 0x2263 JUMP JUMPDEST JUMPDEST DUP1 PUSH1 0x40 MSTORE POP POP POP JUMP JUMPDEST PUSH1 0x0 PUSH2 0x21B7 DUP3 PUSH2 0x20E1 JUMP JUMPDEST SWAP2 POP PUSH1 0xFF DUP3 EQ ISZERO PUSH2 0x21CB JUMPI PUSH2 0x21CA PUSH2 0x21D6 JUMP JUMPDEST JUMPDEST PUSH1 0x1 DUP3 ADD SWAP1 POP SWAP2 SWAP1 POP JUMP JUMPDEST PUSH32 0x4E487B7100000000000000000000000000000000000000000000000000000000 PUSH1 0x0 MSTORE PUSH1 0x11 PUSH1 0x4 MSTORE PUSH1 0x24 PUSH1 0x0 REVERT JUMPDEST PUSH32 0x4E487B7100000000000000000000000000000000000000000000000000000000 PUSH1 0x0 MSTORE PUSH1 0x21 PUSH1 0x4 MSTORE PUSH1 0x24 PUSH1 0x0 REVERT JUMPDEST PUSH32 0x4E487B7100000000000000000000000000000000000000000000000000000000 PUSH1 0x0 MSTORE PUSH1 0x32 PUSH1 0x4 MSTORE PUSH1 0x24 PUSH1 0x0 REVERT JUMPDEST PUSH32 0x4E487B7100000000000000000000000000000000000000000000000000000000 PUSH1 0x0 MSTORE PUSH1 0x41 PUSH1 0x4 MSTORE PUSH1 0x24 PUSH1 0x0 REVERT JUMPDEST PUSH1 0x0 DUP1 REVERT JUMPDEST PUSH1 0x0 DUP1 REVERT JUMPDEST PUSH1 0x0 PUSH1 0x1F NOT PUSH1 0x1F DUP4 ADD AND SWAP1 POP SWAP2 SWAP1 POP JUMP JUMPDEST PUSH32 0x4F776E61626C653A206E6577206F776E657220697320746865207A65726F2061 PUSH1 0x0 DUP3 ADD MSTORE PUSH32 0x6464726573730000000000000000000000000000000000000000000000000000 PUSH1 0x20 DUP3 ADD MSTORE POP JUMP JUMPDEST PUSH32 0x726174696E672073797374656D206E6F7420646566696E656400000000000000 PUSH1 0x0 DUP3 ADD MSTORE POP JUMP JUMPDEST PUSH32 0x4F776E61626C653A2063616C6C6572206973206E6F7420746865206F776E6572 PUSH1 0x0 DUP3 ADD MSTORE POP JUMP JUMPDEST PUSH1 0x3 DUP2 LT PUSH2 0x235F JUMPI PUSH2 0x235E PUSH2 0x2205 JUMP JUMPDEST JUMPDEST POP JUMP JUMPDEST PUSH1 0x4 DUP2 LT PUSH2 0x2373 JUMPI PUSH2 0x2372 PUSH2 0x2205 JUMP JUMPDEST JUMPDEST POP JUMP JUMPDEST PUSH2 0x237F DUP2 PUSH2 0x2057 JUMP JUMPDEST DUP2 EQ PUSH2 0x238A JUMPI PUSH1 0x0 DUP1 REVERT JUMPDEST POP JUMP JUMPDEST PUSH2 0x2396 DUP2 PUSH2 0x2075 JUMP JUMPDEST DUP2 EQ PUSH2 0x23A1 JUMPI PUSH1 0x0 DUP1 REVERT JUMPDEST POP JUMP JUMPDEST PUSH2 0x23AD DUP2 PUSH2 0x207F JUMP JUMPDEST DUP2 EQ PUSH2 0x23B8 JUMPI PUSH1 0x0 DUP1 REVERT JUMPDEST POP JUMP JUMPDEST PUSH2 0x23C4 DUP2 PUSH2 0x20D7 JUMP JUMPDEST DUP2 EQ PUSH2 0x23CF JUMPI PUSH1 0x0 DUP1 REVERT JUMPDEST POP JUMP JUMPDEST PUSH2 0x23DB DUP2 PUSH2 0x20E1 JUMP JUMPDEST DUP2 EQ PUSH2 0x23E6 JUMPI PUSH1 0x0 DUP1 REVERT JUMPDEST POP JUMP INVALID SLOAD PUSH9 0x65726520697320616C PUSH19 0x656164792061206D61726B2061742074686520 PUSH8 0x6976656E20636F6F PUSH19 0x64696E617465732EA2646970667358221220F4 BALANCE 0x2D NUMBER DUP15 0xE2 0xE8 JUMPDEST STATICCALL PUSH30 0xBA9B1865BE1D983D849A43BC3E35B3C3C537364E0DE64736F6C63430008 SMOD STOP CALLER "
		},
		"gasEstimates": {
			"creation": {
				"codeDepositCost": "1859200",
				"executionCost": "infinite",
				"totalCost": "infinite"
			},
			"external": {
				"_system()": "2644",
				"makeMove(bytes32,uint256,uint256)": "infinite",
				"newGame((address,address,uint256),(uint8,bytes32,bytes32),(uint8,bytes32,bytes32))": "infinite",
				"owner()": "2544",
				"renounceOwnership()": "30374",
				"transferOwnership(address)": "30789",
				"updateRatingSystem(address)": "27050"
			},
			"internal": {
				"calculateWinner(enum TicTacToe.Players[3] memory[3] memory)": "infinite",
				"getCurrentPlayer(struct TicTacToe.Game storage pointer)": "6721",
				"isBoardFull(enum TicTacToe.Players[3] memory[3] memory)": "infinite",
				"nextPlayer(struct TicTacToe.Game storage pointer)": "26635",
				"winnerInColumn(enum TicTacToe.Players[3] memory[3] memory)": "infinite",
				"winnerInDiagonal(enum TicTacToe.Players[3] memory[3] memory)": "infinite",
				"winnerInRow(enum TicTacToe.Players[3] memory[3] memory)": "infinite"
			}
		},
		"methodIdentifiers": {
			"_system()": "c6ac8a4b",
			"makeMove(bytes32,uint256,uint256)": "4575505f",
			"newGame((address,address,uint256),(uint8,bytes32,bytes32),(uint8,bytes32,bytes32))": "4b2997e4",
			"owner()": "8da5cb5b",
			"renounceOwnership()": "715018a6",
			"transferOwnership(address)": "f2fde38b",
			"updateRatingSystem(address)": "6a7693dc"
		}
	},
	"abi": [
		{
			"anonymous": false,
			"inputs": [
				{
					"indexed": false,
					"internalType": "bytes32",
					"name": "gameId",
					"type": "bytes32"
				},
				{
					"indexed": false,
					"internalType": "address",
					"name": "creator",
					"type": "address"
				}
			],
			"name": "GameCreated",
			"type": "event"
		},
		{
			"anonymous": false,
			"inputs": [
				{
					"indexed": false,
					"internalType": "bytes32",
					"name": "gameId",
					"type": "bytes32"
				},
				{
					"indexed": false,
					"internalType": "enum TicTacToe.Winners",
					"name": "winner",
					"type": "uint8"
				}
			],
			"name": "GameOver",
			"type": "event"
		},
		{
			"anonymous": false,
			"inputs": [
				{
					"indexed": true,
					"internalType": "address",
					"name": "previousOwner",
					"type": "address"
				},
				{
					"indexed": true,
					"internalType": "address",
					"name": "newOwner",
					"type": "address"
				}
			],
			"name": "OwnershipTransferred",
			"type": "event"
		},
		{
			"anonymous": false,
			"inputs": [
				{
					"indexed": false,
					"internalType": "bytes32",
					"name": "gameId",
					"type": "bytes32"
				},
				{
					"indexed": false,
					"internalType": "address",
					"name": "player",
					"type": "address"
				},
				{
					"indexed": false,
					"internalType": "uint8",
					"name": "playerNumber",
					"type": "uint8"
				}
			],
			"name": "PlayerJoinedGame",
			"type": "event"
		},
		{
			"anonymous": false,
			"inputs": [
				{
					"indexed": false,
					"internalType": "bytes32",
					"name": "gameId",
					"type": "bytes32"
				},
				{
					"indexed": false,
					"internalType": "address",
					"name": "player",
					"type": "address"
				},
				{
					"indexed": false,
					"internalType": "uint256",
					"name": "xCoordinate",
					"type": "uint256"
				},
				{
					"indexed": false,
					"internalType": "uint256",
					"name": "yCoordinate",
					"type": "uint256"
				}
			],
			"name": "PlayerMadeMove",
			"type": "event"
		},
		{
			"inputs": [],
			"name": "_system",
			"outputs": [
				{
					"internalType": "contract RatingSystem",
					"name": "",
					"type": "address"
				}
			],
			"stateMutability": "view",
			"type": "function"
		},
		{
			"inputs": [
				{
					"internalType": "bytes32",
					"name": "_gameId",
					"type": "bytes32"
				},
				{
					"internalType": "uint256",
					"name": "_xCoordinate",
					"type": "uint256"
				},
				{
					"internalType": "uint256",
					"name": "_yCoordinate",
					"type": "uint256"
				}
			],
			"name": "makeMove",
			"outputs": [
				{
					"internalType": "bool",
					"name": "success",
					"type": "bool"
				},
				{
					"internalType": "string",
					"name": "reason",
					"type": "string"
				}
			],
			"stateMutability": "nonpayable",
			"type": "function"
		},
		{
			"inputs": [
				{
					"components": [
						{
							"internalType": "address",
							"name": "playerA",
							"type": "address"
						},
						{
							"internalType": "address",
							"name": "playerB",
							"type": "address"
						},
						{
							"internalType": "uint256",
							"name": "nonce",
							"type": "uint256"
						}
					],
					"internalType": "struct GameLibrary.Match",
					"name": "m",
					"type": "tuple"
				},
				{
					"components": [
						{
							"internalType": "uint8",
							"name": "v",
							"type": "uint8"
						},
						{
							"internalType": "bytes32",
							"name": "r",
							"type": "bytes32"
						},
						{
							"internalType": "bytes32",
							"name": "s",
							"type": "bytes32"
						}
					],
					"internalType": "struct GameLibrary.Sig",
					"name": "pAsig",
					"type": "tuple"
				},
				{
					"components": [
						{
							"internalType": "uint8",
							"name": "v",
							"type": "uint8"
						},
						{
							"internalType": "bytes32",
							"name": "r",
							"type": "bytes32"
						},
						{
							"internalType": "bytes32",
							"name": "s",
							"type": "bytes32"
						}
					],
					"internalType": "struct GameLibrary.Sig",
					"name": "pBsig",
					"type": "tuple"
				}
			],
			"name": "newGame",
			"outputs": [
				{
					"internalType": "bytes32",
					"name": "gameId",
					"type": "bytes32"
				}
			],
			"stateMutability": "nonpayable",
			"type": "function"
		},
		{
			"inputs": [],
			"name": "owner",
			"outputs": [
				{
					"internalType": "address",
					"name": "",
					"type": "address"
				}
			],
			"stateMutability": "view",
			"type": "function"
		},
		{
			"inputs": [],
			"name": "renounceOwnership",
			"outputs": [],
			"stateMutability": "nonpayable",
			"type": "function"
		},
		{
			"inputs": [
				{
					"internalType": "address",
					"name": "newOwner",
					"type": "address"
				}
			],
			"name": "transferOwnership",
			"outputs": [],
			"stateMutability": "nonpayable",
			"type": "function"
		},
		{
			"inputs": [
				{
					"internalType": "contract RatingSystem",
					"name": "system",
					"type": "address"
				}
			],
			"name": "updateRatingSystem",
			"outputs": [],
			"stateMutability": "nonpayable",
			"type": "function"
		}
	]
}