{
	"data": {
		"bytecode": {
			"linkReferences": {},
			"object": "60806040523480156200001157600080fd5b5062000032620000266200003860201b60201c565b6200004060201b60201c565b62000104565b600033905090565b60008060009054906101000a900473ffffffffffffffffffffffffffffffffffffffff169050816000806101000a81548173ffffffffffffffffffffffffffffffffffffffff021916908373ffffffffffffffffffffffffffffffffffffffff1602179055508173ffffffffffffffffffffffffffffffffffffffff168173ffffffffffffffffffffffffffffffffffffffff167f8be0079c531659141344cd1fd0a4f28419497f9722a3daafe3b4186f6b6457e060405160405180910390a35050565b6128a580620001146000396000f3fe608060405234801561001057600080fd5b50600436106100935760003560e01c806381dfc6581161006657806381dfc6581461011f5780638da5cb5b1461014f578063c6ac8a4b1461016d578063f2fde38b1461018b578063f579f882146101a757610093565b80634575505f146100985780634b2997e4146100c95780636a7693dc146100f9578063715018a614610115575b600080fd5b6100b260048036038101906100ad9190611daf565b6101db565b6040516100c09291906121e3565b60405180910390f35b6100e360048036038101906100de9190611e2f565b61085f565b6040516100f09190612213565b60405180910390f35b610113600480360381019061010e9190611e02565b610bae565b005b61011d610c6e565b005b61013960048036038101906101349190611d55565b610cf6565b60405161014691906121c7565b60405180910390f35b610157610dc7565b6040516101649190612159565b60405180910390f35b610175610df0565b60405161018291906122fc565b60405180910390f35b6101a560048036038101906101a09190611d28565b610e16565b005b6101c160048036038101906101bc9190611d55565b610f0e565b6040516101d2959493929190612174565b60405180910390f35b600060606000600160008781526020019081526020016000209050600073ffffffffffffffffffffffffffffffffffffffff168160000160009054906101000a900473ffffffffffffffffffffffffffffffffffffffff1673ffffffffffffffffffffffffffffffffffffffff1614806102a55750600073ffffffffffffffffffffffffffffffffffffffff168160010160009054906101000a900473ffffffffffffffffffffffffffffffffffffffff1673ffffffffffffffffffffffffffffffffffffffff16145b156102ec5760006040518060400160405280601481526020017f4e6f20737563682067616d65206578697374732e0000000000000000000000008152509250925050610857565b60006003811115610300576102ff612646565b5b8160030160009054906101000a900460ff16600381111561032457610323612646565b5b1461036b5760006040518060400160405280601b81526020017f5468652067616d652068617320616c726561647920656e6465642e00000000008152509250925050610857565b61037481610f9e565b73ffffffffffffffffffffffffffffffffffffffff163373ffffffffffffffffffffffffffffffffffffffff16146103e85760006040518060400160405280601481526020017f4974206973206e6f7420796f7572207475726e2e0000000000000000000000008152509250925050610857565b600060028111156103fc576103fb612646565b5b81600401866003811061041257610411612675565b5b01856003811061042557610424612675565b5b602091828204019190069054906101000a900460ff16600281111561044d5761044c612646565b5b1461047757600060405180606001604052806031815260200161283f603191399250925050610857565b8060030160019054906101000a900460ff1681600401866003811061049f5761049e612675565b5b0185600381106104b2576104b1612675565b5b602091828204019190066101000a81548160ff021916908360028111156104dc576104db612646565b5b02179055507f1a9c5494de497e044b49a5151f7f57ef2a19803f580d67f046d170f5ff426df9863387876040516105169493929190612257565b60405180910390a160006105d282600401600380602002604051908101604052809291906000905b828210156105c9578382016003806020026040519081016040528092919082600380156105b5576020028201916000905b82829054906101000a900460ff16600281111561058f5761058e612646565b5b8152602001906001019060208260000104928301926001038202915080841161056f5790505b50505050508152602001906001019061053e565b5050505061107d565b9050600060038111156105e8576105e7612646565b5b8160038111156105fb576105fa612646565b5b1461083557808260030160006101000a81548160ff0219169083600381111561062757610626612646565b5b02179055507ffb27a88c43d827e8c2da22a89492890f26769316375c930ae774d39567547bb2878260405161065d9291906122d3565b60405180910390a160006001600381111561067b5761067a612646565b5b82600381111561068e5761068d612646565b5b141561069d57600190506106d0565b600260038111156106b1576106b0612646565b5b8260038111156106c4576106c3612646565b5b14156106cf57600290505b5b600260009054906101000a900473ffffffffffffffffffffffffffffffffffffffff1673ffffffffffffffffffffffffffffffffffffffff1663e7babd3660405180606001604052808660000160009054906101000a900473ffffffffffffffffffffffffffffffffffffffff1673ffffffffffffffffffffffffffffffffffffffff1681526020018660010160009054906101000a900473ffffffffffffffffffffffffffffffffffffffff1673ffffffffffffffffffffffffffffffffffffffff1681526020018660020154815250836040518363ffffffff1660e01b81526004016107bf929190612377565b600060405180830381600087803b1580156107d957600080fd5b505af11580156107ed573d6000803e3d6000fd5b5050505060016040518060400160405280601181526020017f5468652067616d65206973206f7665722e00000000000000000000000000000081525094509450505050610857565b61083e8261120b565b6001604051806020016040528060008152509350935050505b935093915050565b60008073ffffffffffffffffffffffffffffffffffffffff16600260009054906101000a900473ffffffffffffffffffffffffffffffffffffffff1673ffffffffffffffffffffffffffffffffffffffff1614156108f2576040517f08c379a00000000000000000000000000000000000000000000000000000000081526004016108e990612337565b60405180910390fd5b6000600260009054906101000a900473ffffffffffffffffffffffffffffffffffffffff1673ffffffffffffffffffffffffffffffffffffffff16634178a0528686866040518463ffffffff1660e01b8152600401610953939291906123a0565b602060405180830381600087803b15801561096d57600080fd5b505af1158015610981573d6000803e3d6000fd5b505050506040513d601f19601f820116820180604052508101906109a59190611d82565b9050600060016000838152602001908152602001600020905060018160030160016101000a81548160ff021916908360028111156109e6576109e5612646565b5b021790555085600001518160000160006101000a81548173ffffffffffffffffffffffffffffffffffffffff021916908373ffffffffffffffffffffffffffffffffffffffff16021790555085602001518160010160006101000a81548173ffffffffffffffffffffffffffffffffffffffff021916908373ffffffffffffffffffffffffffffffffffffffff160217905550856040015181600201819055507fdb39b7323105b04a697f43db521ca7e936b02b98992c04ce3bbfa4a59d789ff68233604051610ab792919061222e565b60405180910390a17f9877a890ce7896259fbc155b7972a99fcd1cd86c5482c99b698561c75f5efc14828260000160009054906101000a900473ffffffffffffffffffffffffffffffffffffffff1660016002811115610b1a57610b19612646565b5b604051610b299392919061229c565b60405180910390a17f9877a890ce7896259fbc155b7972a99fcd1cd86c5482c99b698561c75f5efc14828260010160009054906101000a900473ffffffffffffffffffffffffffffffffffffffff16600280811115610b8b57610b8a612646565b5b604051610b9a9392919061229c565b60405180910390a181925050509392505050565b610bb66112ac565b73ffffffffffffffffffffffffffffffffffffffff16610bd4610dc7565b73ffffffffffffffffffffffffffffffffffffffff1614610c2a576040517f08c379a0000000000000000000000000000000000000000000000000000000008152600401610c2190612357565b60405180910390fd5b80600260006101000a81548173ffffffffffffffffffffffffffffffffffffffff021916908373ffffffffffffffffffffffffffffffffffffffff16021790555050565b610c766112ac565b73ffffffffffffffffffffffffffffffffffffffff16610c94610dc7565b73ffffffffffffffffffffffffffffffffffffffff1614610cea576040517f08c379a0000000000000000000000000000000000000000000000000000000008152600401610ce190612357565b60405180910390fd5b610cf460006112b4565b565b610cfe611b93565b600060016000848152602001908152602001600020905080600401600380602002604051908101604052809291906000905b82821015610dbb57838201600380602002604051908101604052809291908260038015610da7576020028201916000905b82829054906101000a900460ff166002811115610d8157610d80612646565b5b81526020019060010190602082600001049283019260010382029150808411610d615790505b505050505081526020019060010190610d30565b50505050915050919050565b60008060009054906101000a900473ffffffffffffffffffffffffffffffffffffffff16905090565b600260009054906101000a900473ffffffffffffffffffffffffffffffffffffffff1681565b610e1e6112ac565b73ffffffffffffffffffffffffffffffffffffffff16610e3c610dc7565b73ffffffffffffffffffffffffffffffffffffffff1614610e92576040517f08c379a0000000000000000000000000000000000000000000000000000000008152600401610e8990612357565b60405180910390fd5b600073ffffffffffffffffffffffffffffffffffffffff168173ffffffffffffffffffffffffffffffffffffffff161415610f02576040517f08c379a0000000000000000000000000000000000000000000000000000000008152600401610ef990612317565b60405180910390fd5b610f0b816112b4565b50565b60016020528060005260406000206000915090508060000160009054906101000a900473ffffffffffffffffffffffffffffffffffffffff16908060010160009054906101000a900473ffffffffffffffffffffffffffffffffffffffff16908060020154908060030160009054906101000a900460ff16908060030160019054906101000a900460ff16905085565b600060016002811115610fb457610fb3612646565b5b8260030160019054906101000a900460ff166002811115610fd857610fd7612646565b5b141561100a578160000160009054906101000a900473ffffffffffffffffffffffffffffffffffffffff169050611078565b60028081111561101d5761101c612646565b5b8260030160019054906101000a900460ff16600281111561104157611040612646565b5b1415611073578160010160009054906101000a900473ffffffffffffffffffffffffffffffffffffffff169050611078565b600090505b919050565b60008061108983611378565b90506001600281111561109f5761109e612646565b5b8160028111156110b2576110b1612646565b5b14156110c2576001915050611206565b6002808111156110d5576110d4612646565b5b8160028111156110e8576110e7612646565b5b14156110f8576002915050611206565b6111018361156b565b90506001600281111561111757611116612646565b5b81600281111561112a57611129612646565b5b141561113a576001915050611206565b60028081111561114d5761114c612646565b5b8160028111156111605761115f612646565b5b1415611170576002915050611206565b6111798361175e565b90506001600281111561118f5761118e612646565b5b8160028111156111a2576111a1612646565b5b14156111b2576001915050611206565b6002808111156111c5576111c4612646565b5b8160028111156111d8576111d7612646565b5b14156111e8576002915050611206565b6111f183611ad2565b15611200576003915050611206565b60009150505b919050565b6001600281111561121f5761121e612646565b5b8160030160019054906101000a900460ff16600281111561124357611242612646565b5b141561127b5760028160030160016101000a81548160ff0219169083600281111561127157611270612646565b5b02179055506112a9565b60018160030160016101000a81548160ff021916908360028111156112a3576112a2612646565b5b02179055505b50565b600033905090565b60008060009054906101000a900473ffffffffffffffffffffffffffffffffffffffff169050816000806101000a81548173ffffffffffffffffffffffffffffffffffffffff021916908373ffffffffffffffffffffffffffffffffffffffff1602179055508173ffffffffffffffffffffffffffffffffffffffff168173ffffffffffffffffffffffffffffffffffffffff167f8be0079c531659141344cd1fd0a4f28419497f9722a3daafe3b4186f6b6457e060405160405180910390a35050565b600080600090505b60038160ff16101561156057828160ff16600381106113a2576113a1612675565b5b60200201516001600381106113ba576113b9612675565b5b602002015160028111156113d1576113d0612646565b5b838260ff16600381106113e7576113e6612675565b5b60200201516000600381106113ff576113fe612675565b5b6020020151600281111561141657611415612646565b5b1480156114aa5750828160ff166003811061143457611433612675565b5b602002015160026003811061144c5761144b612675565b5b6020020151600281111561146357611462612646565b5b838260ff166003811061147957611478612675565b5b602002015160016003811061149157611490612675565b5b602002015160028111156114a8576114a7612646565b5b145b801561150d5750600060028111156114c5576114c4612646565b5b838260ff16600381106114db576114da612675565b5b60200201516000600381106114f3576114f2612675565b5b6020020151600281111561150a57611509612646565b5b14155b1561154d57828160ff166003811061152857611527612675565b5b60200201516000600381106115405761153f612675565b5b6020020151915050611566565b8080611558906125ed565b915050611380565b50600090505b919050565b600080600090505b60038160ff161015611753578260016003811061159357611592612675565b5b60200201518160ff16600381106115ad576115ac612675565b5b602002015160028111156115c4576115c3612646565b5b836000600381106115d8576115d7612675565b5b60200201518260ff16600381106115f2576115f1612675565b5b6020020151600281111561160957611608612646565b5b14801561169d57508260026003811061162557611624612675565b5b60200201518160ff166003811061163f5761163e612675565b5b6020020151600281111561165657611655612646565b5b8360016003811061166a57611669612675565b5b60200201518260ff166003811061168457611683612675565b5b6020020151600281111561169b5761169a612646565b5b145b80156117005750600060028111156116b8576116b7612646565b5b836000600381106116cc576116cb612675565b5b60200201518260ff16600381106116e6576116e5612675565b5b602002015160028111156116fd576116fc612646565b5b14155b15611740578260006003811061171957611718612675565b5b60200201518160ff166003811061173357611732612675565b5b6020020151915050611759565b808061174b906125ed565b915050611573565b50600090505b919050565b60008160016003811061177457611773612675565b5b602002015160016003811061178c5761178b612675565b5b602002015160028111156117a3576117a2612646565b5b826000600381106117b7576117b6612675565b5b60200201516000600381106117cf576117ce612675565b5b602002015160028111156117e6576117e5612646565b5b14801561187657508160026003811061180257611801612675565b5b602002015160026003811061181a57611819612675565b5b6020020151600281111561183157611830612646565b5b8260016003811061184557611844612675565b5b602002015160016003811061185d5761185c612675565b5b6020020151600281111561187457611873612646565b5b145b80156118d757506000600281111561189157611890612646565b5b826000600381106118a5576118a4612675565b5b60200201516000600381106118bd576118bc612675565b5b602002015160028111156118d4576118d3612646565b5b14155b1561191457816000600381106118f0576118ef612675565b5b602002015160006003811061190857611907612675565b5b60200201519050611acd565b8160016003811061192857611927612675565b5b60200201516001600381106119405761193f612675565b5b6020020151600281111561195757611956612646565b5b8260006003811061196b5761196a612675565b5b602002015160026003811061198357611982612675565b5b6020020151600281111561199a57611999612646565b5b148015611a2a5750816002600381106119b6576119b5612675565b5b60200201516000600381106119ce576119cd612675565b5b602002015160028111156119e5576119e4612646565b5b826001600381106119f9576119f8612675565b5b6020020151600160038110611a1157611a10612675565b5b60200201516002811115611a2857611a27612646565b5b145b8015611a8b575060006002811115611a4557611a44612646565b5b82600060038110611a5957611a58612675565b5b6020020151600260038110611a7157611a70612675565b5b60200201516002811115611a8857611a87612646565b5b14155b15611ac85781600060038110611aa457611aa3612675565b5b6020020151600260038110611abc57611abb612675565b5b60200201519050611acd565b600090505b919050565b600080600090505b60038160ff161015611b885760005b60038160ff161015611b745760006002811115611b0957611b08612646565b5b848360ff1660038110611b1f57611b1e612675565b5b60200201518260ff1660038110611b3957611b38612675565b5b60200201516002811115611b5057611b4f612646565b5b1415611b6157600092505050611b8e565b8080611b6c906125ed565b915050611ae9565b508080611b80906125ed565b915050611ada565b50600190505b919050565b60405180606001604052806003905b611baa611bc0565b815260200190600190039081611ba25790505090565b6040518060600160405280600390602082028036833780820191505090505090565b600081359050611bf1816127cb565b92915050565b600081359050611c06816127e2565b92915050565b600081519050611c1b816127e2565b92915050565b600081359050611c30816127f9565b92915050565b600060608284031215611c4c57611c4b6126d3565b5b611c5660606123d8565b90506000611c6684828501611be2565b6000830152506020611c7a84828501611be2565b6020830152506040611c8e84828501611cfe565b60408301525092915050565b600060608284031215611cb057611caf6126d3565b5b611cba60606123d8565b90506000611cca84828501611d13565b6000830152506020611cde84828501611bf7565b6020830152506040611cf284828501611bf7565b60408301525092915050565b600081359050611d0d81612810565b92915050565b600081359050611d2281612827565b92915050565b600060208284031215611d3e57611d3d6126d8565b5b6000611d4c84828501611be2565b91505092915050565b600060208284031215611d6b57611d6a6126d8565b5b6000611d7984828501611bf7565b91505092915050565b600060208284031215611d9857611d976126d8565b5b6000611da684828501611c0c565b91505092915050565b600080600060608486031215611dc857611dc76126d8565b5b6000611dd686828701611bf7565b9350506020611de786828701611cfe565b9250506040611df886828701611cfe565b9150509250925092565b600060208284031215611e1857611e176126d8565b5b6000611e2684828501611c21565b91505092915050565b60008060006101208486031215611e4957611e486126d8565b5b6000611e5786828701611c36565b9350506060611e6886828701611c9a565b92505060c0611e7986828701611c9a565b9150509250925092565b6000611e8f8383611f28565b60608301905092915050565b6000611ea78383611fca565b60208301905092915050565b611ebc81612473565b82525050565b611ecb81612473565b82525050565b611eda81612411565b611ee4818461244c565b9250611eef826123fd565b8060005b83811015611f20578151611f078782611e83565b9650611f1283612432565b925050600181019050611ef3565b505050505050565b611f318161241c565b611f3b8184612457565b9250611f4682612407565b8060005b83811015611f77578151611f5e8782611e9b565b9650611f698361243f565b925050600181019050611f4a565b505050505050565b611f8881612485565b82525050565b611f9781612491565b82525050565b611fa681612491565b82525050565b611fb58161251d565b82525050565b611fc48161252f565b82525050565b611fd381612541565b82525050565b611fe281612541565b82525050565b611ff181612553565b82525050565b600061200282612427565b61200c8185612462565b935061201c818560208601612589565b612025816126dd565b840191505092915050565b600061203d602683612462565b9150612048826126ee565b604082019050919050565b6000612060601983612462565b915061206b8261273d565b602082019050919050565b6000612083602083612462565b915061208e82612766565b602082019050919050565b6060820160008201516120af6000850182611eb3565b5060208201516120c26020850182611eb3565b5060408201516120d5604085018261211d565b50505050565b6060820160008201516120f1600085018261213b565b5060208201516121046020850182611f8e565b5060408201516121176040850182611f8e565b50505050565b61212681612506565b82525050565b61213581612506565b82525050565b61214481612510565b82525050565b61215381612510565b82525050565b600060208201905061216e6000830184611ec2565b92915050565b600060a0820190506121896000830188611ec2565b6121966020830187611ec2565b6121a3604083018661212c565b6121b06060830185611fe8565b6121bd6080830184611fd9565b9695505050505050565b6000610120820190506121dd6000830184611ed1565b92915050565b60006040820190506121f86000830185611f7f565b818103602083015261220a8184611ff7565b90509392505050565b60006020820190506122286000830184611f9d565b92915050565b60006040820190506122436000830185611f9d565b6122506020830184611ec2565b9392505050565b600060808201905061226c6000830187611f9d565b6122796020830186611ec2565b612286604083018561212c565b612293606083018461212c565b95945050505050565b60006060820190506122b16000830186611f9d565b6122be6020830185611ec2565b6122cb604083018461214a565b949350505050565b60006040820190506122e86000830185611f9d565b6122f56020830184611fe8565b9392505050565b60006020820190506123116000830184611fac565b92915050565b6000602082019050818103600083015261233081612030565b9050919050565b6000602082019050818103600083015261235081612053565b9050919050565b6000602082019050818103600083015261237081612076565b9050919050565b600060808201905061238c6000830185612099565b6123996060830184611fbb565b9392505050565b6000610120820190506123b66000830186612099565b6123c360608301856120db565b6123d060c08301846120db565b949350505050565b60006123e26123f3565b90506123ee82826125bc565b919050565b6000604051905090565b6000819050919050565b6000819050919050565b600060039050919050565b600060039050919050565b600081519050919050565b6000602082019050919050565b6000602082019050919050565b600081905092915050565b600081905092915050565b600082825260208201905092915050565b600061247e826124e6565b9050919050565b60008115159050919050565b6000819050919050565b60006124a682612473565b9050919050565b60008190506124bb8261278f565b919050565b60008190506124ce826127a3565b919050565b60008190506124e1826127b7565b919050565b600073ffffffffffffffffffffffffffffffffffffffff82169050919050565b6000819050919050565b600060ff82169050919050565b600061252882612565565b9050919050565b600061253a826124ad565b9050919050565b600061254c826124c0565b9050919050565b600061255e826124d3565b9050919050565b600061257082612577565b9050919050565b6000612582826124e6565b9050919050565b60005b838110156125a757808201518184015260208101905061258c565b838111156125b6576000848401525b50505050565b6125c5826126dd565b810181811067ffffffffffffffff821117156125e4576125e36126a4565b5b80604052505050565b60006125f882612510565b915060ff82141561260c5761260b612617565b5b600182019050919050565b7f4e487b7100000000000000000000000000000000000000000000000000000000600052601160045260246000fd5b7f4e487b7100000000000000000000000000000000000000000000000000000000600052602160045260246000fd5b7f4e487b7100000000000000000000000000000000000000000000000000000000600052603260045260246000fd5b7f4e487b7100000000000000000000000000000000000000000000000000000000600052604160045260246000fd5b600080fd5b600080fd5b6000601f19601f8301169050919050565b7f4f776e61626c653a206e6577206f776e657220697320746865207a65726f206160008201527f6464726573730000000000000000000000000000000000000000000000000000602082015250565b7f726174696e672073797374656d206e6f7420646566696e656400000000000000600082015250565b7f4f776e61626c653a2063616c6c6572206973206e6f7420746865206f776e6572600082015250565b600381106127a05761279f612646565b5b50565b600381106127b4576127b3612646565b5b50565b600481106127c8576127c7612646565b5b50565b6127d481612473565b81146127df57600080fd5b50565b6127eb81612491565b81146127f657600080fd5b50565b6128028161249b565b811461280d57600080fd5b50565b61281981612506565b811461282457600080fd5b50565b61283081612510565b811461283b57600080fd5b5056fe546865726520697320616c72656164792061206d61726b2061742074686520676976656e20636f6f7264696e617465732ea2646970667358221220faeaf1b2aec917321f1a88e64d1766609e26c864504be3ce1b16a84f863ad26c64736f6c63430008070033",
			"opcodes": "PUSH1 0x80 PUSH1 0x40 MSTORE CALLVALUE DUP1 ISZERO PUSH3 0x11 JUMPI PUSH1 0x0 DUP1 REVERT JUMPDEST POP PUSH3 0x32 PUSH3 0x26 PUSH3 0x38 PUSH1 0x20 SHL PUSH1 0x20 SHR JUMP JUMPDEST PUSH3 0x40 PUSH1 0x20 SHL PUSH1 0x20 SHR JUMP JUMPDEST PUSH3 0x104 JUMP JUMPDEST PUSH1 0x0 CALLER SWAP1 POP SWAP1 JUMP JUMPDEST PUSH1 0x0 DUP1 PUSH1 0x0 SWAP1 SLOAD SWAP1 PUSH2 0x100 EXP SWAP1 DIV PUSH20 0xFFFFFFFFFFFFFFFFFFFFFFFFFFFFFFFFFFFFFFFF AND SWAP1 POP DUP2 PUSH1 0x0 DUP1 PUSH2 0x100 EXP DUP2 SLOAD DUP2 PUSH20 0xFFFFFFFFFFFFFFFFFFFFFFFFFFFFFFFFFFFFFFFF MUL NOT AND SWAP1 DUP4 PUSH20 0xFFFFFFFFFFFFFFFFFFFFFFFFFFFFFFFFFFFFFFFF AND MUL OR SWAP1 SSTORE POP DUP2 PUSH20 0xFFFFFFFFFFFFFFFFFFFFFFFFFFFFFFFFFFFFFFFF AND DUP2 PUSH20 0xFFFFFFFFFFFFFFFFFFFFFFFFFFFFFFFFFFFFFFFF AND PUSH32 0x8BE0079C531659141344CD1FD0A4F28419497F9722A3DAAFE3B4186F6B6457E0 PUSH1 0x40 MLOAD PUSH1 0x40 MLOAD DUP1 SWAP2 SUB SWAP1 LOG3 POP POP JUMP JUMPDEST PUSH2 0x28A5 DUP1 PUSH3 0x114 PUSH1 0x0 CODECOPY PUSH1 0x0 RETURN INVALID PUSH1 0x80 PUSH1 0x40 MSTORE CALLVALUE DUP1 ISZERO PUSH2 0x10 JUMPI PUSH1 0x0 DUP1 REVERT JUMPDEST POP PUSH1 0x4 CALLDATASIZE LT PUSH2 0x93 JUMPI PUSH1 0x0 CALLDATALOAD PUSH1 0xE0 SHR DUP1 PUSH4 0x81DFC658 GT PUSH2 0x66 JUMPI DUP1 PUSH4 0x81DFC658 EQ PUSH2 0x11F JUMPI DUP1 PUSH4 0x8DA5CB5B EQ PUSH2 0x14F JUMPI DUP1 PUSH4 0xC6AC8A4B EQ PUSH2 0x16D JUMPI DUP1 PUSH4 0xF2FDE38B EQ PUSH2 0x18B JUMPI DUP1 PUSH4 0xF579F882 EQ PUSH2 0x1A7 JUMPI PUSH2 0x93 JUMP JUMPDEST DUP1 PUSH4 0x4575505F EQ PUSH2 0x98 JUMPI DUP1 PUSH4 0x4B2997E4 EQ PUSH2 0xC9 JUMPI DUP1 PUSH4 0x6A7693DC EQ PUSH2 0xF9 JUMPI DUP1 PUSH4 0x715018A6 EQ PUSH2 0x115 JUMPI JUMPDEST PUSH1 0x0 DUP1 REVERT JUMPDEST PUSH2 0xB2 PUSH1 0x4 DUP1 CALLDATASIZE SUB DUP2 ADD SWAP1 PUSH2 0xAD SWAP2 SWAP1 PUSH2 0x1DAF JUMP JUMPDEST PUSH2 0x1DB JUMP JUMPDEST PUSH1 0x40 MLOAD PUSH2 0xC0 SWAP3 SWAP2 SWAP1 PUSH2 0x21E3 JUMP JUMPDEST PUSH1 0x40 MLOAD DUP1 SWAP2 SUB SWAP1 RETURN JUMPDEST PUSH2 0xE3 PUSH1 0x4 DUP1 CALLDATASIZE SUB DUP2 ADD SWAP1 PUSH2 0xDE SWAP2 SWAP1 PUSH2 0x1E2F JUMP JUMPDEST PUSH2 0x85F JUMP JUMPDEST PUSH1 0x40 MLOAD PUSH2 0xF0 SWAP2 SWAP1 PUSH2 0x2213 JUMP JUMPDEST PUSH1 0x40 MLOAD DUP1 SWAP2 SUB SWAP1 RETURN JUMPDEST PUSH2 0x113 PUSH1 0x4 DUP1 CALLDATASIZE SUB DUP2 ADD SWAP1 PUSH2 0x10E SWAP2 SWAP1 PUSH2 0x1E02 JUMP JUMPDEST PUSH2 0xBAE JUMP JUMPDEST STOP JUMPDEST PUSH2 0x11D PUSH2 0xC6E JUMP JUMPDEST STOP JUMPDEST PUSH2 0x139 PUSH1 0x4 DUP1 CALLDATASIZE SUB DUP2 ADD SWAP1 PUSH2 0x134 SWAP2 SWAP1 PUSH2 0x1D55 JUMP JUMPDEST PUSH2 0xCF6 JUMP JUMPDEST PUSH1 0x40 MLOAD PUSH2 0x146 SWAP2 SWAP1 PUSH2 0x21C7 JUMP JUMPDEST PUSH1 0x40 MLOAD DUP1 SWAP2 SUB SWAP1 RETURN JUMPDEST PUSH2 0x157 PUSH2 0xDC7 JUMP JUMPDEST PUSH1 0x40 MLOAD PUSH2 0x164 SWAP2 SWAP1 PUSH2 0x2159 JUMP JUMPDEST PUSH1 0x40 MLOAD DUP1 SWAP2 SUB SWAP1 RETURN JUMPDEST PUSH2 0x175 PUSH2 0xDF0 JUMP JUMPDEST PUSH1 0x40 MLOAD PUSH2 0x182 SWAP2 SWAP1 PUSH2 0x22FC JUMP JUMPDEST PUSH1 0x40 MLOAD DUP1 SWAP2 SUB SWAP1 RETURN JUMPDEST PUSH2 0x1A5 PUSH1 0x4 DUP1 CALLDATASIZE SUB DUP2 ADD SWAP1 PUSH2 0x1A0 SWAP2 SWAP1 PUSH2 0x1D28 JUMP JUMPDEST PUSH2 0xE16 JUMP JUMPDEST STOP JUMPDEST PUSH2 0x1C1 PUSH1 0x4 DUP1 CALLDATASIZE SUB DUP2 ADD SWAP1 PUSH2 0x1BC SWAP2 SWAP1 PUSH2 0x1D55 JUMP JUMPDEST PUSH2 0xF0E JUMP JUMPDEST PUSH1 0x40 MLOAD PUSH2 0x1D2 SWAP6 SWAP5 SWAP4 SWAP3 SWAP2 SWAP1 PUSH2 0x2174 JUMP JUMPDEST PUSH1 0x40 MLOAD DUP1 SWAP2 SUB SWAP1 RETURN JUMPDEST PUSH1 0x0 PUSH1 0x60 PUSH1 0x0 PUSH1 0x1 PUSH1 0x0 DUP8 DUP2 MSTORE PUSH1 0x20 ADD SWAP1 DUP2 MSTORE PUSH1 0x20 ADD PUSH1 0x0 KECCAK256 SWAP1 POP PUSH1 0x0 PUSH20 0xFFFFFFFFFFFFFFFFFFFFFFFFFFFFFFFFFFFFFFFF AND DUP2 PUSH1 0x0 ADD PUSH1 0x0 SWAP1 SLOAD SWAP1 PUSH2 0x100 EXP SWAP1 DIV PUSH20 0xFFFFFFFFFFFFFFFFFFFFFFFFFFFFFFFFFFFFFFFF AND PUSH20 0xFFFFFFFFFFFFFFFFFFFFFFFFFFFFFFFFFFFFFFFF AND EQ DUP1 PUSH2 0x2A5 JUMPI POP PUSH1 0x0 PUSH20 0xFFFFFFFFFFFFFFFFFFFFFFFFFFFFFFFFFFFFFFFF AND DUP2 PUSH1 0x1 ADD PUSH1 0x0 SWAP1 SLOAD SWAP1 PUSH2 0x100 EXP SWAP1 DIV PUSH20 0xFFFFFFFFFFFFFFFFFFFFFFFFFFFFFFFFFFFFFFFF AND PUSH20 0xFFFFFFFFFFFFFFFFFFFFFFFFFFFFFFFFFFFFFFFF AND EQ JUMPDEST ISZERO PUSH2 0x2EC JUMPI PUSH1 0x0 PUSH1 0x40 MLOAD DUP1 PUSH1 0x40 ADD PUSH1 0x40 MSTORE DUP1 PUSH1 0x14 DUP2 MSTORE PUSH1 0x20 ADD PUSH32 0x4E6F20737563682067616D65206578697374732E000000000000000000000000 DUP2 MSTORE POP SWAP3 POP SWAP3 POP POP PUSH2 0x857 JUMP JUMPDEST PUSH1 0x0 PUSH1 0x3 DUP2 GT ISZERO PUSH2 0x300 JUMPI PUSH2 0x2FF PUSH2 0x2646 JUMP JUMPDEST JUMPDEST DUP2 PUSH1 0x3 ADD PUSH1 0x0 SWAP1 SLOAD SWAP1 PUSH2 0x100 EXP SWAP1 DIV PUSH1 0xFF AND PUSH1 0x3 DUP2 GT ISZERO PUSH2 0x324 JUMPI PUSH2 0x323 PUSH2 0x2646 JUMP JUMPDEST JUMPDEST EQ PUSH2 0x36B JUMPI PUSH1 0x0 PUSH1 0x40 MLOAD DUP1 PUSH1 0x40 ADD PUSH1 0x40 MSTORE DUP1 PUSH1 0x1B DUP2 MSTORE PUSH1 0x20 ADD PUSH32 0x5468652067616D652068617320616C726561647920656E6465642E0000000000 DUP2 MSTORE POP SWAP3 POP SWAP3 POP POP PUSH2 0x857 JUMP JUMPDEST PUSH2 0x374 DUP2 PUSH2 0xF9E JUMP JUMPDEST PUSH20 0xFFFFFFFFFFFFFFFFFFFFFFFFFFFFFFFFFFFFFFFF AND CALLER PUSH20 0xFFFFFFFFFFFFFFFFFFFFFFFFFFFFFFFFFFFFFFFF AND EQ PUSH2 0x3E8 JUMPI PUSH1 0x0 PUSH1 0x40 MLOAD DUP1 PUSH1 0x40 ADD PUSH1 0x40 MSTORE DUP1 PUSH1 0x14 DUP2 MSTORE PUSH1 0x20 ADD PUSH32 0x4974206973206E6F7420796F7572207475726E2E000000000000000000000000 DUP2 MSTORE POP SWAP3 POP SWAP3 POP POP PUSH2 0x857 JUMP JUMPDEST PUSH1 0x0 PUSH1 0x2 DUP2 GT ISZERO PUSH2 0x3FC JUMPI PUSH2 0x3FB PUSH2 0x2646 JUMP JUMPDEST JUMPDEST DUP2 PUSH1 0x4 ADD DUP7 PUSH1 0x3 DUP2 LT PUSH2 0x412 JUMPI PUSH2 0x411 PUSH2 0x2675 JUMP JUMPDEST JUMPDEST ADD DUP6 PUSH1 0x3 DUP2 LT PUSH2 0x425 JUMPI PUSH2 0x424 PUSH2 0x2675 JUMP JUMPDEST JUMPDEST PUSH1 0x20 SWAP2 DUP3 DUP3 DIV ADD SWAP2 SWAP1 MOD SWAP1 SLOAD SWAP1 PUSH2 0x100 EXP SWAP1 DIV PUSH1 0xFF AND PUSH1 0x2 DUP2 GT ISZERO PUSH2 0x44D JUMPI PUSH2 0x44C PUSH2 0x2646 JUMP JUMPDEST JUMPDEST EQ PUSH2 0x477 JUMPI PUSH1 0x0 PUSH1 0x40 MLOAD DUP1 PUSH1 0x60 ADD PUSH1 0x40 MSTORE DUP1 PUSH1 0x31 DUP2 MSTORE PUSH1 0x20 ADD PUSH2 0x283F PUSH1 0x31 SWAP2 CODECOPY SWAP3 POP SWAP3 POP POP PUSH2 0x857 JUMP JUMPDEST DUP1 PUSH1 0x3 ADD PUSH1 0x1 SWAP1 SLOAD SWAP1 PUSH2 0x100 EXP SWAP1 DIV PUSH1 0xFF AND DUP2 PUSH1 0x4 ADD DUP7 PUSH1 0x3 DUP2 LT PUSH2 0x49F JUMPI PUSH2 0x49E PUSH2 0x2675 JUMP JUMPDEST JUMPDEST ADD DUP6 PUSH1 0x3 DUP2 LT PUSH2 0x4B2 JUMPI PUSH2 0x4B1 PUSH2 0x2675 JUMP JUMPDEST JUMPDEST PUSH1 0x20 SWAP2 DUP3 DUP3 DIV ADD SWAP2 SWAP1 MOD PUSH2 0x100 EXP DUP2 SLOAD DUP2 PUSH1 0xFF MUL NOT AND SWAP1 DUP4 PUSH1 0x2 DUP2 GT ISZERO PUSH2 0x4DC JUMPI PUSH2 0x4DB PUSH2 0x2646 JUMP JUMPDEST JUMPDEST MUL OR SWAP1 SSTORE POP PUSH32 0x1A9C5494DE497E044B49A5151F7F57EF2A19803F580D67F046D170F5FF426DF9 DUP7 CALLER DUP8 DUP8 PUSH1 0x40 MLOAD PUSH2 0x516 SWAP5 SWAP4 SWAP3 SWAP2 SWAP1 PUSH2 0x2257 JUMP JUMPDEST PUSH1 0x40 MLOAD DUP1 SWAP2 SUB SWAP1 LOG1 PUSH1 0x0 PUSH2 0x5D2 DUP3 PUSH1 0x4 ADD PUSH1 0x3 DUP1 PUSH1 0x20 MUL PUSH1 0x40 MLOAD SWAP1 DUP2 ADD PUSH1 0x40 MSTORE DUP1 SWAP3 SWAP2 SWAP1 PUSH1 0x0 SWAP1 JUMPDEST DUP3 DUP3 LT ISZERO PUSH2 0x5C9 JUMPI DUP4 DUP3 ADD PUSH1 0x3 DUP1 PUSH1 0x20 MUL PUSH1 0x40 MLOAD SWAP1 DUP2 ADD PUSH1 0x40 MSTORE DUP1 SWAP3 SWAP2 SWAP1 DUP3 PUSH1 0x3 DUP1 ISZERO PUSH2 0x5B5 JUMPI PUSH1 0x20 MUL DUP3 ADD SWAP2 PUSH1 0x0 SWAP1 JUMPDEST DUP3 DUP3 SWAP1 SLOAD SWAP1 PUSH2 0x100 EXP SWAP1 DIV PUSH1 0xFF AND PUSH1 0x2 DUP2 GT ISZERO PUSH2 0x58F JUMPI PUSH2 0x58E PUSH2 0x2646 JUMP JUMPDEST JUMPDEST DUP2 MSTORE PUSH1 0x20 ADD SWAP1 PUSH1 0x1 ADD SWAP1 PUSH1 0x20 DUP3 PUSH1 0x0 ADD DIV SWAP3 DUP4 ADD SWAP3 PUSH1 0x1 SUB DUP3 MUL SWAP2 POP DUP1 DUP5 GT PUSH2 0x56F JUMPI SWAP1 POP JUMPDEST POP POP POP POP POP DUP2 MSTORE PUSH1 0x20 ADD SWAP1 PUSH1 0x1 ADD SWAP1 PUSH2 0x53E JUMP JUMPDEST POP POP POP POP PUSH2 0x107D JUMP JUMPDEST SWAP1 POP PUSH1 0x0 PUSH1 0x3 DUP2 GT ISZERO PUSH2 0x5E8 JUMPI PUSH2 0x5E7 PUSH2 0x2646 JUMP JUMPDEST JUMPDEST DUP2 PUSH1 0x3 DUP2 GT ISZERO PUSH2 0x5FB JUMPI PUSH2 0x5FA PUSH2 0x2646 JUMP JUMPDEST JUMPDEST EQ PUSH2 0x835 JUMPI DUP1 DUP3 PUSH1 0x3 ADD PUSH1 0x0 PUSH2 0x100 EXP DUP2 SLOAD DUP2 PUSH1 0xFF MUL NOT AND SWAP1 DUP4 PUSH1 0x3 DUP2 GT ISZERO PUSH2 0x627 JUMPI PUSH2 0x626 PUSH2 0x2646 JUMP JUMPDEST JUMPDEST MUL OR SWAP1 SSTORE POP PUSH32 0xFB27A88C43D827E8C2DA22A89492890F26769316375C930AE774D39567547BB2 DUP8 DUP3 PUSH1 0x40 MLOAD PUSH2 0x65D SWAP3 SWAP2 SWAP1 PUSH2 0x22D3 JUMP JUMPDEST PUSH1 0x40 MLOAD DUP1 SWAP2 SUB SWAP1 LOG1 PUSH1 0x0 PUSH1 0x1 PUSH1 0x3 DUP2 GT ISZERO PUSH2 0x67B JUMPI PUSH2 0x67A PUSH2 0x2646 JUMP JUMPDEST JUMPDEST DUP3 PUSH1 0x3 DUP2 GT ISZERO PUSH2 0x68E JUMPI PUSH2 0x68D PUSH2 0x2646 JUMP JUMPDEST JUMPDEST EQ ISZERO PUSH2 0x69D JUMPI PUSH1 0x1 SWAP1 POP PUSH2 0x6D0 JUMP JUMPDEST PUSH1 0x2 PUSH1 0x3 DUP2 GT ISZERO PUSH2 0x6B1 JUMPI PUSH2 0x6B0 PUSH2 0x2646 JUMP JUMPDEST JUMPDEST DUP3 PUSH1 0x3 DUP2 GT ISZERO PUSH2 0x6C4 JUMPI PUSH2 0x6C3 PUSH2 0x2646 JUMP JUMPDEST JUMPDEST EQ ISZERO PUSH2 0x6CF JUMPI PUSH1 0x2 SWAP1 POP JUMPDEST JUMPDEST PUSH1 0x2 PUSH1 0x0 SWAP1 SLOAD SWAP1 PUSH2 0x100 EXP SWAP1 DIV PUSH20 0xFFFFFFFFFFFFFFFFFFFFFFFFFFFFFFFFFFFFFFFF AND PUSH20 0xFFFFFFFFFFFFFFFFFFFFFFFFFFFFFFFFFFFFFFFF AND PUSH4 0xE7BABD36 PUSH1 0x40 MLOAD DUP1 PUSH1 0x60 ADD PUSH1 0x40 MSTORE DUP1 DUP7 PUSH1 0x0 ADD PUSH1 0x0 SWAP1 SLOAD SWAP1 PUSH2 0x100 EXP SWAP1 DIV PUSH20 0xFFFFFFFFFFFFFFFFFFFFFFFFFFFFFFFFFFFFFFFF AND PUSH20 0xFFFFFFFFFFFFFFFFFFFFFFFFFFFFFFFFFFFFFFFF AND DUP2 MSTORE PUSH1 0x20 ADD DUP7 PUSH1 0x1 ADD PUSH1 0x0 SWAP1 SLOAD SWAP1 PUSH2 0x100 EXP SWAP1 DIV PUSH20 0xFFFFFFFFFFFFFFFFFFFFFFFFFFFFFFFFFFFFFFFF AND PUSH20 0xFFFFFFFFFFFFFFFFFFFFFFFFFFFFFFFFFFFFFFFF AND DUP2 MSTORE PUSH1 0x20 ADD DUP7 PUSH1 0x2 ADD SLOAD DUP2 MSTORE POP DUP4 PUSH1 0x40 MLOAD DUP4 PUSH4 0xFFFFFFFF AND PUSH1 0xE0 SHL DUP2 MSTORE PUSH1 0x4 ADD PUSH2 0x7BF SWAP3 SWAP2 SWAP1 PUSH2 0x2377 JUMP JUMPDEST PUSH1 0x0 PUSH1 0x40 MLOAD DUP1 DUP4 SUB DUP2 PUSH1 0x0 DUP8 DUP1 EXTCODESIZE ISZERO DUP1 ISZERO PUSH2 0x7D9 JUMPI PUSH1 0x0 DUP1 REVERT JUMPDEST POP GAS CALL ISZERO DUP1 ISZERO PUSH2 0x7ED JUMPI RETURNDATASIZE PUSH1 0x0 DUP1 RETURNDATACOPY RETURNDATASIZE PUSH1 0x0 REVERT JUMPDEST POP POP POP POP PUSH1 0x1 PUSH1 0x40 MLOAD DUP1 PUSH1 0x40 ADD PUSH1 0x40 MSTORE DUP1 PUSH1 0x11 DUP2 MSTORE PUSH1 0x20 ADD PUSH32 0x5468652067616D65206973206F7665722E000000000000000000000000000000 DUP2 MSTORE POP SWAP5 POP SWAP5 POP POP POP POP PUSH2 0x857 JUMP JUMPDEST PUSH2 0x83E DUP3 PUSH2 0x120B JUMP JUMPDEST PUSH1 0x1 PUSH1 0x40 MLOAD DUP1 PUSH1 0x20 ADD PUSH1 0x40 MSTORE DUP1 PUSH1 0x0 DUP2 MSTORE POP SWAP4 POP SWAP4 POP POP POP JUMPDEST SWAP4 POP SWAP4 SWAP2 POP POP JUMP JUMPDEST PUSH1 0x0 DUP1 PUSH20 0xFFFFFFFFFFFFFFFFFFFFFFFFFFFFFFFFFFFFFFFF AND PUSH1 0x2 PUSH1 0x0 SWAP1 SLOAD SWAP1 PUSH2 0x100 EXP SWAP1 DIV PUSH20 0xFFFFFFFFFFFFFFFFFFFFFFFFFFFFFFFFFFFFFFFF AND PUSH20 0xFFFFFFFFFFFFFFFFFFFFFFFFFFFFFFFFFFFFFFFF AND EQ ISZERO PUSH2 0x8F2 JUMPI PUSH1 0x40 MLOAD PUSH32 0x8C379A000000000000000000000000000000000000000000000000000000000 DUP2 MSTORE PUSH1 0x4 ADD PUSH2 0x8E9 SWAP1 PUSH2 0x2337 JUMP JUMPDEST PUSH1 0x40 MLOAD DUP1 SWAP2 SUB SWAP1 REVERT JUMPDEST PUSH1 0x0 PUSH1 0x2 PUSH1 0x0 SWAP1 SLOAD SWAP1 PUSH2 0x100 EXP SWAP1 DIV PUSH20 0xFFFFFFFFFFFFFFFFFFFFFFFFFFFFFFFFFFFFFFFF AND PUSH20 0xFFFFFFFFFFFFFFFFFFFFFFFFFFFFFFFFFFFFFFFF AND PUSH4 0x4178A052 DUP7 DUP7 DUP7 PUSH1 0x40 MLOAD DUP5 PUSH4 0xFFFFFFFF AND PUSH1 0xE0 SHL DUP2 MSTORE PUSH1 0x4 ADD PUSH2 0x953 SWAP4 SWAP3 SWAP2 SWAP1 PUSH2 0x23A0 JUMP JUMPDEST PUSH1 0x20 PUSH1 0x40 MLOAD DUP1 DUP4 SUB DUP2 PUSH1 0x0 DUP8 DUP1 EXTCODESIZE ISZERO DUP1 ISZERO PUSH2 0x96D JUMPI PUSH1 0x0 DUP1 REVERT JUMPDEST POP GAS CALL ISZERO DUP1 ISZERO PUSH2 0x981 JUMPI RETURNDATASIZE PUSH1 0x0 DUP1 RETURNDATACOPY RETURNDATASIZE PUSH1 0x0 REVERT JUMPDEST POP POP POP POP PUSH1 0x40 MLOAD RETURNDATASIZE PUSH1 0x1F NOT PUSH1 0x1F DUP3 ADD AND DUP3 ADD DUP1 PUSH1 0x40 MSTORE POP DUP2 ADD SWAP1 PUSH2 0x9A5 SWAP2 SWAP1 PUSH2 0x1D82 JUMP JUMPDEST SWAP1 POP PUSH1 0x0 PUSH1 0x1 PUSH1 0x0 DUP4 DUP2 MSTORE PUSH1 0x20 ADD SWAP1 DUP2 MSTORE PUSH1 0x20 ADD PUSH1 0x0 KECCAK256 SWAP1 POP PUSH1 0x1 DUP2 PUSH1 0x3 ADD PUSH1 0x1 PUSH2 0x100 EXP DUP2 SLOAD DUP2 PUSH1 0xFF MUL NOT AND SWAP1 DUP4 PUSH1 0x2 DUP2 GT ISZERO PUSH2 0x9E6 JUMPI PUSH2 0x9E5 PUSH2 0x2646 JUMP JUMPDEST JUMPDEST MUL OR SWAP1 SSTORE POP DUP6 PUSH1 0x0 ADD MLOAD DUP2 PUSH1 0x0 ADD PUSH1 0x0 PUSH2 0x100 EXP DUP2 SLOAD DUP2 PUSH20 0xFFFFFFFFFFFFFFFFFFFFFFFFFFFFFFFFFFFFFFFF MUL NOT AND SWAP1 DUP4 PUSH20 0xFFFFFFFFFFFFFFFFFFFFFFFFFFFFFFFFFFFFFFFF AND MUL OR SWAP1 SSTORE POP DUP6 PUSH1 0x20 ADD MLOAD DUP2 PUSH1 0x1 ADD PUSH1 0x0 PUSH2 0x100 EXP DUP2 SLOAD DUP2 PUSH20 0xFFFFFFFFFFFFFFFFFFFFFFFFFFFFFFFFFFFFFFFF MUL NOT AND SWAP1 DUP4 PUSH20 0xFFFFFFFFFFFFFFFFFFFFFFFFFFFFFFFFFFFFFFFF AND MUL OR SWAP1 SSTORE POP DUP6 PUSH1 0x40 ADD MLOAD DUP2 PUSH1 0x2 ADD DUP2 SWAP1 SSTORE POP PUSH32 0xDB39B7323105B04A697F43DB521CA7E936B02B98992C04CE3BBFA4A59D789FF6 DUP3 CALLER PUSH1 0x40 MLOAD PUSH2 0xAB7 SWAP3 SWAP2 SWAP1 PUSH2 0x222E JUMP JUMPDEST PUSH1 0x40 MLOAD DUP1 SWAP2 SUB SWAP1 LOG1 PUSH32 0x9877A890CE7896259FBC155B7972A99FCD1CD86C5482C99B698561C75F5EFC14 DUP3 DUP3 PUSH1 0x0 ADD PUSH1 0x0 SWAP1 SLOAD SWAP1 PUSH2 0x100 EXP SWAP1 DIV PUSH20 0xFFFFFFFFFFFFFFFFFFFFFFFFFFFFFFFFFFFFFFFF AND PUSH1 0x1 PUSH1 0x2 DUP2 GT ISZERO PUSH2 0xB1A JUMPI PUSH2 0xB19 PUSH2 0x2646 JUMP JUMPDEST JUMPDEST PUSH1 0x40 MLOAD PUSH2 0xB29 SWAP4 SWAP3 SWAP2 SWAP1 PUSH2 0x229C JUMP JUMPDEST PUSH1 0x40 MLOAD DUP1 SWAP2 SUB SWAP1 LOG1 PUSH32 0x9877A890CE7896259FBC155B7972A99FCD1CD86C5482C99B698561C75F5EFC14 DUP3 DUP3 PUSH1 0x1 ADD PUSH1 0x0 SWAP1 SLOAD SWAP1 PUSH2 0x100 EXP SWAP1 DIV PUSH20 0xFFFFFFFFFFFFFFFFFFFFFFFFFFFFFFFFFFFFFFFF AND PUSH1 0x2 DUP1 DUP2 GT ISZERO PUSH2 0xB8B JUMPI PUSH2 0xB8A PUSH2 0x2646 JUMP JUMPDEST JUMPDEST PUSH1 0x40 MLOAD PUSH2 0xB9A SWAP4 SWAP3 SWAP2 SWAP1 PUSH2 0x229C JUMP JUMPDEST PUSH1 0x40 MLOAD DUP1 SWAP2 SUB SWAP1 LOG1 DUP2 SWAP3 POP POP POP SWAP4 SWAP3 POP POP POP JUMP JUMPDEST PUSH2 0xBB6 PUSH2 0x12AC JUMP JUMPDEST PUSH20 0xFFFFFFFFFFFFFFFFFFFFFFFFFFFFFFFFFFFFFFFF AND PUSH2 0xBD4 PUSH2 0xDC7 JUMP JUMPDEST PUSH20 0xFFFFFFFFFFFFFFFFFFFFFFFFFFFFFFFFFFFFFFFF AND EQ PUSH2 0xC2A JUMPI PUSH1 0x40 MLOAD PUSH32 0x8C379A000000000000000000000000000000000000000000000000000000000 DUP2 MSTORE PUSH1 0x4 ADD PUSH2 0xC21 SWAP1 PUSH2 0x2357 JUMP JUMPDEST PUSH1 0x40 MLOAD DUP1 SWAP2 SUB SWAP1 REVERT JUMPDEST DUP1 PUSH1 0x2 PUSH1 0x0 PUSH2 0x100 EXP DUP2 SLOAD DUP2 PUSH20 0xFFFFFFFFFFFFFFFFFFFFFFFFFFFFFFFFFFFFFFFF MUL NOT AND SWAP1 DUP4 PUSH20 0xFFFFFFFFFFFFFFFFFFFFFFFFFFFFFFFFFFFFFFFF AND MUL OR SWAP1 SSTORE POP POP JUMP JUMPDEST PUSH2 0xC76 PUSH2 0x12AC JUMP JUMPDEST PUSH20 0xFFFFFFFFFFFFFFFFFFFFFFFFFFFFFFFFFFFFFFFF AND PUSH2 0xC94 PUSH2 0xDC7 JUMP JUMPDEST PUSH20 0xFFFFFFFFFFFFFFFFFFFFFFFFFFFFFFFFFFFFFFFF AND EQ PUSH2 0xCEA JUMPI PUSH1 0x40 MLOAD PUSH32 0x8C379A000000000000000000000000000000000000000000000000000000000 DUP2 MSTORE PUSH1 0x4 ADD PUSH2 0xCE1 SWAP1 PUSH2 0x2357 JUMP JUMPDEST PUSH1 0x40 MLOAD DUP1 SWAP2 SUB SWAP1 REVERT JUMPDEST PUSH2 0xCF4 PUSH1 0x0 PUSH2 0x12B4 JUMP JUMPDEST JUMP JUMPDEST PUSH2 0xCFE PUSH2 0x1B93 JUMP JUMPDEST PUSH1 0x0 PUSH1 0x1 PUSH1 0x0 DUP5 DUP2 MSTORE PUSH1 0x20 ADD SWAP1 DUP2 MSTORE PUSH1 0x20 ADD PUSH1 0x0 KECCAK256 SWAP1 POP DUP1 PUSH1 0x4 ADD PUSH1 0x3 DUP1 PUSH1 0x20 MUL PUSH1 0x40 MLOAD SWAP1 DUP2 ADD PUSH1 0x40 MSTORE DUP1 SWAP3 SWAP2 SWAP1 PUSH1 0x0 SWAP1 JUMPDEST DUP3 DUP3 LT ISZERO PUSH2 0xDBB JUMPI DUP4 DUP3 ADD PUSH1 0x3 DUP1 PUSH1 0x20 MUL PUSH1 0x40 MLOAD SWAP1 DUP2 ADD PUSH1 0x40 MSTORE DUP1 SWAP3 SWAP2 SWAP1 DUP3 PUSH1 0x3 DUP1 ISZERO PUSH2 0xDA7 JUMPI PUSH1 0x20 MUL DUP3 ADD SWAP2 PUSH1 0x0 SWAP1 JUMPDEST DUP3 DUP3 SWAP1 SLOAD SWAP1 PUSH2 0x100 EXP SWAP1 DIV PUSH1 0xFF AND PUSH1 0x2 DUP2 GT ISZERO PUSH2 0xD81 JUMPI PUSH2 0xD80 PUSH2 0x2646 JUMP JUMPDEST JUMPDEST DUP2 MSTORE PUSH1 0x20 ADD SWAP1 PUSH1 0x1 ADD SWAP1 PUSH1 0x20 DUP3 PUSH1 0x0 ADD DIV SWAP3 DUP4 ADD SWAP3 PUSH1 0x1 SUB DUP3 MUL SWAP2 POP DUP1 DUP5 GT PUSH2 0xD61 JUMPI SWAP1 POP JUMPDEST POP POP POP POP POP DUP2 MSTORE PUSH1 0x20 ADD SWAP1 PUSH1 0x1 ADD SWAP1 PUSH2 0xD30 JUMP JUMPDEST POP POP POP POP SWAP2 POP POP SWAP2 SWAP1 POP JUMP JUMPDEST PUSH1 0x0 DUP1 PUSH1 0x0 SWAP1 SLOAD SWAP1 PUSH2 0x100 EXP SWAP1 DIV PUSH20 0xFFFFFFFFFFFFFFFFFFFFFFFFFFFFFFFFFFFFFFFF AND SWAP1 POP SWAP1 JUMP JUMPDEST PUSH1 0x2 PUSH1 0x0 SWAP1 SLOAD SWAP1 PUSH2 0x100 EXP SWAP1 DIV PUSH20 0xFFFFFFFFFFFFFFFFFFFFFFFFFFFFFFFFFFFFFFFF AND DUP2 JUMP JUMPDEST PUSH2 0xE1E PUSH2 0x12AC JUMP JUMPDEST PUSH20 0xFFFFFFFFFFFFFFFFFFFFFFFFFFFFFFFFFFFFFFFF AND PUSH2 0xE3C PUSH2 0xDC7 JUMP JUMPDEST PUSH20 0xFFFFFFFFFFFFFFFFFFFFFFFFFFFFFFFFFFFFFFFF AND EQ PUSH2 0xE92 JUMPI PUSH1 0x40 MLOAD PUSH32 0x8C379A000000000000000000000000000000000000000000000000000000000 DUP2 MSTORE PUSH1 0x4 ADD PUSH2 0xE89 SWAP1 PUSH2 0x2357 JUMP JUMPDEST PUSH1 0x40 MLOAD DUP1 SWAP2 SUB SWAP1 REVERT JUMPDEST PUSH1 0x0 PUSH20 0xFFFFFFFFFFFFFFFFFFFFFFFFFFFFFFFFFFFFFFFF AND DUP2 PUSH20 0xFFFFFFFFFFFFFFFFFFFFFFFFFFFFFFFFFFFFFFFF AND EQ ISZERO PUSH2 0xF02 JUMPI PUSH1 0x40 MLOAD PUSH32 0x8C379A000000000000000000000000000000000000000000000000000000000 DUP2 MSTORE PUSH1 0x4 ADD PUSH2 0xEF9 SWAP1 PUSH2 0x2317 JUMP JUMPDEST PUSH1 0x40 MLOAD DUP1 SWAP2 SUB SWAP1 REVERT JUMPDEST PUSH2 0xF0B DUP2 PUSH2 0x12B4 JUMP JUMPDEST POP JUMP JUMPDEST PUSH1 0x1 PUSH1 0x20 MSTORE DUP1 PUSH1 0x0 MSTORE PUSH1 0x40 PUSH1 0x0 KECCAK256 PUSH1 0x0 SWAP2 POP SWAP1 POP DUP1 PUSH1 0x0 ADD PUSH1 0x0 SWAP1 SLOAD SWAP1 PUSH2 0x100 EXP SWAP1 DIV PUSH20 0xFFFFFFFFFFFFFFFFFFFFFFFFFFFFFFFFFFFFFFFF AND SWAP1 DUP1 PUSH1 0x1 ADD PUSH1 0x0 SWAP1 SLOAD SWAP1 PUSH2 0x100 EXP SWAP1 DIV PUSH20 0xFFFFFFFFFFFFFFFFFFFFFFFFFFFFFFFFFFFFFFFF AND SWAP1 DUP1 PUSH1 0x2 ADD SLOAD SWAP1 DUP1 PUSH1 0x3 ADD PUSH1 0x0 SWAP1 SLOAD SWAP1 PUSH2 0x100 EXP SWAP1 DIV PUSH1 0xFF AND SWAP1 DUP1 PUSH1 0x3 ADD PUSH1 0x1 SWAP1 SLOAD SWAP1 PUSH2 0x100 EXP SWAP1 DIV PUSH1 0xFF AND SWAP1 POP DUP6 JUMP JUMPDEST PUSH1 0x0 PUSH1 0x1 PUSH1 0x2 DUP2 GT ISZERO PUSH2 0xFB4 JUMPI PUSH2 0xFB3 PUSH2 0x2646 JUMP JUMPDEST JUMPDEST DUP3 PUSH1 0x3 ADD PUSH1 0x1 SWAP1 SLOAD SWAP1 PUSH2 0x100 EXP SWAP1 DIV PUSH1 0xFF AND PUSH1 0x2 DUP2 GT ISZERO PUSH2 0xFD8 JUMPI PUSH2 0xFD7 PUSH2 0x2646 JUMP JUMPDEST JUMPDEST EQ ISZERO PUSH2 0x100A JUMPI DUP2 PUSH1 0x0 ADD PUSH1 0x0 SWAP1 SLOAD SWAP1 PUSH2 0x100 EXP SWAP1 DIV PUSH20 0xFFFFFFFFFFFFFFFFFFFFFFFFFFFFFFFFFFFFFFFF AND SWAP1 POP PUSH2 0x1078 JUMP JUMPDEST PUSH1 0x2 DUP1 DUP2 GT ISZERO PUSH2 0x101D JUMPI PUSH2 0x101C PUSH2 0x2646 JUMP JUMPDEST JUMPDEST DUP3 PUSH1 0x3 ADD PUSH1 0x1 SWAP1 SLOAD SWAP1 PUSH2 0x100 EXP SWAP1 DIV PUSH1 0xFF AND PUSH1 0x2 DUP2 GT ISZERO PUSH2 0x1041 JUMPI PUSH2 0x1040 PUSH2 0x2646 JUMP JUMPDEST JUMPDEST EQ ISZERO PUSH2 0x1073 JUMPI DUP2 PUSH1 0x1 ADD PUSH1 0x0 SWAP1 SLOAD SWAP1 PUSH2 0x100 EXP SWAP1 DIV PUSH20 0xFFFFFFFFFFFFFFFFFFFFFFFFFFFFFFFFFFFFFFFF AND SWAP1 POP PUSH2 0x1078 JUMP JUMPDEST PUSH1 0x0 SWAP1 POP JUMPDEST SWAP2 SWAP1 POP JUMP JUMPDEST PUSH1 0x0 DUP1 PUSH2 0x1089 DUP4 PUSH2 0x1378 JUMP JUMPDEST SWAP1 POP PUSH1 0x1 PUSH1 0x2 DUP2 GT ISZERO PUSH2 0x109F JUMPI PUSH2 0x109E PUSH2 0x2646 JUMP JUMPDEST JUMPDEST DUP2 PUSH1 0x2 DUP2 GT ISZERO PUSH2 0x10B2 JUMPI PUSH2 0x10B1 PUSH2 0x2646 JUMP JUMPDEST JUMPDEST EQ ISZERO PUSH2 0x10C2 JUMPI PUSH1 0x1 SWAP2 POP POP PUSH2 0x1206 JUMP JUMPDEST PUSH1 0x2 DUP1 DUP2 GT ISZERO PUSH2 0x10D5 JUMPI PUSH2 0x10D4 PUSH2 0x2646 JUMP JUMPDEST JUMPDEST DUP2 PUSH1 0x2 DUP2 GT ISZERO PUSH2 0x10E8 JUMPI PUSH2 0x10E7 PUSH2 0x2646 JUMP JUMPDEST JUMPDEST EQ ISZERO PUSH2 0x10F8 JUMPI PUSH1 0x2 SWAP2 POP POP PUSH2 0x1206 JUMP JUMPDEST PUSH2 0x1101 DUP4 PUSH2 0x156B JUMP JUMPDEST SWAP1 POP PUSH1 0x1 PUSH1 0x2 DUP2 GT ISZERO PUSH2 0x1117 JUMPI PUSH2 0x1116 PUSH2 0x2646 JUMP JUMPDEST JUMPDEST DUP2 PUSH1 0x2 DUP2 GT ISZERO PUSH2 0x112A JUMPI PUSH2 0x1129 PUSH2 0x2646 JUMP JUMPDEST JUMPDEST EQ ISZERO PUSH2 0x113A JUMPI PUSH1 0x1 SWAP2 POP POP PUSH2 0x1206 JUMP JUMPDEST PUSH1 0x2 DUP1 DUP2 GT ISZERO PUSH2 0x114D JUMPI PUSH2 0x114C PUSH2 0x2646 JUMP JUMPDEST JUMPDEST DUP2 PUSH1 0x2 DUP2 GT ISZERO PUSH2 0x1160 JUMPI PUSH2 0x115F PUSH2 0x2646 JUMP JUMPDEST JUMPDEST EQ ISZERO PUSH2 0x1170 JUMPI PUSH1 0x2 SWAP2 POP POP PUSH2 0x1206 JUMP JUMPDEST PUSH2 0x1179 DUP4 PUSH2 0x175E JUMP JUMPDEST SWAP1 POP PUSH1 0x1 PUSH1 0x2 DUP2 GT ISZERO PUSH2 0x118F JUMPI PUSH2 0x118E PUSH2 0x2646 JUMP JUMPDEST JUMPDEST DUP2 PUSH1 0x2 DUP2 GT ISZERO PUSH2 0x11A2 JUMPI PUSH2 0x11A1 PUSH2 0x2646 JUMP JUMPDEST JUMPDEST EQ ISZERO PUSH2 0x11B2 JUMPI PUSH1 0x1 SWAP2 POP POP PUSH2 0x1206 JUMP JUMPDEST PUSH1 0x2 DUP1 DUP2 GT ISZERO PUSH2 0x11C5 JUMPI PUSH2 0x11C4 PUSH2 0x2646 JUMP JUMPDEST JUMPDEST DUP2 PUSH1 0x2 DUP2 GT ISZERO PUSH2 0x11D8 JUMPI PUSH2 0x11D7 PUSH2 0x2646 JUMP JUMPDEST JUMPDEST EQ ISZERO PUSH2 0x11E8 JUMPI PUSH1 0x2 SWAP2 POP POP PUSH2 0x1206 JUMP JUMPDEST PUSH2 0x11F1 DUP4 PUSH2 0x1AD2 JUMP JUMPDEST ISZERO PUSH2 0x1200 JUMPI PUSH1 0x3 SWAP2 POP POP PUSH2 0x1206 JUMP JUMPDEST PUSH1 0x0 SWAP2 POP POP JUMPDEST SWAP2 SWAP1 POP JUMP JUMPDEST PUSH1 0x1 PUSH1 0x2 DUP2 GT ISZERO PUSH2 0x121F JUMPI PUSH2 0x121E PUSH2 0x2646 JUMP JUMPDEST JUMPDEST DUP2 PUSH1 0x3 ADD PUSH1 0x1 SWAP1 SLOAD SWAP1 PUSH2 0x100 EXP SWAP1 DIV PUSH1 0xFF AND PUSH1 0x2 DUP2 GT ISZERO PUSH2 0x1243 JUMPI PUSH2 0x1242 PUSH2 0x2646 JUMP JUMPDEST JUMPDEST EQ ISZERO PUSH2 0x127B JUMPI PUSH1 0x2 DUP2 PUSH1 0x3 ADD PUSH1 0x1 PUSH2 0x100 EXP DUP2 SLOAD DUP2 PUSH1 0xFF MUL NOT AND SWAP1 DUP4 PUSH1 0x2 DUP2 GT ISZERO PUSH2 0x1271 JUMPI PUSH2 0x1270 PUSH2 0x2646 JUMP JUMPDEST JUMPDEST MUL OR SWAP1 SSTORE POP PUSH2 0x12A9 JUMP JUMPDEST PUSH1 0x1 DUP2 PUSH1 0x3 ADD PUSH1 0x1 PUSH2 0x100 EXP DUP2 SLOAD DUP2 PUSH1 0xFF MUL NOT AND SWAP1 DUP4 PUSH1 0x2 DUP2 GT ISZERO PUSH2 0x12A3 JUMPI PUSH2 0x12A2 PUSH2 0x2646 JUMP JUMPDEST JUMPDEST MUL OR SWAP1 SSTORE POP JUMPDEST POP JUMP JUMPDEST PUSH1 0x0 CALLER SWAP1 POP SWAP1 JUMP JUMPDEST PUSH1 0x0 DUP1 PUSH1 0x0 SWAP1 SLOAD SWAP1 PUSH2 0x100 EXP SWAP1 DIV PUSH20 0xFFFFFFFFFFFFFFFFFFFFFFFFFFFFFFFFFFFFFFFF AND SWAP1 POP DUP2 PUSH1 0x0 DUP1 PUSH2 0x100 EXP DUP2 SLOAD DUP2 PUSH20 0xFFFFFFFFFFFFFFFFFFFFFFFFFFFFFFFFFFFFFFFF MUL NOT AND SWAP1 DUP4 PUSH20 0xFFFFFFFFFFFFFFFFFFFFFFFFFFFFFFFFFFFFFFFF AND MUL OR SWAP1 SSTORE POP DUP2 PUSH20 0xFFFFFFFFFFFFFFFFFFFFFFFFFFFFFFFFFFFFFFFF AND DUP2 PUSH20 0xFFFFFFFFFFFFFFFFFFFFFFFFFFFFFFFFFFFFFFFF AND PUSH32 0x8BE0079C531659141344CD1FD0A4F28419497F9722A3DAAFE3B4186F6B6457E0 PUSH1 0x40 MLOAD PUSH1 0x40 MLOAD DUP1 SWAP2 SUB SWAP1 LOG3 POP POP JUMP JUMPDEST PUSH1 0x0 DUP1 PUSH1 0x0 SWAP1 POP JUMPDEST PUSH1 0x3 DUP2 PUSH1 0xFF AND LT ISZERO PUSH2 0x1560 JUMPI DUP3 DUP2 PUSH1 0xFF AND PUSH1 0x3 DUP2 LT PUSH2 0x13A2 JUMPI PUSH2 0x13A1 PUSH2 0x2675 JUMP JUMPDEST JUMPDEST PUSH1 0x20 MUL ADD MLOAD PUSH1 0x1 PUSH1 0x3 DUP2 LT PUSH2 0x13BA JUMPI PUSH2 0x13B9 PUSH2 0x2675 JUMP JUMPDEST JUMPDEST PUSH1 0x20 MUL ADD MLOAD PUSH1 0x2 DUP2 GT ISZERO PUSH2 0x13D1 JUMPI PUSH2 0x13D0 PUSH2 0x2646 JUMP JUMPDEST JUMPDEST DUP4 DUP3 PUSH1 0xFF AND PUSH1 0x3 DUP2 LT PUSH2 0x13E7 JUMPI PUSH2 0x13E6 PUSH2 0x2675 JUMP JUMPDEST JUMPDEST PUSH1 0x20 MUL ADD MLOAD PUSH1 0x0 PUSH1 0x3 DUP2 LT PUSH2 0x13FF JUMPI PUSH2 0x13FE PUSH2 0x2675 JUMP JUMPDEST JUMPDEST PUSH1 0x20 MUL ADD MLOAD PUSH1 0x2 DUP2 GT ISZERO PUSH2 0x1416 JUMPI PUSH2 0x1415 PUSH2 0x2646 JUMP JUMPDEST JUMPDEST EQ DUP1 ISZERO PUSH2 0x14AA JUMPI POP DUP3 DUP2 PUSH1 0xFF AND PUSH1 0x3 DUP2 LT PUSH2 0x1434 JUMPI PUSH2 0x1433 PUSH2 0x2675 JUMP JUMPDEST JUMPDEST PUSH1 0x20 MUL ADD MLOAD PUSH1 0x2 PUSH1 0x3 DUP2 LT PUSH2 0x144C JUMPI PUSH2 0x144B PUSH2 0x2675 JUMP JUMPDEST JUMPDEST PUSH1 0x20 MUL ADD MLOAD PUSH1 0x2 DUP2 GT ISZERO PUSH2 0x1463 JUMPI PUSH2 0x1462 PUSH2 0x2646 JUMP JUMPDEST JUMPDEST DUP4 DUP3 PUSH1 0xFF AND PUSH1 0x3 DUP2 LT PUSH2 0x1479 JUMPI PUSH2 0x1478 PUSH2 0x2675 JUMP JUMPDEST JUMPDEST PUSH1 0x20 MUL ADD MLOAD PUSH1 0x1 PUSH1 0x3 DUP2 LT PUSH2 0x1491 JUMPI PUSH2 0x1490 PUSH2 0x2675 JUMP JUMPDEST JUMPDEST PUSH1 0x20 MUL ADD MLOAD PUSH1 0x2 DUP2 GT ISZERO PUSH2 0x14A8 JUMPI PUSH2 0x14A7 PUSH2 0x2646 JUMP JUMPDEST JUMPDEST EQ JUMPDEST DUP1 ISZERO PUSH2 0x150D JUMPI POP PUSH1 0x0 PUSH1 0x2 DUP2 GT ISZERO PUSH2 0x14C5 JUMPI PUSH2 0x14C4 PUSH2 0x2646 JUMP JUMPDEST JUMPDEST DUP4 DUP3 PUSH1 0xFF AND PUSH1 0x3 DUP2 LT PUSH2 0x14DB JUMPI PUSH2 0x14DA PUSH2 0x2675 JUMP JUMPDEST JUMPDEST PUSH1 0x20 MUL ADD MLOAD PUSH1 0x0 PUSH1 0x3 DUP2 LT PUSH2 0x14F3 JUMPI PUSH2 0x14F2 PUSH2 0x2675 JUMP JUMPDEST JUMPDEST PUSH1 0x20 MUL ADD MLOAD PUSH1 0x2 DUP2 GT ISZERO PUSH2 0x150A JUMPI PUSH2 0x1509 PUSH2 0x2646 JUMP JUMPDEST JUMPDEST EQ ISZERO JUMPDEST ISZERO PUSH2 0x154D JUMPI DUP3 DUP2 PUSH1 0xFF AND PUSH1 0x3 DUP2 LT PUSH2 0x1528 JUMPI PUSH2 0x1527 PUSH2 0x2675 JUMP JUMPDEST JUMPDEST PUSH1 0x20 MUL ADD MLOAD PUSH1 0x0 PUSH1 0x3 DUP2 LT PUSH2 0x1540 JUMPI PUSH2 0x153F PUSH2 0x2675 JUMP JUMPDEST JUMPDEST PUSH1 0x20 MUL ADD MLOAD SWAP2 POP POP PUSH2 0x1566 JUMP JUMPDEST DUP1 DUP1 PUSH2 0x1558 SWAP1 PUSH2 0x25ED JUMP JUMPDEST SWAP2 POP POP PUSH2 0x1380 JUMP JUMPDEST POP PUSH1 0x0 SWAP1 POP JUMPDEST SWAP2 SWAP1 POP JUMP JUMPDEST PUSH1 0x0 DUP1 PUSH1 0x0 SWAP1 POP JUMPDEST PUSH1 0x3 DUP2 PUSH1 0xFF AND LT ISZERO PUSH2 0x1753 JUMPI DUP3 PUSH1 0x1 PUSH1 0x3 DUP2 LT PUSH2 0x1593 JUMPI PUSH2 0x1592 PUSH2 0x2675 JUMP JUMPDEST JUMPDEST PUSH1 0x20 MUL ADD MLOAD DUP2 PUSH1 0xFF AND PUSH1 0x3 DUP2 LT PUSH2 0x15AD JUMPI PUSH2 0x15AC PUSH2 0x2675 JUMP JUMPDEST JUMPDEST PUSH1 0x20 MUL ADD MLOAD PUSH1 0x2 DUP2 GT ISZERO PUSH2 0x15C4 JUMPI PUSH2 0x15C3 PUSH2 0x2646 JUMP JUMPDEST JUMPDEST DUP4 PUSH1 0x0 PUSH1 0x3 DUP2 LT PUSH2 0x15D8 JUMPI PUSH2 0x15D7 PUSH2 0x2675 JUMP JUMPDEST JUMPDEST PUSH1 0x20 MUL ADD MLOAD DUP3 PUSH1 0xFF AND PUSH1 0x3 DUP2 LT PUSH2 0x15F2 JUMPI PUSH2 0x15F1 PUSH2 0x2675 JUMP JUMPDEST JUMPDEST PUSH1 0x20 MUL ADD MLOAD PUSH1 0x2 DUP2 GT ISZERO PUSH2 0x1609 JUMPI PUSH2 0x1608 PUSH2 0x2646 JUMP JUMPDEST JUMPDEST EQ DUP1 ISZERO PUSH2 0x169D JUMPI POP DUP3 PUSH1 0x2 PUSH1 0x3 DUP2 LT PUSH2 0x1625 JUMPI PUSH2 0x1624 PUSH2 0x2675 JUMP JUMPDEST JUMPDEST PUSH1 0x20 MUL ADD MLOAD DUP2 PUSH1 0xFF AND PUSH1 0x3 DUP2 LT PUSH2 0x163F JUMPI PUSH2 0x163E PUSH2 0x2675 JUMP JUMPDEST JUMPDEST PUSH1 0x20 MUL ADD MLOAD PUSH1 0x2 DUP2 GT ISZERO PUSH2 0x1656 JUMPI PUSH2 0x1655 PUSH2 0x2646 JUMP JUMPDEST JUMPDEST DUP4 PUSH1 0x1 PUSH1 0x3 DUP2 LT PUSH2 0x166A JUMPI PUSH2 0x1669 PUSH2 0x2675 JUMP JUMPDEST JUMPDEST PUSH1 0x20 MUL ADD MLOAD DUP3 PUSH1 0xFF AND PUSH1 0x3 DUP2 LT PUSH2 0x1684 JUMPI PUSH2 0x1683 PUSH2 0x2675 JUMP JUMPDEST JUMPDEST PUSH1 0x20 MUL ADD MLOAD PUSH1 0x2 DUP2 GT ISZERO PUSH2 0x169B JUMPI PUSH2 0x169A PUSH2 0x2646 JUMP JUMPDEST JUMPDEST EQ JUMPDEST DUP1 ISZERO PUSH2 0x1700 JUMPI POP PUSH1 0x0 PUSH1 0x2 DUP2 GT ISZERO PUSH2 0x16B8 JUMPI PUSH2 0x16B7 PUSH2 0x2646 JUMP JUMPDEST JUMPDEST DUP4 PUSH1 0x0 PUSH1 0x3 DUP2 LT PUSH2 0x16CC JUMPI PUSH2 0x16CB PUSH2 0x2675 JUMP JUMPDEST JUMPDEST PUSH1 0x20 MUL ADD MLOAD DUP3 PUSH1 0xFF AND PUSH1 0x3 DUP2 LT PUSH2 0x16E6 JUMPI PUSH2 0x16E5 PUSH2 0x2675 JUMP JUMPDEST JUMPDEST PUSH1 0x20 MUL ADD MLOAD PUSH1 0x2 DUP2 GT ISZERO PUSH2 0x16FD JUMPI PUSH2 0x16FC PUSH2 0x2646 JUMP JUMPDEST JUMPDEST EQ ISZERO JUMPDEST ISZERO PUSH2 0x1740 JUMPI DUP3 PUSH1 0x0 PUSH1 0x3 DUP2 LT PUSH2 0x1719 JUMPI PUSH2 0x1718 PUSH2 0x2675 JUMP JUMPDEST JUMPDEST PUSH1 0x20 MUL ADD MLOAD DUP2 PUSH1 0xFF AND PUSH1 0x3 DUP2 LT PUSH2 0x1733 JUMPI PUSH2 0x1732 PUSH2 0x2675 JUMP JUMPDEST JUMPDEST PUSH1 0x20 MUL ADD MLOAD SWAP2 POP POP PUSH2 0x1759 JUMP JUMPDEST DUP1 DUP1 PUSH2 0x174B SWAP1 PUSH2 0x25ED JUMP JUMPDEST SWAP2 POP POP PUSH2 0x1573 JUMP JUMPDEST POP PUSH1 0x0 SWAP1 POP JUMPDEST SWAP2 SWAP1 POP JUMP JUMPDEST PUSH1 0x0 DUP2 PUSH1 0x1 PUSH1 0x3 DUP2 LT PUSH2 0x1774 JUMPI PUSH2 0x1773 PUSH2 0x2675 JUMP JUMPDEST JUMPDEST PUSH1 0x20 MUL ADD MLOAD PUSH1 0x1 PUSH1 0x3 DUP2 LT PUSH2 0x178C JUMPI PUSH2 0x178B PUSH2 0x2675 JUMP JUMPDEST JUMPDEST PUSH1 0x20 MUL ADD MLOAD PUSH1 0x2 DUP2 GT ISZERO PUSH2 0x17A3 JUMPI PUSH2 0x17A2 PUSH2 0x2646 JUMP JUMPDEST JUMPDEST DUP3 PUSH1 0x0 PUSH1 0x3 DUP2 LT PUSH2 0x17B7 JUMPI PUSH2 0x17B6 PUSH2 0x2675 JUMP JUMPDEST JUMPDEST PUSH1 0x20 MUL ADD MLOAD PUSH1 0x0 PUSH1 0x3 DUP2 LT PUSH2 0x17CF JUMPI PUSH2 0x17CE PUSH2 0x2675 JUMP JUMPDEST JUMPDEST PUSH1 0x20 MUL ADD MLOAD PUSH1 0x2 DUP2 GT ISZERO PUSH2 0x17E6 JUMPI PUSH2 0x17E5 PUSH2 0x2646 JUMP JUMPDEST JUMPDEST EQ DUP1 ISZERO PUSH2 0x1876 JUMPI POP DUP2 PUSH1 0x2 PUSH1 0x3 DUP2 LT PUSH2 0x1802 JUMPI PUSH2 0x1801 PUSH2 0x2675 JUMP JUMPDEST JUMPDEST PUSH1 0x20 MUL ADD MLOAD PUSH1 0x2 PUSH1 0x3 DUP2 LT PUSH2 0x181A JUMPI PUSH2 0x1819 PUSH2 0x2675 JUMP JUMPDEST JUMPDEST PUSH1 0x20 MUL ADD MLOAD PUSH1 0x2 DUP2 GT ISZERO PUSH2 0x1831 JUMPI PUSH2 0x1830 PUSH2 0x2646 JUMP JUMPDEST JUMPDEST DUP3 PUSH1 0x1 PUSH1 0x3 DUP2 LT PUSH2 0x1845 JUMPI PUSH2 0x1844 PUSH2 0x2675 JUMP JUMPDEST JUMPDEST PUSH1 0x20 MUL ADD MLOAD PUSH1 0x1 PUSH1 0x3 DUP2 LT PUSH2 0x185D JUMPI PUSH2 0x185C PUSH2 0x2675 JUMP JUMPDEST JUMPDEST PUSH1 0x20 MUL ADD MLOAD PUSH1 0x2 DUP2 GT ISZERO PUSH2 0x1874 JUMPI PUSH2 0x1873 PUSH2 0x2646 JUMP JUMPDEST JUMPDEST EQ JUMPDEST DUP1 ISZERO PUSH2 0x18D7 JUMPI POP PUSH1 0x0 PUSH1 0x2 DUP2 GT ISZERO PUSH2 0x1891 JUMPI PUSH2 0x1890 PUSH2 0x2646 JUMP JUMPDEST JUMPDEST DUP3 PUSH1 0x0 PUSH1 0x3 DUP2 LT PUSH2 0x18A5 JUMPI PUSH2 0x18A4 PUSH2 0x2675 JUMP JUMPDEST JUMPDEST PUSH1 0x20 MUL ADD MLOAD PUSH1 0x0 PUSH1 0x3 DUP2 LT PUSH2 0x18BD JUMPI PUSH2 0x18BC PUSH2 0x2675 JUMP JUMPDEST JUMPDEST PUSH1 0x20 MUL ADD MLOAD PUSH1 0x2 DUP2 GT ISZERO PUSH2 0x18D4 JUMPI PUSH2 0x18D3 PUSH2 0x2646 JUMP JUMPDEST JUMPDEST EQ ISZERO JUMPDEST ISZERO PUSH2 0x1914 JUMPI DUP2 PUSH1 0x0 PUSH1 0x3 DUP2 LT PUSH2 0x18F0 JUMPI PUSH2 0x18EF PUSH2 0x2675 JUMP JUMPDEST JUMPDEST PUSH1 0x20 MUL ADD MLOAD PUSH1 0x0 PUSH1 0x3 DUP2 LT PUSH2 0x1908 JUMPI PUSH2 0x1907 PUSH2 0x2675 JUMP JUMPDEST JUMPDEST PUSH1 0x20 MUL ADD MLOAD SWAP1 POP PUSH2 0x1ACD JUMP JUMPDEST DUP2 PUSH1 0x1 PUSH1 0x3 DUP2 LT PUSH2 0x1928 JUMPI PUSH2 0x1927 PUSH2 0x2675 JUMP JUMPDEST JUMPDEST PUSH1 0x20 MUL ADD MLOAD PUSH1 0x1 PUSH1 0x3 DUP2 LT PUSH2 0x1940 JUMPI PUSH2 0x193F PUSH2 0x2675 JUMP JUMPDEST JUMPDEST PUSH1 0x20 MUL ADD MLOAD PUSH1 0x2 DUP2 GT ISZERO PUSH2 0x1957 JUMPI PUSH2 0x1956 PUSH2 0x2646 JUMP JUMPDEST JUMPDEST DUP3 PUSH1 0x0 PUSH1 0x3 DUP2 LT PUSH2 0x196B JUMPI PUSH2 0x196A PUSH2 0x2675 JUMP JUMPDEST JUMPDEST PUSH1 0x20 MUL ADD MLOAD PUSH1 0x2 PUSH1 0x3 DUP2 LT PUSH2 0x1983 JUMPI PUSH2 0x1982 PUSH2 0x2675 JUMP JUMPDEST JUMPDEST PUSH1 0x20 MUL ADD MLOAD PUSH1 0x2 DUP2 GT ISZERO PUSH2 0x199A JUMPI PUSH2 0x1999 PUSH2 0x2646 JUMP JUMPDEST JUMPDEST EQ DUP1 ISZERO PUSH2 0x1A2A JUMPI POP DUP2 PUSH1 0x2 PUSH1 0x3 DUP2 LT PUSH2 0x19B6 JUMPI PUSH2 0x19B5 PUSH2 0x2675 JUMP JUMPDEST JUMPDEST PUSH1 0x20 MUL ADD MLOAD PUSH1 0x0 PUSH1 0x3 DUP2 LT PUSH2 0x19CE JUMPI PUSH2 0x19CD PUSH2 0x2675 JUMP JUMPDEST JUMPDEST PUSH1 0x20 MUL ADD MLOAD PUSH1 0x2 DUP2 GT ISZERO PUSH2 0x19E5 JUMPI PUSH2 0x19E4 PUSH2 0x2646 JUMP JUMPDEST JUMPDEST DUP3 PUSH1 0x1 PUSH1 0x3 DUP2 LT PUSH2 0x19F9 JUMPI PUSH2 0x19F8 PUSH2 0x2675 JUMP JUMPDEST JUMPDEST PUSH1 0x20 MUL ADD MLOAD PUSH1 0x1 PUSH1 0x3 DUP2 LT PUSH2 0x1A11 JUMPI PUSH2 0x1A10 PUSH2 0x2675 JUMP JUMPDEST JUMPDEST PUSH1 0x20 MUL ADD MLOAD PUSH1 0x2 DUP2 GT ISZERO PUSH2 0x1A28 JUMPI PUSH2 0x1A27 PUSH2 0x2646 JUMP JUMPDEST JUMPDEST EQ JUMPDEST DUP1 ISZERO PUSH2 0x1A8B JUMPI POP PUSH1 0x0 PUSH1 0x2 DUP2 GT ISZERO PUSH2 0x1A45 JUMPI PUSH2 0x1A44 PUSH2 0x2646 JUMP JUMPDEST JUMPDEST DUP3 PUSH1 0x0 PUSH1 0x3 DUP2 LT PUSH2 0x1A59 JUMPI PUSH2 0x1A58 PUSH2 0x2675 JUMP JUMPDEST JUMPDEST PUSH1 0x20 MUL ADD MLOAD PUSH1 0x2 PUSH1 0x3 DUP2 LT PUSH2 0x1A71 JUMPI PUSH2 0x1A70 PUSH2 0x2675 JUMP JUMPDEST JUMPDEST PUSH1 0x20 MUL ADD MLOAD PUSH1 0x2 DUP2 GT ISZERO PUSH2 0x1A88 JUMPI PUSH2 0x1A87 PUSH2 0x2646 JUMP JUMPDEST JUMPDEST EQ ISZERO JUMPDEST ISZERO PUSH2 0x1AC8 JUMPI DUP2 PUSH1 0x0 PUSH1 0x3 DUP2 LT PUSH2 0x1AA4 JUMPI PUSH2 0x1AA3 PUSH2 0x2675 JUMP JUMPDEST JUMPDEST PUSH1 0x20 MUL ADD MLOAD PUSH1 0x2 PUSH1 0x3 DUP2 LT PUSH2 0x1ABC JUMPI PUSH2 0x1ABB PUSH2 0x2675 JUMP JUMPDEST JUMPDEST PUSH1 0x20 MUL ADD MLOAD SWAP1 POP PUSH2 0x1ACD JUMP JUMPDEST PUSH1 0x0 SWAP1 POP JUMPDEST SWAP2 SWAP1 POP JUMP JUMPDEST PUSH1 0x0 DUP1 PUSH1 0x0 SWAP1 POP JUMPDEST PUSH1 0x3 DUP2 PUSH1 0xFF AND LT ISZERO PUSH2 0x1B88 JUMPI PUSH1 0x0 JUMPDEST PUSH1 0x3 DUP2 PUSH1 0xFF AND LT ISZERO PUSH2 0x1B74 JUMPI PUSH1 0x0 PUSH1 0x2 DUP2 GT ISZERO PUSH2 0x1B09 JUMPI PUSH2 0x1B08 PUSH2 0x2646 JUMP JUMPDEST JUMPDEST DUP5 DUP4 PUSH1 0xFF AND PUSH1 0x3 DUP2 LT PUSH2 0x1B1F JUMPI PUSH2 0x1B1E PUSH2 0x2675 JUMP JUMPDEST JUMPDEST PUSH1 0x20 MUL ADD MLOAD DUP3 PUSH1 0xFF AND PUSH1 0x3 DUP2 LT PUSH2 0x1B39 JUMPI PUSH2 0x1B38 PUSH2 0x2675 JUMP JUMPDEST JUMPDEST PUSH1 0x20 MUL ADD MLOAD PUSH1 0x2 DUP2 GT ISZERO PUSH2 0x1B50 JUMPI PUSH2 0x1B4F PUSH2 0x2646 JUMP JUMPDEST JUMPDEST EQ ISZERO PUSH2 0x1B61 JUMPI PUSH1 0x0 SWAP3 POP POP POP PUSH2 0x1B8E JUMP JUMPDEST DUP1 DUP1 PUSH2 0x1B6C SWAP1 PUSH2 0x25ED JUMP JUMPDEST SWAP2 POP POP PUSH2 0x1AE9 JUMP JUMPDEST POP DUP1 DUP1 PUSH2 0x1B80 SWAP1 PUSH2 0x25ED JUMP JUMPDEST SWAP2 POP POP PUSH2 0x1ADA JUMP JUMPDEST POP PUSH1 0x1 SWAP1 POP JUMPDEST SWAP2 SWAP1 POP JUMP JUMPDEST PUSH1 0x40 MLOAD DUP1 PUSH1 0x60 ADD PUSH1 0x40 MSTORE DUP1 PUSH1 0x3 SWAP1 JUMPDEST PUSH2 0x1BAA PUSH2 0x1BC0 JUMP JUMPDEST DUP2 MSTORE PUSH1 0x20 ADD SWAP1 PUSH1 0x1 SWAP1 SUB SWAP1 DUP2 PUSH2 0x1BA2 JUMPI SWAP1 POP POP SWAP1 JUMP JUMPDEST PUSH1 0x40 MLOAD DUP1 PUSH1 0x60 ADD PUSH1 0x40 MSTORE DUP1 PUSH1 0x3 SWAP1 PUSH1 0x20 DUP3 MUL DUP1 CALLDATASIZE DUP4 CALLDATACOPY DUP1 DUP3 ADD SWAP2 POP POP SWAP1 POP POP SWAP1 JUMP JUMPDEST PUSH1 0x0 DUP2 CALLDATALOAD SWAP1 POP PUSH2 0x1BF1 DUP2 PUSH2 0x27CB JUMP JUMPDEST SWAP3 SWAP2 POP POP JUMP JUMPDEST PUSH1 0x0 DUP2 CALLDATALOAD SWAP1 POP PUSH2 0x1C06 DUP2 PUSH2 0x27E2 JUMP JUMPDEST SWAP3 SWAP2 POP POP JUMP JUMPDEST PUSH1 0x0 DUP2 MLOAD SWAP1 POP PUSH2 0x1C1B DUP2 PUSH2 0x27E2 JUMP JUMPDEST SWAP3 SWAP2 POP POP JUMP JUMPDEST PUSH1 0x0 DUP2 CALLDATALOAD SWAP1 POP PUSH2 0x1C30 DUP2 PUSH2 0x27F9 JUMP JUMPDEST SWAP3 SWAP2 POP POP JUMP JUMPDEST PUSH1 0x0 PUSH1 0x60 DUP3 DUP5 SUB SLT ISZERO PUSH2 0x1C4C JUMPI PUSH2 0x1C4B PUSH2 0x26D3 JUMP JUMPDEST JUMPDEST PUSH2 0x1C56 PUSH1 0x60 PUSH2 0x23D8 JUMP JUMPDEST SWAP1 POP PUSH1 0x0 PUSH2 0x1C66 DUP5 DUP3 DUP6 ADD PUSH2 0x1BE2 JUMP JUMPDEST PUSH1 0x0 DUP4 ADD MSTORE POP PUSH1 0x20 PUSH2 0x1C7A DUP5 DUP3 DUP6 ADD PUSH2 0x1BE2 JUMP JUMPDEST PUSH1 0x20 DUP4 ADD MSTORE POP PUSH1 0x40 PUSH2 0x1C8E DUP5 DUP3 DUP6 ADD PUSH2 0x1CFE JUMP JUMPDEST PUSH1 0x40 DUP4 ADD MSTORE POP SWAP3 SWAP2 POP POP JUMP JUMPDEST PUSH1 0x0 PUSH1 0x60 DUP3 DUP5 SUB SLT ISZERO PUSH2 0x1CB0 JUMPI PUSH2 0x1CAF PUSH2 0x26D3 JUMP JUMPDEST JUMPDEST PUSH2 0x1CBA PUSH1 0x60 PUSH2 0x23D8 JUMP JUMPDEST SWAP1 POP PUSH1 0x0 PUSH2 0x1CCA DUP5 DUP3 DUP6 ADD PUSH2 0x1D13 JUMP JUMPDEST PUSH1 0x0 DUP4 ADD MSTORE POP PUSH1 0x20 PUSH2 0x1CDE DUP5 DUP3 DUP6 ADD PUSH2 0x1BF7 JUMP JUMPDEST PUSH1 0x20 DUP4 ADD MSTORE POP PUSH1 0x40 PUSH2 0x1CF2 DUP5 DUP3 DUP6 ADD PUSH2 0x1BF7 JUMP JUMPDEST PUSH1 0x40 DUP4 ADD MSTORE POP SWAP3 SWAP2 POP POP JUMP JUMPDEST PUSH1 0x0 DUP2 CALLDATALOAD SWAP1 POP PUSH2 0x1D0D DUP2 PUSH2 0x2810 JUMP JUMPDEST SWAP3 SWAP2 POP POP JUMP JUMPDEST PUSH1 0x0 DUP2 CALLDATALOAD SWAP1 POP PUSH2 0x1D22 DUP2 PUSH2 0x2827 JUMP JUMPDEST SWAP3 SWAP2 POP POP JUMP JUMPDEST PUSH1 0x0 PUSH1 0x20 DUP3 DUP5 SUB SLT ISZERO PUSH2 0x1D3E JUMPI PUSH2 0x1D3D PUSH2 0x26D8 JUMP JUMPDEST JUMPDEST PUSH1 0x0 PUSH2 0x1D4C DUP5 DUP3 DUP6 ADD PUSH2 0x1BE2 JUMP JUMPDEST SWAP2 POP POP SWAP3 SWAP2 POP POP JUMP JUMPDEST PUSH1 0x0 PUSH1 0x20 DUP3 DUP5 SUB SLT ISZERO PUSH2 0x1D6B JUMPI PUSH2 0x1D6A PUSH2 0x26D8 JUMP JUMPDEST JUMPDEST PUSH1 0x0 PUSH2 0x1D79 DUP5 DUP3 DUP6 ADD PUSH2 0x1BF7 JUMP JUMPDEST SWAP2 POP POP SWAP3 SWAP2 POP POP JUMP JUMPDEST PUSH1 0x0 PUSH1 0x20 DUP3 DUP5 SUB SLT ISZERO PUSH2 0x1D98 JUMPI PUSH2 0x1D97 PUSH2 0x26D8 JUMP JUMPDEST JUMPDEST PUSH1 0x0 PUSH2 0x1DA6 DUP5 DUP3 DUP6 ADD PUSH2 0x1C0C JUMP JUMPDEST SWAP2 POP POP SWAP3 SWAP2 POP POP JUMP JUMPDEST PUSH1 0x0 DUP1 PUSH1 0x0 PUSH1 0x60 DUP5 DUP7 SUB SLT ISZERO PUSH2 0x1DC8 JUMPI PUSH2 0x1DC7 PUSH2 0x26D8 JUMP JUMPDEST JUMPDEST PUSH1 0x0 PUSH2 0x1DD6 DUP7 DUP3 DUP8 ADD PUSH2 0x1BF7 JUMP JUMPDEST SWAP4 POP POP PUSH1 0x20 PUSH2 0x1DE7 DUP7 DUP3 DUP8 ADD PUSH2 0x1CFE JUMP JUMPDEST SWAP3 POP POP PUSH1 0x40 PUSH2 0x1DF8 DUP7 DUP3 DUP8 ADD PUSH2 0x1CFE JUMP JUMPDEST SWAP2 POP POP SWAP3 POP SWAP3 POP SWAP3 JUMP JUMPDEST PUSH1 0x0 PUSH1 0x20 DUP3 DUP5 SUB SLT ISZERO PUSH2 0x1E18 JUMPI PUSH2 0x1E17 PUSH2 0x26D8 JUMP JUMPDEST JUMPDEST PUSH1 0x0 PUSH2 0x1E26 DUP5 DUP3 DUP6 ADD PUSH2 0x1C21 JUMP JUMPDEST SWAP2 POP POP SWAP3 SWAP2 POP POP JUMP JUMPDEST PUSH1 0x0 DUP1 PUSH1 0x0 PUSH2 0x120 DUP5 DUP7 SUB SLT ISZERO PUSH2 0x1E49 JUMPI PUSH2 0x1E48 PUSH2 0x26D8 JUMP JUMPDEST JUMPDEST PUSH1 0x0 PUSH2 0x1E57 DUP7 DUP3 DUP8 ADD PUSH2 0x1C36 JUMP JUMPDEST SWAP4 POP POP PUSH1 0x60 PUSH2 0x1E68 DUP7 DUP3 DUP8 ADD PUSH2 0x1C9A JUMP JUMPDEST SWAP3 POP POP PUSH1 0xC0 PUSH2 0x1E79 DUP7 DUP3 DUP8 ADD PUSH2 0x1C9A JUMP JUMPDEST SWAP2 POP POP SWAP3 POP SWAP3 POP SWAP3 JUMP JUMPDEST PUSH1 0x0 PUSH2 0x1E8F DUP4 DUP4 PUSH2 0x1F28 JUMP JUMPDEST PUSH1 0x60 DUP4 ADD SWAP1 POP SWAP3 SWAP2 POP POP JUMP JUMPDEST PUSH1 0x0 PUSH2 0x1EA7 DUP4 DUP4 PUSH2 0x1FCA JUMP JUMPDEST PUSH1 0x20 DUP4 ADD SWAP1 POP SWAP3 SWAP2 POP POP JUMP JUMPDEST PUSH2 0x1EBC DUP2 PUSH2 0x2473 JUMP JUMPDEST DUP3 MSTORE POP POP JUMP JUMPDEST PUSH2 0x1ECB DUP2 PUSH2 0x2473 JUMP JUMPDEST DUP3 MSTORE POP POP JUMP JUMPDEST PUSH2 0x1EDA DUP2 PUSH2 0x2411 JUMP JUMPDEST PUSH2 0x1EE4 DUP2 DUP5 PUSH2 0x244C JUMP JUMPDEST SWAP3 POP PUSH2 0x1EEF DUP3 PUSH2 0x23FD JUMP JUMPDEST DUP1 PUSH1 0x0 JUMPDEST DUP4 DUP2 LT ISZERO PUSH2 0x1F20 JUMPI DUP2 MLOAD PUSH2 0x1F07 DUP8 DUP3 PUSH2 0x1E83 JUMP JUMPDEST SWAP7 POP PUSH2 0x1F12 DUP4 PUSH2 0x2432 JUMP JUMPDEST SWAP3 POP POP PUSH1 0x1 DUP2 ADD SWAP1 POP PUSH2 0x1EF3 JUMP JUMPDEST POP POP POP POP POP POP JUMP JUMPDEST PUSH2 0x1F31 DUP2 PUSH2 0x241C JUMP JUMPDEST PUSH2 0x1F3B DUP2 DUP5 PUSH2 0x2457 JUMP JUMPDEST SWAP3 POP PUSH2 0x1F46 DUP3 PUSH2 0x2407 JUMP JUMPDEST DUP1 PUSH1 0x0 JUMPDEST DUP4 DUP2 LT ISZERO PUSH2 0x1F77 JUMPI DUP2 MLOAD PUSH2 0x1F5E DUP8 DUP3 PUSH2 0x1E9B JUMP JUMPDEST SWAP7 POP PUSH2 0x1F69 DUP4 PUSH2 0x243F JUMP JUMPDEST SWAP3 POP POP PUSH1 0x1 DUP2 ADD SWAP1 POP PUSH2 0x1F4A JUMP JUMPDEST POP POP POP POP POP POP JUMP JUMPDEST PUSH2 0x1F88 DUP2 PUSH2 0x2485 JUMP JUMPDEST DUP3 MSTORE POP POP JUMP JUMPDEST PUSH2 0x1F97 DUP2 PUSH2 0x2491 JUMP JUMPDEST DUP3 MSTORE POP POP JUMP JUMPDEST PUSH2 0x1FA6 DUP2 PUSH2 0x2491 JUMP JUMPDEST DUP3 MSTORE POP POP JUMP JUMPDEST PUSH2 0x1FB5 DUP2 PUSH2 0x251D JUMP JUMPDEST DUP3 MSTORE POP POP JUMP JUMPDEST PUSH2 0x1FC4 DUP2 PUSH2 0x252F JUMP JUMPDEST DUP3 MSTORE POP POP JUMP JUMPDEST PUSH2 0x1FD3 DUP2 PUSH2 0x2541 JUMP JUMPDEST DUP3 MSTORE POP POP JUMP JUMPDEST PUSH2 0x1FE2 DUP2 PUSH2 0x2541 JUMP JUMPDEST DUP3 MSTORE POP POP JUMP JUMPDEST PUSH2 0x1FF1 DUP2 PUSH2 0x2553 JUMP JUMPDEST DUP3 MSTORE POP POP JUMP JUMPDEST PUSH1 0x0 PUSH2 0x2002 DUP3 PUSH2 0x2427 JUMP JUMPDEST PUSH2 0x200C DUP2 DUP6 PUSH2 0x2462 JUMP JUMPDEST SWAP4 POP PUSH2 0x201C DUP2 DUP6 PUSH1 0x20 DUP7 ADD PUSH2 0x2589 JUMP JUMPDEST PUSH2 0x2025 DUP2 PUSH2 0x26DD JUMP JUMPDEST DUP5 ADD SWAP2 POP POP SWAP3 SWAP2 POP POP JUMP JUMPDEST PUSH1 0x0 PUSH2 0x203D PUSH1 0x26 DUP4 PUSH2 0x2462 JUMP JUMPDEST SWAP2 POP PUSH2 0x2048 DUP3 PUSH2 0x26EE JUMP JUMPDEST PUSH1 0x40 DUP3 ADD SWAP1 POP SWAP2 SWAP1 POP JUMP JUMPDEST PUSH1 0x0 PUSH2 0x2060 PUSH1 0x19 DUP4 PUSH2 0x2462 JUMP JUMPDEST SWAP2 POP PUSH2 0x206B DUP3 PUSH2 0x273D JUMP JUMPDEST PUSH1 0x20 DUP3 ADD SWAP1 POP SWAP2 SWAP1 POP JUMP JUMPDEST PUSH1 0x0 PUSH2 0x2083 PUSH1 0x20 DUP4 PUSH2 0x2462 JUMP JUMPDEST SWAP2 POP PUSH2 0x208E DUP3 PUSH2 0x2766 JUMP JUMPDEST PUSH1 0x20 DUP3 ADD SWAP1 POP SWAP2 SWAP1 POP JUMP JUMPDEST PUSH1 0x60 DUP3 ADD PUSH1 0x0 DUP3 ADD MLOAD PUSH2 0x20AF PUSH1 0x0 DUP6 ADD DUP3 PUSH2 0x1EB3 JUMP JUMPDEST POP PUSH1 0x20 DUP3 ADD MLOAD PUSH2 0x20C2 PUSH1 0x20 DUP6 ADD DUP3 PUSH2 0x1EB3 JUMP JUMPDEST POP PUSH1 0x40 DUP3 ADD MLOAD PUSH2 0x20D5 PUSH1 0x40 DUP6 ADD DUP3 PUSH2 0x211D JUMP JUMPDEST POP POP POP POP JUMP JUMPDEST PUSH1 0x60 DUP3 ADD PUSH1 0x0 DUP3 ADD MLOAD PUSH2 0x20F1 PUSH1 0x0 DUP6 ADD DUP3 PUSH2 0x213B JUMP JUMPDEST POP PUSH1 0x20 DUP3 ADD MLOAD PUSH2 0x2104 PUSH1 0x20 DUP6 ADD DUP3 PUSH2 0x1F8E JUMP JUMPDEST POP PUSH1 0x40 DUP3 ADD MLOAD PUSH2 0x2117 PUSH1 0x40 DUP6 ADD DUP3 PUSH2 0x1F8E JUMP JUMPDEST POP POP POP POP JUMP JUMPDEST PUSH2 0x2126 DUP2 PUSH2 0x2506 JUMP JUMPDEST DUP3 MSTORE POP POP JUMP JUMPDEST PUSH2 0x2135 DUP2 PUSH2 0x2506 JUMP JUMPDEST DUP3 MSTORE POP POP JUMP JUMPDEST PUSH2 0x2144 DUP2 PUSH2 0x2510 JUMP JUMPDEST DUP3 MSTORE POP POP JUMP JUMPDEST PUSH2 0x2153 DUP2 PUSH2 0x2510 JUMP JUMPDEST DUP3 MSTORE POP POP JUMP JUMPDEST PUSH1 0x0 PUSH1 0x20 DUP3 ADD SWAP1 POP PUSH2 0x216E PUSH1 0x0 DUP4 ADD DUP5 PUSH2 0x1EC2 JUMP JUMPDEST SWAP3 SWAP2 POP POP JUMP JUMPDEST PUSH1 0x0 PUSH1 0xA0 DUP3 ADD SWAP1 POP PUSH2 0x2189 PUSH1 0x0 DUP4 ADD DUP9 PUSH2 0x1EC2 JUMP JUMPDEST PUSH2 0x2196 PUSH1 0x20 DUP4 ADD DUP8 PUSH2 0x1EC2 JUMP JUMPDEST PUSH2 0x21A3 PUSH1 0x40 DUP4 ADD DUP7 PUSH2 0x212C JUMP JUMPDEST PUSH2 0x21B0 PUSH1 0x60 DUP4 ADD DUP6 PUSH2 0x1FE8 JUMP JUMPDEST PUSH2 0x21BD PUSH1 0x80 DUP4 ADD DUP5 PUSH2 0x1FD9 JUMP JUMPDEST SWAP7 SWAP6 POP POP POP POP POP POP JUMP JUMPDEST PUSH1 0x0 PUSH2 0x120 DUP3 ADD SWAP1 POP PUSH2 0x21DD PUSH1 0x0 DUP4 ADD DUP5 PUSH2 0x1ED1 JUMP JUMPDEST SWAP3 SWAP2 POP POP JUMP JUMPDEST PUSH1 0x0 PUSH1 0x40 DUP3 ADD SWAP1 POP PUSH2 0x21F8 PUSH1 0x0 DUP4 ADD DUP6 PUSH2 0x1F7F JUMP JUMPDEST DUP2 DUP2 SUB PUSH1 0x20 DUP4 ADD MSTORE PUSH2 0x220A DUP2 DUP5 PUSH2 0x1FF7 JUMP JUMPDEST SWAP1 POP SWAP4 SWAP3 POP POP POP JUMP JUMPDEST PUSH1 0x0 PUSH1 0x20 DUP3 ADD SWAP1 POP PUSH2 0x2228 PUSH1 0x0 DUP4 ADD DUP5 PUSH2 0x1F9D JUMP JUMPDEST SWAP3 SWAP2 POP POP JUMP JUMPDEST PUSH1 0x0 PUSH1 0x40 DUP3 ADD SWAP1 POP PUSH2 0x2243 PUSH1 0x0 DUP4 ADD DUP6 PUSH2 0x1F9D JUMP JUMPDEST PUSH2 0x2250 PUSH1 0x20 DUP4 ADD DUP5 PUSH2 0x1EC2 JUMP JUMPDEST SWAP4 SWAP3 POP POP POP JUMP JUMPDEST PUSH1 0x0 PUSH1 0x80 DUP3 ADD SWAP1 POP PUSH2 0x226C PUSH1 0x0 DUP4 ADD DUP8 PUSH2 0x1F9D JUMP JUMPDEST PUSH2 0x2279 PUSH1 0x20 DUP4 ADD DUP7 PUSH2 0x1EC2 JUMP JUMPDEST PUSH2 0x2286 PUSH1 0x40 DUP4 ADD DUP6 PUSH2 0x212C JUMP JUMPDEST PUSH2 0x2293 PUSH1 0x60 DUP4 ADD DUP5 PUSH2 0x212C JUMP JUMPDEST SWAP6 SWAP5 POP POP POP POP POP JUMP JUMPDEST PUSH1 0x0 PUSH1 0x60 DUP3 ADD SWAP1 POP PUSH2 0x22B1 PUSH1 0x0 DUP4 ADD DUP7 PUSH2 0x1F9D JUMP JUMPDEST PUSH2 0x22BE PUSH1 0x20 DUP4 ADD DUP6 PUSH2 0x1EC2 JUMP JUMPDEST PUSH2 0x22CB PUSH1 0x40 DUP4 ADD DUP5 PUSH2 0x214A JUMP JUMPDEST SWAP5 SWAP4 POP POP POP POP JUMP JUMPDEST PUSH1 0x0 PUSH1 0x40 DUP3 ADD SWAP1 POP PUSH2 0x22E8 PUSH1 0x0 DUP4 ADD DUP6 PUSH2 0x1F9D JUMP JUMPDEST PUSH2 0x22F5 PUSH1 0x20 DUP4 ADD DUP5 PUSH2 0x1FE8 JUMP JUMPDEST SWAP4 SWAP3 POP POP POP JUMP JUMPDEST PUSH1 0x0 PUSH1 0x20 DUP3 ADD SWAP1 POP PUSH2 0x2311 PUSH1 0x0 DUP4 ADD DUP5 PUSH2 0x1FAC JUMP JUMPDEST SWAP3 SWAP2 POP POP JUMP JUMPDEST PUSH1 0x0 PUSH1 0x20 DUP3 ADD SWAP1 POP DUP2 DUP2 SUB PUSH1 0x0 DUP4 ADD MSTORE PUSH2 0x2330 DUP2 PUSH2 0x2030 JUMP JUMPDEST SWAP1 POP SWAP2 SWAP1 POP JUMP JUMPDEST PUSH1 0x0 PUSH1 0x20 DUP3 ADD SWAP1 POP DUP2 DUP2 SUB PUSH1 0x0 DUP4 ADD MSTORE PUSH2 0x2350 DUP2 PUSH2 0x2053 JUMP JUMPDEST SWAP1 POP SWAP2 SWAP1 POP JUMP JUMPDEST PUSH1 0x0 PUSH1 0x20 DUP3 ADD SWAP1 POP DUP2 DUP2 SUB PUSH1 0x0 DUP4 ADD MSTORE PUSH2 0x2370 DUP2 PUSH2 0x2076 JUMP JUMPDEST SWAP1 POP SWAP2 SWAP1 POP JUMP JUMPDEST PUSH1 0x0 PUSH1 0x80 DUP3 ADD SWAP1 POP PUSH2 0x238C PUSH1 0x0 DUP4 ADD DUP6 PUSH2 0x2099 JUMP JUMPDEST PUSH2 0x2399 PUSH1 0x60 DUP4 ADD DUP5 PUSH2 0x1FBB JUMP JUMPDEST SWAP4 SWAP3 POP POP POP JUMP JUMPDEST PUSH1 0x0 PUSH2 0x120 DUP3 ADD SWAP1 POP PUSH2 0x23B6 PUSH1 0x0 DUP4 ADD DUP7 PUSH2 0x2099 JUMP JUMPDEST PUSH2 0x23C3 PUSH1 0x60 DUP4 ADD DUP6 PUSH2 0x20DB JUMP JUMPDEST PUSH2 0x23D0 PUSH1 0xC0 DUP4 ADD DUP5 PUSH2 0x20DB JUMP JUMPDEST SWAP5 SWAP4 POP POP POP POP JUMP JUMPDEST PUSH1 0x0 PUSH2 0x23E2 PUSH2 0x23F3 JUMP JUMPDEST SWAP1 POP PUSH2 0x23EE DUP3 DUP3 PUSH2 0x25BC JUMP JUMPDEST SWAP2 SWAP1 POP JUMP JUMPDEST PUSH1 0x0 PUSH1 0x40 MLOAD SWAP1 POP SWAP1 JUMP JUMPDEST PUSH1 0x0 DUP2 SWAP1 POP SWAP2 SWAP1 POP JUMP JUMPDEST PUSH1 0x0 DUP2 SWAP1 POP SWAP2 SWAP1 POP JUMP JUMPDEST PUSH1 0x0 PUSH1 0x3 SWAP1 POP SWAP2 SWAP1 POP JUMP JUMPDEST PUSH1 0x0 PUSH1 0x3 SWAP1 POP SWAP2 SWAP1 POP JUMP JUMPDEST PUSH1 0x0 DUP2 MLOAD SWAP1 POP SWAP2 SWAP1 POP JUMP JUMPDEST PUSH1 0x0 PUSH1 0x20 DUP3 ADD SWAP1 POP SWAP2 SWAP1 POP JUMP JUMPDEST PUSH1 0x0 PUSH1 0x20 DUP3 ADD SWAP1 POP SWAP2 SWAP1 POP JUMP JUMPDEST PUSH1 0x0 DUP2 SWAP1 POP SWAP3 SWAP2 POP POP JUMP JUMPDEST PUSH1 0x0 DUP2 SWAP1 POP SWAP3 SWAP2 POP POP JUMP JUMPDEST PUSH1 0x0 DUP3 DUP3 MSTORE PUSH1 0x20 DUP3 ADD SWAP1 POP SWAP3 SWAP2 POP POP JUMP JUMPDEST PUSH1 0x0 PUSH2 0x247E DUP3 PUSH2 0x24E6 JUMP JUMPDEST SWAP1 POP SWAP2 SWAP1 POP JUMP JUMPDEST PUSH1 0x0 DUP2 ISZERO ISZERO SWAP1 POP SWAP2 SWAP1 POP JUMP JUMPDEST PUSH1 0x0 DUP2 SWAP1 POP SWAP2 SWAP1 POP JUMP JUMPDEST PUSH1 0x0 PUSH2 0x24A6 DUP3 PUSH2 0x2473 JUMP JUMPDEST SWAP1 POP SWAP2 SWAP1 POP JUMP JUMPDEST PUSH1 0x0 DUP2 SWAP1 POP PUSH2 0x24BB DUP3 PUSH2 0x278F JUMP JUMPDEST SWAP2 SWAP1 POP JUMP JUMPDEST PUSH1 0x0 DUP2 SWAP1 POP PUSH2 0x24CE DUP3 PUSH2 0x27A3 JUMP JUMPDEST SWAP2 SWAP1 POP JUMP JUMPDEST PUSH1 0x0 DUP2 SWAP1 POP PUSH2 0x24E1 DUP3 PUSH2 0x27B7 JUMP JUMPDEST SWAP2 SWAP1 POP JUMP JUMPDEST PUSH1 0x0 PUSH20 0xFFFFFFFFFFFFFFFFFFFFFFFFFFFFFFFFFFFFFFFF DUP3 AND SWAP1 POP SWAP2 SWAP1 POP JUMP JUMPDEST PUSH1 0x0 DUP2 SWAP1 POP SWAP2 SWAP1 POP JUMP JUMPDEST PUSH1 0x0 PUSH1 0xFF DUP3 AND SWAP1 POP SWAP2 SWAP1 POP JUMP JUMPDEST PUSH1 0x0 PUSH2 0x2528 DUP3 PUSH2 0x2565 JUMP JUMPDEST SWAP1 POP SWAP2 SWAP1 POP JUMP JUMPDEST PUSH1 0x0 PUSH2 0x253A DUP3 PUSH2 0x24AD JUMP JUMPDEST SWAP1 POP SWAP2 SWAP1 POP JUMP JUMPDEST PUSH1 0x0 PUSH2 0x254C DUP3 PUSH2 0x24C0 JUMP JUMPDEST SWAP1 POP SWAP2 SWAP1 POP JUMP JUMPDEST PUSH1 0x0 PUSH2 0x255E DUP3 PUSH2 0x24D3 JUMP JUMPDEST SWAP1 POP SWAP2 SWAP1 POP JUMP JUMPDEST PUSH1 0x0 PUSH2 0x2570 DUP3 PUSH2 0x2577 JUMP JUMPDEST SWAP1 POP SWAP2 SWAP1 POP JUMP JUMPDEST PUSH1 0x0 PUSH2 0x2582 DUP3 PUSH2 0x24E6 JUMP JUMPDEST SWAP1 POP SWAP2 SWAP1 POP JUMP JUMPDEST PUSH1 0x0 JUMPDEST DUP4 DUP2 LT ISZERO PUSH2 0x25A7 JUMPI DUP1 DUP3 ADD MLOAD DUP2 DUP5 ADD MSTORE PUSH1 0x20 DUP2 ADD SWAP1 POP PUSH2 0x258C JUMP JUMPDEST DUP4 DUP2 GT ISZERO PUSH2 0x25B6 JUMPI PUSH1 0x0 DUP5 DUP5 ADD MSTORE JUMPDEST POP POP POP POP JUMP JUMPDEST PUSH2 0x25C5 DUP3 PUSH2 0x26DD JUMP JUMPDEST DUP2 ADD DUP2 DUP2 LT PUSH8 0xFFFFFFFFFFFFFFFF DUP3 GT OR ISZERO PUSH2 0x25E4 JUMPI PUSH2 0x25E3 PUSH2 0x26A4 JUMP JUMPDEST JUMPDEST DUP1 PUSH1 0x40 MSTORE POP POP POP JUMP JUMPDEST PUSH1 0x0 PUSH2 0x25F8 DUP3 PUSH2 0x2510 JUMP JUMPDEST SWAP2 POP PUSH1 0xFF DUP3 EQ ISZERO PUSH2 0x260C JUMPI PUSH2 0x260B PUSH2 0x2617 JUMP JUMPDEST JUMPDEST PUSH1 0x1 DUP3 ADD SWAP1 POP SWAP2 SWAP1 POP JUMP JUMPDEST PUSH32 0x4E487B7100000000000000000000000000000000000000000000000000000000 PUSH1 0x0 MSTORE PUSH1 0x11 PUSH1 0x4 MSTORE PUSH1 0x24 PUSH1 0x0 REVERT JUMPDEST PUSH32 0x4E487B7100000000000000000000000000000000000000000000000000000000 PUSH1 0x0 MSTORE PUSH1 0x21 PUSH1 0x4 MSTORE PUSH1 0x24 PUSH1 0x0 REVERT JUMPDEST PUSH32 0x4E487B7100000000000000000000000000000000000000000000000000000000 PUSH1 0x0 MSTORE PUSH1 0x32 PUSH1 0x4 MSTORE PUSH1 0x24 PUSH1 0x0 REVERT JUMPDEST PUSH32 0x4E487B7100000000000000000000000000000000000000000000000000000000 PUSH1 0x0 MSTORE PUSH1 0x41 PUSH1 0x4 MSTORE PUSH1 0x24 PUSH1 0x0 REVERT JUMPDEST PUSH1 0x0 DUP1 REVERT JUMPDEST PUSH1 0x0 DUP1 REVERT JUMPDEST PUSH1 0x0 PUSH1 0x1F NOT PUSH1 0x1F DUP4 ADD AND SWAP1 POP SWAP2 SWAP1 POP JUMP JUMPDEST PUSH32 0x4F776E61626C653A206E6577206F776E657220697320746865207A65726F2061 PUSH1 0x0 DUP3 ADD MSTORE PUSH32 0x6464726573730000000000000000000000000000000000000000000000000000 PUSH1 0x20 DUP3 ADD MSTORE POP JUMP JUMPDEST PUSH32 0x726174696E672073797374656D206E6F7420646566696E656400000000000000 PUSH1 0x0 DUP3 ADD MSTORE POP JUMP JUMPDEST PUSH32 0x4F776E61626C653A2063616C6C6572206973206E6F7420746865206F776E6572 PUSH1 0x0 DUP3 ADD MSTORE POP JUMP JUMPDEST PUSH1 0x3 DUP2 LT PUSH2 0x27A0 JUMPI PUSH2 0x279F PUSH2 0x2646 JUMP JUMPDEST JUMPDEST POP JUMP JUMPDEST PUSH1 0x3 DUP2 LT PUSH2 0x27B4 JUMPI PUSH2 0x27B3 PUSH2 0x2646 JUMP JUMPDEST JUMPDEST POP JUMP JUMPDEST PUSH1 0x4 DUP2 LT PUSH2 0x27C8 JUMPI PUSH2 0x27C7 PUSH2 0x2646 JUMP JUMPDEST JUMPDEST POP JUMP JUMPDEST PUSH2 0x27D4 DUP2 PUSH2 0x2473 JUMP JUMPDEST DUP2 EQ PUSH2 0x27DF JUMPI PUSH1 0x0 DUP1 REVERT JUMPDEST POP JUMP JUMPDEST PUSH2 0x27EB DUP2 PUSH2 0x2491 JUMP JUMPDEST DUP2 EQ PUSH2 0x27F6 JUMPI PUSH1 0x0 DUP1 REVERT JUMPDEST POP JUMP JUMPDEST PUSH2 0x2802 DUP2 PUSH2 0x249B JUMP JUMPDEST DUP2 EQ PUSH2 0x280D JUMPI PUSH1 0x0 DUP1 REVERT JUMPDEST POP JUMP JUMPDEST PUSH2 0x2819 DUP2 PUSH2 0x2506 JUMP JUMPDEST DUP2 EQ PUSH2 0x2824 JUMPI PUSH1 0x0 DUP1 REVERT JUMPDEST POP JUMP JUMPDEST PUSH2 0x2830 DUP2 PUSH2 0x2510 JUMP JUMPDEST DUP2 EQ PUSH2 0x283B JUMPI PUSH1 0x0 DUP1 REVERT JUMPDEST POP JUMP INVALID SLOAD PUSH9 0x65726520697320616C PUSH19 0x656164792061206D61726B2061742074686520 PUSH8 0x6976656E20636F6F PUSH19 0x64696E617465732EA2646970667358221220FA 0xEA CALL 0xB2 0xAE 0xC9 OR ORIGIN 0x1F BYTE DUP9 0xE6 0x4D OR PUSH7 0x609E26C864504B 0xE3 0xCE SHL AND 0xA8 0x4F DUP7 GASPRICE 0xD2 PUSH13 0x64736F6C634300080700330000 "
		},
		"gasEstimates": {
			"creation": {
				"codeDepositCost": "2081000",
				"executionCost": "infinite",
				"totalCost": "infinite"
			},
			"external": {
				"_system()": "2644",
				"games(bytes32)": "infinite",
				"getGameBoard(bytes32)": "infinite",
				"makeMove(bytes32,uint256,uint256)": "infinite",
				"newGame((address,address,uint256),(uint8,bytes32,bytes32),(uint8,bytes32,bytes32))": "infinite",
				"owner()": "2544",
				"renounceOwnership()": "30441",
				"transferOwnership(address)": "30789",
				"updateRatingSystem(address)": "27050"
			},
			"internal": {
				"calculateWinner(enum TicTacToe.Players[3] memory[3] memory)": "infinite",
				"getCurrentPlayer(struct TicTacToe.Game storage pointer)": "6721",
				"isBoardFull(enum TicTacToe.Players[3] memory[3] memory)": "infinite",
				"nextPlayer(struct TicTacToe.Game storage pointer)": "26635",
				"winnerInColumn(enum TicTacToe.Players[3] memory[3] memory)": "infinite",
				"winnerInDiagonal(enum TicTacToe.Players[3] memory[3] memory)": "infinite",
				"winnerInRow(enum TicTacToe.Players[3] memory[3] memory)": "infinite"
			}
		},
		"methodIdentifiers": {
			"_system()": "c6ac8a4b",
			"games(bytes32)": "f579f882",
			"getGameBoard(bytes32)": "81dfc658",
			"makeMove(bytes32,uint256,uint256)": "4575505f",
			"newGame((address,address,uint256),(uint8,bytes32,bytes32),(uint8,bytes32,bytes32))": "4b2997e4",
			"owner()": "8da5cb5b",
			"renounceOwnership()": "715018a6",
			"transferOwnership(address)": "f2fde38b",
			"updateRatingSystem(address)": "6a7693dc"
		}
	},
	"abi": [
		{
			"anonymous": false,
			"inputs": [
				{
					"indexed": false,
					"internalType": "bytes32",
					"name": "gameId",
					"type": "bytes32"
				},
				{
					"indexed": false,
					"internalType": "address",
					"name": "creator",
					"type": "address"
				}
			],
			"name": "GameCreated",
			"type": "event"
		},
		{
			"anonymous": false,
			"inputs": [
				{
					"indexed": false,
					"internalType": "bytes32",
					"name": "gameId",
					"type": "bytes32"
				},
				{
					"indexed": false,
					"internalType": "enum TicTacToe.Winners",
					"name": "winner",
					"type": "uint8"
				}
			],
			"name": "GameOver",
			"type": "event"
		},
		{
			"anonymous": false,
			"inputs": [
				{
					"indexed": true,
					"internalType": "address",
					"name": "previousOwner",
					"type": "address"
				},
				{
					"indexed": true,
					"internalType": "address",
					"name": "newOwner",
					"type": "address"
				}
			],
			"name": "OwnershipTransferred",
			"type": "event"
		},
		{
			"anonymous": false,
			"inputs": [
				{
					"indexed": false,
					"internalType": "bytes32",
					"name": "gameId",
					"type": "bytes32"
				},
				{
					"indexed": false,
					"internalType": "address",
					"name": "player",
					"type": "address"
				},
				{
					"indexed": false,
					"internalType": "uint8",
					"name": "playerNumber",
					"type": "uint8"
				}
			],
			"name": "PlayerJoinedGame",
			"type": "event"
		},
		{
			"anonymous": false,
			"inputs": [
				{
					"indexed": false,
					"internalType": "bytes32",
					"name": "gameId",
					"type": "bytes32"
				},
				{
					"indexed": false,
					"internalType": "address",
					"name": "player",
					"type": "address"
				},
				{
					"indexed": false,
					"internalType": "uint256",
					"name": "xCoordinate",
					"type": "uint256"
				},
				{
					"indexed": false,
					"internalType": "uint256",
					"name": "yCoordinate",
					"type": "uint256"
				}
			],
			"name": "PlayerMadeMove",
			"type": "event"
		},
		{
			"inputs": [],
			"name": "_system",
			"outputs": [
				{
					"internalType": "contract RatingSystem",
					"name": "",
					"type": "address"
				}
			],
			"stateMutability": "view",
			"type": "function"
		},
		{
			"inputs": [
				{
					"internalType": "bytes32",
					"name": "",
					"type": "bytes32"
				}
			],
			"name": "games",
			"outputs": [
				{
					"internalType": "address",
					"name": "playerA",
					"type": "address"
				},
				{
					"internalType": "address",
					"name": "playerB",
					"type": "address"
				},
				{
					"internalType": "uint256",
					"name": "nonce",
					"type": "uint256"
				},
				{
					"internalType": "enum TicTacToe.Winners",
					"name": "winner",
					"type": "uint8"
				},
				{
					"internalType": "enum TicTacToe.Players",
					"name": "playerTurn",
					"type": "uint8"
				}
			],
			"stateMutability": "view",
			"type": "function"
		},
		{
			"inputs": [
				{
					"internalType": "bytes32",
					"name": "gameId",
					"type": "bytes32"
				}
			],
			"name": "getGameBoard",
			"outputs": [
				{
					"internalType": "enum TicTacToe.Players[3][3]",
					"name": "board",
					"type": "uint8[3][3]"
				}
			],
			"stateMutability": "view",
			"type": "function"
		},
		{
			"inputs": [
				{
					"internalType": "bytes32",
					"name": "_gameId",
					"type": "bytes32"
				},
				{
					"internalType": "uint256",
					"name": "_xCoordinate",
					"type": "uint256"
				},
				{
					"internalType": "uint256",
					"name": "_yCoordinate",
					"type": "uint256"
				}
			],
			"name": "makeMove",
			"outputs": [
				{
					"internalType": "bool",
					"name": "success",
					"type": "bool"
				},
				{
					"internalType": "string",
					"name": "reason",
					"type": "string"
				}
			],
			"stateMutability": "nonpayable",
			"type": "function"
		},
		{
			"inputs": [
				{
					"components": [
						{
							"internalType": "address",
							"name": "playerA",
							"type": "address"
						},
						{
							"internalType": "address",
							"name": "playerB",
							"type": "address"
						},
						{
							"internalType": "uint256",
							"name": "nonce",
							"type": "uint256"
						}
					],
					"internalType": "struct GameLibrary.Match",
					"name": "m",
					"type": "tuple"
				},
				{
					"components": [
						{
							"internalType": "uint8",
							"name": "v",
							"type": "uint8"
						},
						{
							"internalType": "bytes32",
							"name": "r",
							"type": "bytes32"
						},
						{
							"internalType": "bytes32",
							"name": "s",
							"type": "bytes32"
						}
					],
					"internalType": "struct GameLibrary.Sig",
					"name": "pAsig",
					"type": "tuple"
				},
				{
					"components": [
						{
							"internalType": "uint8",
							"name": "v",
							"type": "uint8"
						},
						{
							"internalType": "bytes32",
							"name": "r",
							"type": "bytes32"
						},
						{
							"internalType": "bytes32",
							"name": "s",
							"type": "bytes32"
						}
					],
					"internalType": "struct GameLibrary.Sig",
					"name": "pBsig",
					"type": "tuple"
				}
			],
			"name": "newGame",
			"outputs": [
				{
					"internalType": "bytes32",
					"name": "gameId",
					"type": "bytes32"
				}
			],
			"stateMutability": "nonpayable",
			"type": "function"
		},
		{
			"inputs": [],
			"name": "owner",
			"outputs": [
				{
					"internalType": "address",
					"name": "",
					"type": "address"
				}
			],
			"stateMutability": "view",
			"type": "function"
		},
		{
			"inputs": [],
			"name": "renounceOwnership",
			"outputs": [],
			"stateMutability": "nonpayable",
			"type": "function"
		},
		{
			"inputs": [
				{
					"internalType": "address",
					"name": "newOwner",
					"type": "address"
				}
			],
			"name": "transferOwnership",
			"outputs": [],
			"stateMutability": "nonpayable",
			"type": "function"
		},
		{
			"inputs": [
				{
					"internalType": "contract RatingSystem",
					"name": "system",
					"type": "address"
				}
			],
			"name": "updateRatingSystem",
			"outputs": [],
			"stateMutability": "nonpayable",
			"type": "function"
		}
	]
}