{
	"data": {
		"bytecode": {
			"linkReferences": {},
			"object": "610c85610053600b82828239805160001a607314610046577f4e487b7100000000000000000000000000000000000000000000000000000000600052600060045260246000fd5b30600052607381538281f3fe730000000000000000000000000000000000000000301460806040526004361061006c5760003560e01c8063038db173146100715780632eba56da146100a15780633f414fd0146100d157806391d0e6a414610101578063c63248d214610131578063fc623ef814610161575b600080fd5b61008b60048036038101906100869190610844565b610191565b6040516100989190610a00565b60405180910390f35b6100bb60048036038101906100b69190610614565b6102bf565b6040516100c89190610a1b565b60405180910390f35b6100eb60048036038101906100e691906107b0565b610327565b6040516100f891906109e5565b60405180910390f35b61011b60048036038101906101169190610817565b610382565b6040516101289190610a1b565b60405180910390f35b61014b6004803603810190610146919061068f565b6103ce565b6040516101589190610a00565b60405180910390f35b61017b60048036038101906101769190610783565b610486565b6040516101889190610a1b565b60405180910390f35b6000846000015173ffffffffffffffffffffffffffffffffffffffff16600185856000015186602001518760400151604051600081526020016040526040516101dd9493929190610a36565b6020604051602081039080840390855afa1580156101ff573d6000803e3d6000fd5b5050506020604051035173ffffffffffffffffffffffffffffffffffffffff161480156102b55750846040015173ffffffffffffffffffffffffffffffffffffffff16600185846000015185602001518660400151604051600081526020016040526040516102719493929190610a36565b6020604051602081039080840390855afa158015610293573d6000803e3d6000fd5b5050506020604051035173ffffffffffffffffffffffffffffffffffffffff16145b9050949350505050565b600061031c6040518060a001604052808873ffffffffffffffffffffffffffffffffffffffff1681526020018781526020018673ffffffffffffffffffffffffffffffffffffffff16815260200185815260200184815250610382565b905095945050505050565b60006001858386866040516000815260200160405260405161034c9493929190610a36565b6020604051602081039080840390855afa15801561036e573d6000803e3d6000fd5b505050602060405103519050949350505050565b6000816000015182602001518360400151846060015185608001516040516020016103b1959493929190610960565b604051602081830303815290604052805190602001209050919050565b6000806040518060a001604052808e73ffffffffffffffffffffffffffffffffffffffff1681526020018d81526020018c73ffffffffffffffffffffffffffffffffffffffff1681526020018b81526020018a815250905061047481610433836104b6565b60405180606001604052808c60ff1681526020018b81526020018a81525060405180606001604052808a60ff16815260200189815260200188815250610191565b9150509b9a5050505050505050505050565b60008160405160200161049991906109bf565b604051602081830303815290604052805190602001209050919050565b60006104c96104c483610382565b610486565b9050919050565b6000813590506104df81610bf3565b92915050565b6000813590506104f481610c0a565b92915050565b600060a082840312156105105761050f610ba2565b5b61051a60a0610a7b565b9050600061052a848285016104d0565b600083015250602061053e848285016105ea565b6020830152506040610552848285016104d0565b6040830152506060610566848285016105ea565b606083015250608061057a848285016105ea565b60808301525092915050565b60006060828403121561059c5761059b610ba2565b5b6105a66060610a7b565b905060006105b6848285016105ff565b60008301525060206105ca848285016104e5565b60208301525060406105de848285016104e5565b60408301525092915050565b6000813590506105f981610c21565b92915050565b60008135905061060e81610c38565b92915050565b600080600080600060a086880312156106305761062f610ba7565b5b600061063e888289016104d0565b955050602061064f888289016105ea565b9450506040610660888289016104d0565b9350506060610671888289016105ea565b9250506080610682888289016105ea565b9150509295509295909350565b60008060008060008060008060008060006101608c8e0312156106b5576106b4610ba7565b5b60006106c38e828f016104d0565b9b505060206106d48e828f016105ea565b9a505060406106e58e828f016104d0565b99505060606106f68e828f016105ea565b98505060806107078e828f016105ea565b97505060a06107188e828f016105ff565b96505060c06107298e828f016104e5565b95505060e061073a8e828f016104e5565b94505061010061074c8e828f016105ff565b93505061012061075e8e828f016104e5565b9250506101406107708e828f016104e5565b9150509295989b509295989b9093969950565b60006020828403121561079957610798610ba7565b5b60006107a7848285016104e5565b91505092915050565b600080600080608085870312156107ca576107c9610ba7565b5b60006107d8878288016104e5565b94505060206107e9878288016104e5565b93505060406107fa878288016104e5565b925050606061080b878288016105ff565b91505092959194509250565b600060a0828403121561082d5761082c610ba7565b5b600061083b848285016104fa565b91505092915050565b600080600080610180858703121561085f5761085e610ba7565b5b600061086d878288016104fa565b94505060a061087e878288016104e5565b93505060c061088f87828801610586565b9250506101206108a187828801610586565b91505092959194509250565b6108b681610aab565b82525050565b6108cd6108c882610aab565b610b3b565b82525050565b6108dc81610abd565b82525050565b6108eb81610ac9565b82525050565b6108fa81610ac9565b82525050565b61091161090c82610ac9565b610b4d565b82525050565b6000610924601c83610aa0565b915061092f82610bca565b601c82019050919050565b61094b61094682610af3565b610b69565b82525050565b61095a81610afd565b82525050565b600061096c82886108bc565b60148201915061097c828761093a565b60208201915061098c82866108bc565b60148201915061099c828561093a565b6020820191506109ac828461093a565b6020820191508190509695505050505050565b60006109ca82610917565b91506109d68284610900565b60208201915081905092915050565b60006020820190506109fa60008301846108ad565b92915050565b6000602082019050610a1560008301846108d3565b92915050565b6000602082019050610a3060008301846108f1565b92915050565b6000608082019050610a4b60008301876108e2565b610a586020830186610951565b610a6560408301856108e2565b610a7260608301846108e2565b95945050505050565b6000610a85610a96565b9050610a918282610b0a565b919050565b6000604051905090565b600081905092915050565b6000610ab682610ad3565b9050919050565b60008115159050919050565b6000819050919050565b600073ffffffffffffffffffffffffffffffffffffffff82169050919050565b6000819050919050565b600060ff82169050919050565b610b1382610bac565b810181811067ffffffffffffffff82111715610b3257610b31610b73565b5b80604052505050565b6000610b4682610b57565b9050919050565b6000819050919050565b6000610b6282610bbd565b9050919050565b6000819050919050565b7f4e487b7100000000000000000000000000000000000000000000000000000000600052604160045260246000fd5b600080fd5b600080fd5b6000601f19601f8301169050919050565b60008160601b9050919050565b7f19457468657265756d205369676e6564204d6573736167653a0a333200000000600082015250565b610bfc81610aab565b8114610c0757600080fd5b50565b610c1381610ac9565b8114610c1e57600080fd5b50565b610c2a81610af3565b8114610c3557600080fd5b50565b610c4181610afd565b8114610c4c57600080fd5b5056fea2646970667358221220594cc988b4bf1b5c256107ee6be1a0ea8066176900586a69dcefd720a1cee96364736f6c63430008070033",
			"opcodes": "PUSH2 0xC85 PUSH2 0x53 PUSH1 0xB DUP3 DUP3 DUP3 CODECOPY DUP1 MLOAD PUSH1 0x0 BYTE PUSH1 0x73 EQ PUSH2 0x46 JUMPI PUSH32 0x4E487B7100000000000000000000000000000000000000000000000000000000 PUSH1 0x0 MSTORE PUSH1 0x0 PUSH1 0x4 MSTORE PUSH1 0x24 PUSH1 0x0 REVERT JUMPDEST ADDRESS PUSH1 0x0 MSTORE PUSH1 0x73 DUP2 MSTORE8 DUP3 DUP2 RETURN INVALID PUSH20 0x0 ADDRESS EQ PUSH1 0x80 PUSH1 0x40 MSTORE PUSH1 0x4 CALLDATASIZE LT PUSH2 0x6C JUMPI PUSH1 0x0 CALLDATALOAD PUSH1 0xE0 SHR DUP1 PUSH4 0x38DB173 EQ PUSH2 0x71 JUMPI DUP1 PUSH4 0x2EBA56DA EQ PUSH2 0xA1 JUMPI DUP1 PUSH4 0x3F414FD0 EQ PUSH2 0xD1 JUMPI DUP1 PUSH4 0x91D0E6A4 EQ PUSH2 0x101 JUMPI DUP1 PUSH4 0xC63248D2 EQ PUSH2 0x131 JUMPI DUP1 PUSH4 0xFC623EF8 EQ PUSH2 0x161 JUMPI JUMPDEST PUSH1 0x0 DUP1 REVERT JUMPDEST PUSH2 0x8B PUSH1 0x4 DUP1 CALLDATASIZE SUB DUP2 ADD SWAP1 PUSH2 0x86 SWAP2 SWAP1 PUSH2 0x844 JUMP JUMPDEST PUSH2 0x191 JUMP JUMPDEST PUSH1 0x40 MLOAD PUSH2 0x98 SWAP2 SWAP1 PUSH2 0xA00 JUMP JUMPDEST PUSH1 0x40 MLOAD DUP1 SWAP2 SUB SWAP1 RETURN JUMPDEST PUSH2 0xBB PUSH1 0x4 DUP1 CALLDATASIZE SUB DUP2 ADD SWAP1 PUSH2 0xB6 SWAP2 SWAP1 PUSH2 0x614 JUMP JUMPDEST PUSH2 0x2BF JUMP JUMPDEST PUSH1 0x40 MLOAD PUSH2 0xC8 SWAP2 SWAP1 PUSH2 0xA1B JUMP JUMPDEST PUSH1 0x40 MLOAD DUP1 SWAP2 SUB SWAP1 RETURN JUMPDEST PUSH2 0xEB PUSH1 0x4 DUP1 CALLDATASIZE SUB DUP2 ADD SWAP1 PUSH2 0xE6 SWAP2 SWAP1 PUSH2 0x7B0 JUMP JUMPDEST PUSH2 0x327 JUMP JUMPDEST PUSH1 0x40 MLOAD PUSH2 0xF8 SWAP2 SWAP1 PUSH2 0x9E5 JUMP JUMPDEST PUSH1 0x40 MLOAD DUP1 SWAP2 SUB SWAP1 RETURN JUMPDEST PUSH2 0x11B PUSH1 0x4 DUP1 CALLDATASIZE SUB DUP2 ADD SWAP1 PUSH2 0x116 SWAP2 SWAP1 PUSH2 0x817 JUMP JUMPDEST PUSH2 0x382 JUMP JUMPDEST PUSH1 0x40 MLOAD PUSH2 0x128 SWAP2 SWAP1 PUSH2 0xA1B JUMP JUMPDEST PUSH1 0x40 MLOAD DUP1 SWAP2 SUB SWAP1 RETURN JUMPDEST PUSH2 0x14B PUSH1 0x4 DUP1 CALLDATASIZE SUB DUP2 ADD SWAP1 PUSH2 0x146 SWAP2 SWAP1 PUSH2 0x68F JUMP JUMPDEST PUSH2 0x3CE JUMP JUMPDEST PUSH1 0x40 MLOAD PUSH2 0x158 SWAP2 SWAP1 PUSH2 0xA00 JUMP JUMPDEST PUSH1 0x40 MLOAD DUP1 SWAP2 SUB SWAP1 RETURN JUMPDEST PUSH2 0x17B PUSH1 0x4 DUP1 CALLDATASIZE SUB DUP2 ADD SWAP1 PUSH2 0x176 SWAP2 SWAP1 PUSH2 0x783 JUMP JUMPDEST PUSH2 0x486 JUMP JUMPDEST PUSH1 0x40 MLOAD PUSH2 0x188 SWAP2 SWAP1 PUSH2 0xA1B JUMP JUMPDEST PUSH1 0x40 MLOAD DUP1 SWAP2 SUB SWAP1 RETURN JUMPDEST PUSH1 0x0 DUP5 PUSH1 0x0 ADD MLOAD PUSH20 0xFFFFFFFFFFFFFFFFFFFFFFFFFFFFFFFFFFFFFFFF AND PUSH1 0x1 DUP6 DUP6 PUSH1 0x0 ADD MLOAD DUP7 PUSH1 0x20 ADD MLOAD DUP8 PUSH1 0x40 ADD MLOAD PUSH1 0x40 MLOAD PUSH1 0x0 DUP2 MSTORE PUSH1 0x20 ADD PUSH1 0x40 MSTORE PUSH1 0x40 MLOAD PUSH2 0x1DD SWAP5 SWAP4 SWAP3 SWAP2 SWAP1 PUSH2 0xA36 JUMP JUMPDEST PUSH1 0x20 PUSH1 0x40 MLOAD PUSH1 0x20 DUP2 SUB SWAP1 DUP1 DUP5 SUB SWAP1 DUP6 GAS STATICCALL ISZERO DUP1 ISZERO PUSH2 0x1FF JUMPI RETURNDATASIZE PUSH1 0x0 DUP1 RETURNDATACOPY RETURNDATASIZE PUSH1 0x0 REVERT JUMPDEST POP POP POP PUSH1 0x20 PUSH1 0x40 MLOAD SUB MLOAD PUSH20 0xFFFFFFFFFFFFFFFFFFFFFFFFFFFFFFFFFFFFFFFF AND EQ DUP1 ISZERO PUSH2 0x2B5 JUMPI POP DUP5 PUSH1 0x40 ADD MLOAD PUSH20 0xFFFFFFFFFFFFFFFFFFFFFFFFFFFFFFFFFFFFFFFF AND PUSH1 0x1 DUP6 DUP5 PUSH1 0x0 ADD MLOAD DUP6 PUSH1 0x20 ADD MLOAD DUP7 PUSH1 0x40 ADD MLOAD PUSH1 0x40 MLOAD PUSH1 0x0 DUP2 MSTORE PUSH1 0x20 ADD PUSH1 0x40 MSTORE PUSH1 0x40 MLOAD PUSH2 0x271 SWAP5 SWAP4 SWAP3 SWAP2 SWAP1 PUSH2 0xA36 JUMP JUMPDEST PUSH1 0x20 PUSH1 0x40 MLOAD PUSH1 0x20 DUP2 SUB SWAP1 DUP1 DUP5 SUB SWAP1 DUP6 GAS STATICCALL ISZERO DUP1 ISZERO PUSH2 0x293 JUMPI RETURNDATASIZE PUSH1 0x0 DUP1 RETURNDATACOPY RETURNDATASIZE PUSH1 0x0 REVERT JUMPDEST POP POP POP PUSH1 0x20 PUSH1 0x40 MLOAD SUB MLOAD PUSH20 0xFFFFFFFFFFFFFFFFFFFFFFFFFFFFFFFFFFFFFFFF AND EQ JUMPDEST SWAP1 POP SWAP5 SWAP4 POP POP POP POP JUMP JUMPDEST PUSH1 0x0 PUSH2 0x31C PUSH1 0x40 MLOAD DUP1 PUSH1 0xA0 ADD PUSH1 0x40 MSTORE DUP1 DUP9 PUSH20 0xFFFFFFFFFFFFFFFFFFFFFFFFFFFFFFFFFFFFFFFF AND DUP2 MSTORE PUSH1 0x20 ADD DUP8 DUP2 MSTORE PUSH1 0x20 ADD DUP7 PUSH20 0xFFFFFFFFFFFFFFFFFFFFFFFFFFFFFFFFFFFFFFFF AND DUP2 MSTORE PUSH1 0x20 ADD DUP6 DUP2 MSTORE PUSH1 0x20 ADD DUP5 DUP2 MSTORE POP PUSH2 0x382 JUMP JUMPDEST SWAP1 POP SWAP6 SWAP5 POP POP POP POP POP JUMP JUMPDEST PUSH1 0x0 PUSH1 0x1 DUP6 DUP4 DUP7 DUP7 PUSH1 0x40 MLOAD PUSH1 0x0 DUP2 MSTORE PUSH1 0x20 ADD PUSH1 0x40 MSTORE PUSH1 0x40 MLOAD PUSH2 0x34C SWAP5 SWAP4 SWAP3 SWAP2 SWAP1 PUSH2 0xA36 JUMP JUMPDEST PUSH1 0x20 PUSH1 0x40 MLOAD PUSH1 0x20 DUP2 SUB SWAP1 DUP1 DUP5 SUB SWAP1 DUP6 GAS STATICCALL ISZERO DUP1 ISZERO PUSH2 0x36E JUMPI RETURNDATASIZE PUSH1 0x0 DUP1 RETURNDATACOPY RETURNDATASIZE PUSH1 0x0 REVERT JUMPDEST POP POP POP PUSH1 0x20 PUSH1 0x40 MLOAD SUB MLOAD SWAP1 POP SWAP5 SWAP4 POP POP POP POP JUMP JUMPDEST PUSH1 0x0 DUP2 PUSH1 0x0 ADD MLOAD DUP3 PUSH1 0x20 ADD MLOAD DUP4 PUSH1 0x40 ADD MLOAD DUP5 PUSH1 0x60 ADD MLOAD DUP6 PUSH1 0x80 ADD MLOAD PUSH1 0x40 MLOAD PUSH1 0x20 ADD PUSH2 0x3B1 SWAP6 SWAP5 SWAP4 SWAP3 SWAP2 SWAP1 PUSH2 0x960 JUMP JUMPDEST PUSH1 0x40 MLOAD PUSH1 0x20 DUP2 DUP4 SUB SUB DUP2 MSTORE SWAP1 PUSH1 0x40 MSTORE DUP1 MLOAD SWAP1 PUSH1 0x20 ADD KECCAK256 SWAP1 POP SWAP2 SWAP1 POP JUMP JUMPDEST PUSH1 0x0 DUP1 PUSH1 0x40 MLOAD DUP1 PUSH1 0xA0 ADD PUSH1 0x40 MSTORE DUP1 DUP15 PUSH20 0xFFFFFFFFFFFFFFFFFFFFFFFFFFFFFFFFFFFFFFFF AND DUP2 MSTORE PUSH1 0x20 ADD DUP14 DUP2 MSTORE PUSH1 0x20 ADD DUP13 PUSH20 0xFFFFFFFFFFFFFFFFFFFFFFFFFFFFFFFFFFFFFFFF AND DUP2 MSTORE PUSH1 0x20 ADD DUP12 DUP2 MSTORE PUSH1 0x20 ADD DUP11 DUP2 MSTORE POP SWAP1 POP PUSH2 0x474 DUP2 PUSH2 0x433 DUP4 PUSH2 0x4B6 JUMP JUMPDEST PUSH1 0x40 MLOAD DUP1 PUSH1 0x60 ADD PUSH1 0x40 MSTORE DUP1 DUP13 PUSH1 0xFF AND DUP2 MSTORE PUSH1 0x20 ADD DUP12 DUP2 MSTORE PUSH1 0x20 ADD DUP11 DUP2 MSTORE POP PUSH1 0x40 MLOAD DUP1 PUSH1 0x60 ADD PUSH1 0x40 MSTORE DUP1 DUP11 PUSH1 0xFF AND DUP2 MSTORE PUSH1 0x20 ADD DUP10 DUP2 MSTORE PUSH1 0x20 ADD DUP9 DUP2 MSTORE POP PUSH2 0x191 JUMP JUMPDEST SWAP2 POP POP SWAP12 SWAP11 POP POP POP POP POP POP POP POP POP POP POP JUMP JUMPDEST PUSH1 0x0 DUP2 PUSH1 0x40 MLOAD PUSH1 0x20 ADD PUSH2 0x499 SWAP2 SWAP1 PUSH2 0x9BF JUMP JUMPDEST PUSH1 0x40 MLOAD PUSH1 0x20 DUP2 DUP4 SUB SUB DUP2 MSTORE SWAP1 PUSH1 0x40 MSTORE DUP1 MLOAD SWAP1 PUSH1 0x20 ADD KECCAK256 SWAP1 POP SWAP2 SWAP1 POP JUMP JUMPDEST PUSH1 0x0 PUSH2 0x4C9 PUSH2 0x4C4 DUP4 PUSH2 0x382 JUMP JUMPDEST PUSH2 0x486 JUMP JUMPDEST SWAP1 POP SWAP2 SWAP1 POP JUMP JUMPDEST PUSH1 0x0 DUP2 CALLDATALOAD SWAP1 POP PUSH2 0x4DF DUP2 PUSH2 0xBF3 JUMP JUMPDEST SWAP3 SWAP2 POP POP JUMP JUMPDEST PUSH1 0x0 DUP2 CALLDATALOAD SWAP1 POP PUSH2 0x4F4 DUP2 PUSH2 0xC0A JUMP JUMPDEST SWAP3 SWAP2 POP POP JUMP JUMPDEST PUSH1 0x0 PUSH1 0xA0 DUP3 DUP5 SUB SLT ISZERO PUSH2 0x510 JUMPI PUSH2 0x50F PUSH2 0xBA2 JUMP JUMPDEST JUMPDEST PUSH2 0x51A PUSH1 0xA0 PUSH2 0xA7B JUMP JUMPDEST SWAP1 POP PUSH1 0x0 PUSH2 0x52A DUP5 DUP3 DUP6 ADD PUSH2 0x4D0 JUMP JUMPDEST PUSH1 0x0 DUP4 ADD MSTORE POP PUSH1 0x20 PUSH2 0x53E DUP5 DUP3 DUP6 ADD PUSH2 0x5EA JUMP JUMPDEST PUSH1 0x20 DUP4 ADD MSTORE POP PUSH1 0x40 PUSH2 0x552 DUP5 DUP3 DUP6 ADD PUSH2 0x4D0 JUMP JUMPDEST PUSH1 0x40 DUP4 ADD MSTORE POP PUSH1 0x60 PUSH2 0x566 DUP5 DUP3 DUP6 ADD PUSH2 0x5EA JUMP JUMPDEST PUSH1 0x60 DUP4 ADD MSTORE POP PUSH1 0x80 PUSH2 0x57A DUP5 DUP3 DUP6 ADD PUSH2 0x5EA JUMP JUMPDEST PUSH1 0x80 DUP4 ADD MSTORE POP SWAP3 SWAP2 POP POP JUMP JUMPDEST PUSH1 0x0 PUSH1 0x60 DUP3 DUP5 SUB SLT ISZERO PUSH2 0x59C JUMPI PUSH2 0x59B PUSH2 0xBA2 JUMP JUMPDEST JUMPDEST PUSH2 0x5A6 PUSH1 0x60 PUSH2 0xA7B JUMP JUMPDEST SWAP1 POP PUSH1 0x0 PUSH2 0x5B6 DUP5 DUP3 DUP6 ADD PUSH2 0x5FF JUMP JUMPDEST PUSH1 0x0 DUP4 ADD MSTORE POP PUSH1 0x20 PUSH2 0x5CA DUP5 DUP3 DUP6 ADD PUSH2 0x4E5 JUMP JUMPDEST PUSH1 0x20 DUP4 ADD MSTORE POP PUSH1 0x40 PUSH2 0x5DE DUP5 DUP3 DUP6 ADD PUSH2 0x4E5 JUMP JUMPDEST PUSH1 0x40 DUP4 ADD MSTORE POP SWAP3 SWAP2 POP POP JUMP JUMPDEST PUSH1 0x0 DUP2 CALLDATALOAD SWAP1 POP PUSH2 0x5F9 DUP2 PUSH2 0xC21 JUMP JUMPDEST SWAP3 SWAP2 POP POP JUMP JUMPDEST PUSH1 0x0 DUP2 CALLDATALOAD SWAP1 POP PUSH2 0x60E DUP2 PUSH2 0xC38 JUMP JUMPDEST SWAP3 SWAP2 POP POP JUMP JUMPDEST PUSH1 0x0 DUP1 PUSH1 0x0 DUP1 PUSH1 0x0 PUSH1 0xA0 DUP7 DUP9 SUB SLT ISZERO PUSH2 0x630 JUMPI PUSH2 0x62F PUSH2 0xBA7 JUMP JUMPDEST JUMPDEST PUSH1 0x0 PUSH2 0x63E DUP9 DUP3 DUP10 ADD PUSH2 0x4D0 JUMP JUMPDEST SWAP6 POP POP PUSH1 0x20 PUSH2 0x64F DUP9 DUP3 DUP10 ADD PUSH2 0x5EA JUMP JUMPDEST SWAP5 POP POP PUSH1 0x40 PUSH2 0x660 DUP9 DUP3 DUP10 ADD PUSH2 0x4D0 JUMP JUMPDEST SWAP4 POP POP PUSH1 0x60 PUSH2 0x671 DUP9 DUP3 DUP10 ADD PUSH2 0x5EA JUMP JUMPDEST SWAP3 POP POP PUSH1 0x80 PUSH2 0x682 DUP9 DUP3 DUP10 ADD PUSH2 0x5EA JUMP JUMPDEST SWAP2 POP POP SWAP3 SWAP6 POP SWAP3 SWAP6 SWAP1 SWAP4 POP JUMP JUMPDEST PUSH1 0x0 DUP1 PUSH1 0x0 DUP1 PUSH1 0x0 DUP1 PUSH1 0x0 DUP1 PUSH1 0x0 DUP1 PUSH1 0x0 PUSH2 0x160 DUP13 DUP15 SUB SLT ISZERO PUSH2 0x6B5 JUMPI PUSH2 0x6B4 PUSH2 0xBA7 JUMP JUMPDEST JUMPDEST PUSH1 0x0 PUSH2 0x6C3 DUP15 DUP3 DUP16 ADD PUSH2 0x4D0 JUMP JUMPDEST SWAP12 POP POP PUSH1 0x20 PUSH2 0x6D4 DUP15 DUP3 DUP16 ADD PUSH2 0x5EA JUMP JUMPDEST SWAP11 POP POP PUSH1 0x40 PUSH2 0x6E5 DUP15 DUP3 DUP16 ADD PUSH2 0x4D0 JUMP JUMPDEST SWAP10 POP POP PUSH1 0x60 PUSH2 0x6F6 DUP15 DUP3 DUP16 ADD PUSH2 0x5EA JUMP JUMPDEST SWAP9 POP POP PUSH1 0x80 PUSH2 0x707 DUP15 DUP3 DUP16 ADD PUSH2 0x5EA JUMP JUMPDEST SWAP8 POP POP PUSH1 0xA0 PUSH2 0x718 DUP15 DUP3 DUP16 ADD PUSH2 0x5FF JUMP JUMPDEST SWAP7 POP POP PUSH1 0xC0 PUSH2 0x729 DUP15 DUP3 DUP16 ADD PUSH2 0x4E5 JUMP JUMPDEST SWAP6 POP POP PUSH1 0xE0 PUSH2 0x73A DUP15 DUP3 DUP16 ADD PUSH2 0x4E5 JUMP JUMPDEST SWAP5 POP POP PUSH2 0x100 PUSH2 0x74C DUP15 DUP3 DUP16 ADD PUSH2 0x5FF JUMP JUMPDEST SWAP4 POP POP PUSH2 0x120 PUSH2 0x75E DUP15 DUP3 DUP16 ADD PUSH2 0x4E5 JUMP JUMPDEST SWAP3 POP POP PUSH2 0x140 PUSH2 0x770 DUP15 DUP3 DUP16 ADD PUSH2 0x4E5 JUMP JUMPDEST SWAP2 POP POP SWAP3 SWAP6 SWAP9 SWAP12 POP SWAP3 SWAP6 SWAP9 SWAP12 SWAP1 SWAP4 SWAP7 SWAP10 POP JUMP JUMPDEST PUSH1 0x0 PUSH1 0x20 DUP3 DUP5 SUB SLT ISZERO PUSH2 0x799 JUMPI PUSH2 0x798 PUSH2 0xBA7 JUMP JUMPDEST JUMPDEST PUSH1 0x0 PUSH2 0x7A7 DUP5 DUP3 DUP6 ADD PUSH2 0x4E5 JUMP JUMPDEST SWAP2 POP POP SWAP3 SWAP2 POP POP JUMP JUMPDEST PUSH1 0x0 DUP1 PUSH1 0x0 DUP1 PUSH1 0x80 DUP6 DUP8 SUB SLT ISZERO PUSH2 0x7CA JUMPI PUSH2 0x7C9 PUSH2 0xBA7 JUMP JUMPDEST JUMPDEST PUSH1 0x0 PUSH2 0x7D8 DUP8 DUP3 DUP9 ADD PUSH2 0x4E5 JUMP JUMPDEST SWAP5 POP POP PUSH1 0x20 PUSH2 0x7E9 DUP8 DUP3 DUP9 ADD PUSH2 0x4E5 JUMP JUMPDEST SWAP4 POP POP PUSH1 0x40 PUSH2 0x7FA DUP8 DUP3 DUP9 ADD PUSH2 0x4E5 JUMP JUMPDEST SWAP3 POP POP PUSH1 0x60 PUSH2 0x80B DUP8 DUP3 DUP9 ADD PUSH2 0x5FF JUMP JUMPDEST SWAP2 POP POP SWAP3 SWAP6 SWAP2 SWAP5 POP SWAP3 POP JUMP JUMPDEST PUSH1 0x0 PUSH1 0xA0 DUP3 DUP5 SUB SLT ISZERO PUSH2 0x82D JUMPI PUSH2 0x82C PUSH2 0xBA7 JUMP JUMPDEST JUMPDEST PUSH1 0x0 PUSH2 0x83B DUP5 DUP3 DUP6 ADD PUSH2 0x4FA JUMP JUMPDEST SWAP2 POP POP SWAP3 SWAP2 POP POP JUMP JUMPDEST PUSH1 0x0 DUP1 PUSH1 0x0 DUP1 PUSH2 0x180 DUP6 DUP8 SUB SLT ISZERO PUSH2 0x85F JUMPI PUSH2 0x85E PUSH2 0xBA7 JUMP JUMPDEST JUMPDEST PUSH1 0x0 PUSH2 0x86D DUP8 DUP3 DUP9 ADD PUSH2 0x4FA JUMP JUMPDEST SWAP5 POP POP PUSH1 0xA0 PUSH2 0x87E DUP8 DUP3 DUP9 ADD PUSH2 0x4E5 JUMP JUMPDEST SWAP4 POP POP PUSH1 0xC0 PUSH2 0x88F DUP8 DUP3 DUP9 ADD PUSH2 0x586 JUMP JUMPDEST SWAP3 POP POP PUSH2 0x120 PUSH2 0x8A1 DUP8 DUP3 DUP9 ADD PUSH2 0x586 JUMP JUMPDEST SWAP2 POP POP SWAP3 SWAP6 SWAP2 SWAP5 POP SWAP3 POP JUMP JUMPDEST PUSH2 0x8B6 DUP2 PUSH2 0xAAB JUMP JUMPDEST DUP3 MSTORE POP POP JUMP JUMPDEST PUSH2 0x8CD PUSH2 0x8C8 DUP3 PUSH2 0xAAB JUMP JUMPDEST PUSH2 0xB3B JUMP JUMPDEST DUP3 MSTORE POP POP JUMP JUMPDEST PUSH2 0x8DC DUP2 PUSH2 0xABD JUMP JUMPDEST DUP3 MSTORE POP POP JUMP JUMPDEST PUSH2 0x8EB DUP2 PUSH2 0xAC9 JUMP JUMPDEST DUP3 MSTORE POP POP JUMP JUMPDEST PUSH2 0x8FA DUP2 PUSH2 0xAC9 JUMP JUMPDEST DUP3 MSTORE POP POP JUMP JUMPDEST PUSH2 0x911 PUSH2 0x90C DUP3 PUSH2 0xAC9 JUMP JUMPDEST PUSH2 0xB4D JUMP JUMPDEST DUP3 MSTORE POP POP JUMP JUMPDEST PUSH1 0x0 PUSH2 0x924 PUSH1 0x1C DUP4 PUSH2 0xAA0 JUMP JUMPDEST SWAP2 POP PUSH2 0x92F DUP3 PUSH2 0xBCA JUMP JUMPDEST PUSH1 0x1C DUP3 ADD SWAP1 POP SWAP2 SWAP1 POP JUMP JUMPDEST PUSH2 0x94B PUSH2 0x946 DUP3 PUSH2 0xAF3 JUMP JUMPDEST PUSH2 0xB69 JUMP JUMPDEST DUP3 MSTORE POP POP JUMP JUMPDEST PUSH2 0x95A DUP2 PUSH2 0xAFD JUMP JUMPDEST DUP3 MSTORE POP POP JUMP JUMPDEST PUSH1 0x0 PUSH2 0x96C DUP3 DUP9 PUSH2 0x8BC JUMP JUMPDEST PUSH1 0x14 DUP3 ADD SWAP2 POP PUSH2 0x97C DUP3 DUP8 PUSH2 0x93A JUMP JUMPDEST PUSH1 0x20 DUP3 ADD SWAP2 POP PUSH2 0x98C DUP3 DUP7 PUSH2 0x8BC JUMP JUMPDEST PUSH1 0x14 DUP3 ADD SWAP2 POP PUSH2 0x99C DUP3 DUP6 PUSH2 0x93A JUMP JUMPDEST PUSH1 0x20 DUP3 ADD SWAP2 POP PUSH2 0x9AC DUP3 DUP5 PUSH2 0x93A JUMP JUMPDEST PUSH1 0x20 DUP3 ADD SWAP2 POP DUP2 SWAP1 POP SWAP7 SWAP6 POP POP POP POP POP POP JUMP JUMPDEST PUSH1 0x0 PUSH2 0x9CA DUP3 PUSH2 0x917 JUMP JUMPDEST SWAP2 POP PUSH2 0x9D6 DUP3 DUP5 PUSH2 0x900 JUMP JUMPDEST PUSH1 0x20 DUP3 ADD SWAP2 POP DUP2 SWAP1 POP SWAP3 SWAP2 POP POP JUMP JUMPDEST PUSH1 0x0 PUSH1 0x20 DUP3 ADD SWAP1 POP PUSH2 0x9FA PUSH1 0x0 DUP4 ADD DUP5 PUSH2 0x8AD JUMP JUMPDEST SWAP3 SWAP2 POP POP JUMP JUMPDEST PUSH1 0x0 PUSH1 0x20 DUP3 ADD SWAP1 POP PUSH2 0xA15 PUSH1 0x0 DUP4 ADD DUP5 PUSH2 0x8D3 JUMP JUMPDEST SWAP3 SWAP2 POP POP JUMP JUMPDEST PUSH1 0x0 PUSH1 0x20 DUP3 ADD SWAP1 POP PUSH2 0xA30 PUSH1 0x0 DUP4 ADD DUP5 PUSH2 0x8F1 JUMP JUMPDEST SWAP3 SWAP2 POP POP JUMP JUMPDEST PUSH1 0x0 PUSH1 0x80 DUP3 ADD SWAP1 POP PUSH2 0xA4B PUSH1 0x0 DUP4 ADD DUP8 PUSH2 0x8E2 JUMP JUMPDEST PUSH2 0xA58 PUSH1 0x20 DUP4 ADD DUP7 PUSH2 0x951 JUMP JUMPDEST PUSH2 0xA65 PUSH1 0x40 DUP4 ADD DUP6 PUSH2 0x8E2 JUMP JUMPDEST PUSH2 0xA72 PUSH1 0x60 DUP4 ADD DUP5 PUSH2 0x8E2 JUMP JUMPDEST SWAP6 SWAP5 POP POP POP POP POP JUMP JUMPDEST PUSH1 0x0 PUSH2 0xA85 PUSH2 0xA96 JUMP JUMPDEST SWAP1 POP PUSH2 0xA91 DUP3 DUP3 PUSH2 0xB0A JUMP JUMPDEST SWAP2 SWAP1 POP JUMP JUMPDEST PUSH1 0x0 PUSH1 0x40 MLOAD SWAP1 POP SWAP1 JUMP JUMPDEST PUSH1 0x0 DUP2 SWAP1 POP SWAP3 SWAP2 POP POP JUMP JUMPDEST PUSH1 0x0 PUSH2 0xAB6 DUP3 PUSH2 0xAD3 JUMP JUMPDEST SWAP1 POP SWAP2 SWAP1 POP JUMP JUMPDEST PUSH1 0x0 DUP2 ISZERO ISZERO SWAP1 POP SWAP2 SWAP1 POP JUMP JUMPDEST PUSH1 0x0 DUP2 SWAP1 POP SWAP2 SWAP1 POP JUMP JUMPDEST PUSH1 0x0 PUSH20 0xFFFFFFFFFFFFFFFFFFFFFFFFFFFFFFFFFFFFFFFF DUP3 AND SWAP1 POP SWAP2 SWAP1 POP JUMP JUMPDEST PUSH1 0x0 DUP2 SWAP1 POP SWAP2 SWAP1 POP JUMP JUMPDEST PUSH1 0x0 PUSH1 0xFF DUP3 AND SWAP1 POP SWAP2 SWAP1 POP JUMP JUMPDEST PUSH2 0xB13 DUP3 PUSH2 0xBAC JUMP JUMPDEST DUP2 ADD DUP2 DUP2 LT PUSH8 0xFFFFFFFFFFFFFFFF DUP3 GT OR ISZERO PUSH2 0xB32 JUMPI PUSH2 0xB31 PUSH2 0xB73 JUMP JUMPDEST JUMPDEST DUP1 PUSH1 0x40 MSTORE POP POP POP JUMP JUMPDEST PUSH1 0x0 PUSH2 0xB46 DUP3 PUSH2 0xB57 JUMP JUMPDEST SWAP1 POP SWAP2 SWAP1 POP JUMP JUMPDEST PUSH1 0x0 DUP2 SWAP1 POP SWAP2 SWAP1 POP JUMP JUMPDEST PUSH1 0x0 PUSH2 0xB62 DUP3 PUSH2 0xBBD JUMP JUMPDEST SWAP1 POP SWAP2 SWAP1 POP JUMP JUMPDEST PUSH1 0x0 DUP2 SWAP1 POP SWAP2 SWAP1 POP JUMP JUMPDEST PUSH32 0x4E487B7100000000000000000000000000000000000000000000000000000000 PUSH1 0x0 MSTORE PUSH1 0x41 PUSH1 0x4 MSTORE PUSH1 0x24 PUSH1 0x0 REVERT JUMPDEST PUSH1 0x0 DUP1 REVERT JUMPDEST PUSH1 0x0 DUP1 REVERT JUMPDEST PUSH1 0x0 PUSH1 0x1F NOT PUSH1 0x1F DUP4 ADD AND SWAP1 POP SWAP2 SWAP1 POP JUMP JUMPDEST PUSH1 0x0 DUP2 PUSH1 0x60 SHL SWAP1 POP SWAP2 SWAP1 POP JUMP JUMPDEST PUSH32 0x19457468657265756D205369676E6564204D6573736167653A0A333200000000 PUSH1 0x0 DUP3 ADD MSTORE POP JUMP JUMPDEST PUSH2 0xBFC DUP2 PUSH2 0xAAB JUMP JUMPDEST DUP2 EQ PUSH2 0xC07 JUMPI PUSH1 0x0 DUP1 REVERT JUMPDEST POP JUMP JUMPDEST PUSH2 0xC13 DUP2 PUSH2 0xAC9 JUMP JUMPDEST DUP2 EQ PUSH2 0xC1E JUMPI PUSH1 0x0 DUP1 REVERT JUMPDEST POP JUMP JUMPDEST PUSH2 0xC2A DUP2 PUSH2 0xAF3 JUMP JUMPDEST DUP2 EQ PUSH2 0xC35 JUMPI PUSH1 0x0 DUP1 REVERT JUMPDEST POP JUMP JUMPDEST PUSH2 0xC41 DUP2 PUSH2 0xAFD JUMP JUMPDEST DUP2 EQ PUSH2 0xC4C JUMPI PUSH1 0x0 DUP1 REVERT JUMPDEST POP JUMP INVALID LOG2 PUSH5 0x6970667358 0x22 SLT KECCAK256 MSIZE 0x4C 0xC9 DUP9 0xB4 0xBF SHL 0x5C 0x25 PUSH2 0x7EE PUSH12 0xE1A0EA8066176900586A69DC 0xEF 0xD7 KECCAK256 LOG1 0xCE 0xE9 PUSH4 0x64736F6C PUSH4 0x43000807 STOP CALLER "
		},
		"gasEstimates": {
			"creation": {
				"codeDepositCost": "641000",
				"executionCost": "701",
				"totalCost": "641701"
			},
			"external": {
				"_abcd(bytes32,bytes32,bytes32,uint8)": "infinite",
				"_hashMatch(GameLibrary.Match)": "infinite",
				"_validateMatch(GameLibrary.Match,bytes32,GameLibrary.Sig,GameLibrary.Sig)": "infinite",
				"hashMatch(address,uint256,address,uint256,uint256)": "infinite",
				"hashToSign(bytes32)": "infinite",
				"validateMatch(address,uint256,address,uint256,uint256,uint8,bytes32,bytes32,uint8,bytes32,bytes32)": "infinite"
			},
			"internal": {
				"_hashToSignMatch(struct GameLibrary.Match memory)": "infinite",
				"_requireValidMatch(struct GameLibrary.Match memory,struct GameLibrary.Sig memory,struct GameLibrary.Sig memory)": "infinite"
			}
		},
		"methodIdentifiers": {
			"_abcd(bytes32,bytes32,bytes32,uint8)": "3f414fd0",
			"_hashMatch(GameLibrary.Match)": "91d0e6a4",
			"_validateMatch(GameLibrary.Match,bytes32,GameLibrary.Sig,GameLibrary.Sig)": "038db173",
			"hashMatch(address,uint256,address,uint256,uint256)": "2eba56da",
			"hashToSign(bytes32)": "fc623ef8",
			"validateMatch(address,uint256,address,uint256,uint256,uint8,bytes32,bytes32,uint8,bytes32,bytes32)": "c63248d2"
		}
	},
	"abi": [
		{
			"inputs": [
				{
					"internalType": "bytes32",
					"name": "hash",
					"type": "bytes32"
				},
				{
					"internalType": "bytes32",
					"name": "r",
					"type": "bytes32"
				},
				{
					"internalType": "bytes32",
					"name": "s",
					"type": "bytes32"
				},
				{
					"internalType": "uint8",
					"name": "v",
					"type": "uint8"
				}
			],
			"name": "_abcd",
			"outputs": [
				{
					"internalType": "address",
					"name": "",
					"type": "address"
				}
			],
			"stateMutability": "pure",
			"type": "function"
		},
		{
			"inputs": [
				{
					"components": [
						{
							"internalType": "address",
							"name": "playerA",
							"type": "address"
						},
						{
							"internalType": "uint256",
							"name": "nonceA",
							"type": "uint256"
						},
						{
							"internalType": "address",
							"name": "playerB",
							"type": "address"
						},
						{
							"internalType": "uint256",
							"name": "nonceB",
							"type": "uint256"
						},
						{
							"internalType": "uint256",
							"name": "timestamp",
							"type": "uint256"
						}
					],
					"internalType": "struct GameLibrary.Match",
					"name": "m",
					"type": "tuple"
				}
			],
			"name": "_hashMatch",
			"outputs": [
				{
					"internalType": "bytes32",
					"name": "",
					"type": "bytes32"
				}
			],
			"stateMutability": "pure",
			"type": "function"
		},
		{
			"inputs": [
				{
					"components": [
						{
							"internalType": "address",
							"name": "playerA",
							"type": "address"
						},
						{
							"internalType": "uint256",
							"name": "nonceA",
							"type": "uint256"
						},
						{
							"internalType": "address",
							"name": "playerB",
							"type": "address"
						},
						{
							"internalType": "uint256",
							"name": "nonceB",
							"type": "uint256"
						},
						{
							"internalType": "uint256",
							"name": "timestamp",
							"type": "uint256"
						}
					],
					"internalType": "struct GameLibrary.Match",
					"name": "m",
					"type": "tuple"
				},
				{
					"internalType": "bytes32",
					"name": "hash",
					"type": "bytes32"
				},
				{
					"components": [
						{
							"internalType": "uint8",
							"name": "v",
							"type": "uint8"
						},
						{
							"internalType": "bytes32",
							"name": "r",
							"type": "bytes32"
						},
						{
							"internalType": "bytes32",
							"name": "s",
							"type": "bytes32"
						}
					],
					"internalType": "struct GameLibrary.Sig",
					"name": "sigpA",
					"type": "tuple"
				},
				{
					"components": [
						{
							"internalType": "uint8",
							"name": "v",
							"type": "uint8"
						},
						{
							"internalType": "bytes32",
							"name": "r",
							"type": "bytes32"
						},
						{
							"internalType": "bytes32",
							"name": "s",
							"type": "bytes32"
						}
					],
					"internalType": "struct GameLibrary.Sig",
					"name": "sigpB",
					"type": "tuple"
				}
			],
			"name": "_validateMatch",
			"outputs": [
				{
					"internalType": "bool",
					"name": "",
					"type": "bool"
				}
			],
			"stateMutability": "pure",
			"type": "function"
		},
		{
			"inputs": [
				{
					"internalType": "address",
					"name": "pA",
					"type": "address"
				},
				{
					"internalType": "uint256",
					"name": "nonceA",
					"type": "uint256"
				},
				{
					"internalType": "address",
					"name": "pB",
					"type": "address"
				},
				{
					"internalType": "uint256",
					"name": "nonceB",
					"type": "uint256"
				},
				{
					"internalType": "uint256",
					"name": "timestamp",
					"type": "uint256"
				}
			],
			"name": "hashMatch",
			"outputs": [
				{
					"internalType": "bytes32",
					"name": "",
					"type": "bytes32"
				}
			],
			"stateMutability": "pure",
			"type": "function"
		},
		{
			"inputs": [
				{
					"internalType": "bytes32",
					"name": "hash",
					"type": "bytes32"
				}
			],
			"name": "hashToSign",
			"outputs": [
				{
					"internalType": "bytes32",
					"name": "",
					"type": "bytes32"
				}
			],
			"stateMutability": "pure",
			"type": "function"
		},
		{
			"inputs": [
				{
					"internalType": "address",
					"name": "pA",
					"type": "address"
				},
				{
					"internalType": "uint256",
					"name": "nonceA",
					"type": "uint256"
				},
				{
					"internalType": "address",
					"name": "pB",
					"type": "address"
				},
				{
					"internalType": "uint256",
					"name": "nonceB",
					"type": "uint256"
				},
				{
					"internalType": "uint256",
					"name": "timestamp",
					"type": "uint256"
				},
				{
					"internalType": "uint8",
					"name": "vA",
					"type": "uint8"
				},
				{
					"internalType": "bytes32",
					"name": "rA",
					"type": "bytes32"
				},
				{
					"internalType": "bytes32",
					"name": "sA",
					"type": "bytes32"
				},
				{
					"internalType": "uint8",
					"name": "vB",
					"type": "uint8"
				},
				{
					"internalType": "bytes32",
					"name": "rB",
					"type": "bytes32"
				},
				{
					"internalType": "bytes32",
					"name": "sB",
					"type": "bytes32"
				}
			],
			"name": "validateMatch",
			"outputs": [
				{
					"internalType": "bool",
					"name": "",
					"type": "bool"
				}
			],
			"stateMutability": "pure",
			"type": "function"
		}
	]
}